{
  "contractName": "EdgeTokenV1",
  "abi": [
    {
      "constant": true,
      "inputs": [],
      "name": "name",
      "outputs": [
        {
          "name": "",
          "type": "string"
        }
      ],
      "payable": false,
      "stateMutability": "view",
      "type": "function"
    },
    {
      "constant": false,
      "inputs": [
        {
          "name": "spender",
          "type": "address"
        },
        {
          "name": "value",
          "type": "uint256"
        }
      ],
      "name": "approve",
      "outputs": [
        {
          "name": "",
          "type": "bool"
        }
      ],
      "payable": false,
      "stateMutability": "nonpayable",
      "type": "function"
    },
    {
      "constant": true,
      "inputs": [],
      "name": "newBool",
      "outputs": [
        {
          "name": "",
          "type": "bool"
        }
      ],
      "payable": false,
      "stateMutability": "view",
      "type": "function"
    },
    {
      "constant": false,
      "inputs": [
        {
          "name": "_baseOperators",
          "type": "address"
        }
      ],
      "name": "setOperatorsContract",
      "outputs": [],
      "payable": false,
      "stateMutability": "nonpayable",
      "type": "function"
    },
    {
      "constant": true,
      "inputs": [],
      "name": "totalSupply",
      "outputs": [
        {
          "name": "",
          "type": "uint256"
        }
      ],
      "payable": false,
      "stateMutability": "view",
      "type": "function"
    },
    {
      "constant": true,
      "inputs": [],
      "name": "getOperatorsPending",
      "outputs": [
        {
          "name": "",
          "type": "address"
        }
      ],
      "payable": false,
      "stateMutability": "view",
      "type": "function"
    },
    {
      "constant": false,
      "inputs": [
        {
          "name": "_account",
          "type": "address"
        },
        {
          "name": "_amount",
          "type": "uint256"
        }
      ],
      "name": "burnFor",
      "outputs": [],
      "payable": false,
      "stateMutability": "nonpayable",
      "type": "function"
    },
    {
      "constant": false,
      "inputs": [
        {
          "name": "from",
          "type": "address"
        },
        {
          "name": "to",
          "type": "address"
        },
        {
          "name": "value",
          "type": "uint256"
        }
      ],
      "name": "transferFrom",
      "outputs": [
        {
          "name": "",
          "type": "bool"
        }
      ],
      "payable": false,
      "stateMutability": "nonpayable",
      "type": "function"
    },
    {
      "constant": true,
      "inputs": [
        {
          "name": "_account",
          "type": "address"
        }
      ],
      "name": "isAdmin",
      "outputs": [
        {
          "name": "",
          "type": "bool"
        }
      ],
      "payable": false,
      "stateMutability": "view",
      "type": "function"
    },
    {
      "constant": true,
      "inputs": [
        {
          "name": "_account",
          "type": "address"
        }
      ],
      "name": "isOperatorOrSystem",
      "outputs": [
        {
          "name": "",
          "type": "bool"
        }
      ],
      "payable": false,
      "stateMutability": "view",
      "type": "function"
    },
    {
      "constant": false,
      "inputs": [
        {
          "name": "_confiscatees",
          "type": "address[]"
        },
        {
          "name": "_receivers",
          "type": "address[]"
        },
        {
          "name": "_values",
          "type": "uint256[]"
        }
      ],
      "name": "batchConfiscate",
      "outputs": [
        {
          "name": "",
          "type": "bool"
        }
      ],
      "payable": false,
      "stateMutability": "nonpayable",
      "type": "function"
    },
    {
      "constant": true,
      "inputs": [],
      "name": "decimals",
      "outputs": [
        {
          "name": "",
          "type": "uint8"
        }
      ],
      "payable": false,
      "stateMutability": "view",
      "type": "function"
    },
    {
      "constant": false,
      "inputs": [
        {
          "name": "_account",
          "type": "address"
        },
        {
          "name": "_toggled",
          "type": "bool"
        }
      ],
      "name": "toggleWhitelist",
      "outputs": [],
      "payable": false,
      "stateMutability": "nonpayable",
      "type": "function"
    },
    {
      "constant": true,
      "inputs": [
        {
          "name": "_account",
          "type": "address"
        }
      ],
      "name": "isSystem",
      "outputs": [
        {
          "name": "",
          "type": "bool"
        }
      ],
      "payable": false,
      "stateMutability": "view",
      "type": "function"
    },
    {
      "constant": true,
      "inputs": [],
      "name": "isInitialized",
      "outputs": [
        {
          "name": "",
          "type": "bool"
        }
      ],
      "payable": false,
      "stateMutability": "view",
      "type": "function"
    },
    {
      "constant": false,
      "inputs": [
        {
          "name": "spender",
          "type": "address"
        },
        {
          "name": "addedValue",
          "type": "uint256"
        }
      ],
      "name": "increaseAllowance",
      "outputs": [
        {
          "name": "",
          "type": "bool"
        }
      ],
      "payable": false,
      "stateMutability": "nonpayable",
      "type": "function"
    },
    {
      "constant": true,
      "inputs": [
        {
          "name": "_account",
          "type": "address"
        }
      ],
      "name": "isWhitelisted",
      "outputs": [
        {
          "name": "",
          "type": "bool"
        }
      ],
      "payable": false,
      "stateMutability": "view",
      "type": "function"
    },
    {
      "constant": false,
      "inputs": [],
      "name": "unpause",
      "outputs": [],
      "payable": false,
      "stateMutability": "nonpayable",
      "type": "function"
    },
    {
      "constant": false,
      "inputs": [
        {
          "name": "_account",
          "type": "address"
        },
        {
          "name": "_amount",
          "type": "uint256"
        }
      ],
      "name": "mint",
      "outputs": [],
      "payable": false,
      "stateMutability": "nonpayable",
      "type": "function"
    },
    {
      "constant": false,
      "inputs": [
        {
          "name": "_amount",
          "type": "uint256"
        }
      ],
      "name": "burn",
      "outputs": [],
      "payable": false,
      "stateMutability": "nonpayable",
      "type": "function"
    },
    {
      "constant": true,
      "inputs": [],
      "name": "getOperatorsContract",
      "outputs": [
        {
          "name": "",
          "type": "address"
        }
      ],
      "payable": false,
      "stateMutability": "view",
      "type": "function"
    },
    {
      "constant": false,
      "inputs": [
        {
          "name": "_recipients",
          "type": "address[]"
        },
        {
          "name": "_values",
          "type": "uint256[]"
        }
      ],
      "name": "batchMint",
      "outputs": [
        {
          "name": "",
          "type": "bool"
        }
      ],
      "payable": false,
      "stateMutability": "nonpayable",
      "type": "function"
    },
    {
      "constant": true,
      "inputs": [
        {
          "name": "_account",
          "type": "address"
        }
      ],
      "name": "isOperator",
      "outputs": [
        {
          "name": "",
          "type": "bool"
        }
      ],
      "payable": false,
      "stateMutability": "view",
      "type": "function"
    },
    {
      "constant": true,
      "inputs": [
        {
          "name": "account",
          "type": "address"
        }
      ],
      "name": "balanceOf",
      "outputs": [
        {
          "name": "",
          "type": "uint256"
        }
      ],
      "payable": false,
      "stateMutability": "view",
      "type": "function"
    },
    {
      "constant": false,
      "inputs": [
        {
          "name": "_account",
          "type": "address"
        },
        {
          "name": "_amount",
          "type": "uint256"
        }
      ],
      "name": "burnFrom",
      "outputs": [],
      "payable": false,
      "stateMutability": "nonpayable",
      "type": "function"
    },
    {
      "constant": true,
      "inputs": [],
      "name": "isNotPaused",
      "outputs": [
        {
          "name": "",
          "type": "bool"
        }
      ],
      "payable": false,
      "stateMutability": "view",
      "type": "function"
    },
    {
      "constant": false,
      "inputs": [],
      "name": "pause",
      "outputs": [],
      "payable": false,
      "stateMutability": "nonpayable",
      "type": "function"
    },
    {
      "constant": false,
      "inputs": [
        {
          "name": "_addresses",
          "type": "address[]"
        },
        {
          "name": "_toggled",
          "type": "bool"
        }
      ],
      "name": "batchToggleFreeze",
      "outputs": [],
      "payable": false,
      "stateMutability": "nonpayable",
      "type": "function"
    },
    {
      "constant": false,
      "inputs": [],
      "name": "confirmOperatorsContract",
      "outputs": [],
      "payable": false,
      "stateMutability": "nonpayable",
      "type": "function"
    },
    {
      "constant": true,
      "inputs": [],
      "name": "initializedV1",
      "outputs": [
        {
          "name": "",
          "type": "bool"
        }
      ],
      "payable": false,
      "stateMutability": "view",
      "type": "function"
    },
    {
      "constant": false,
      "inputs": [
        {
          "name": "_account",
          "type": "address"
        },
        {
          "name": "_toggled",
          "type": "bool"
        }
      ],
      "name": "toggleFreeze",
      "outputs": [],
      "payable": false,
      "stateMutability": "nonpayable",
      "type": "function"
    },
    {
      "constant": true,
      "inputs": [],
      "name": "symbol",
      "outputs": [
        {
          "name": "",
          "type": "string"
        }
      ],
      "payable": false,
      "stateMutability": "view",
      "type": "function"
    },
    {
      "constant": false,
      "inputs": [
        {
          "name": "_confiscatee",
          "type": "address"
        },
        {
          "name": "_receiver",
          "type": "address"
        },
        {
          "name": "_amount",
          "type": "uint256"
        }
      ],
      "name": "confiscate",
      "outputs": [],
      "payable": false,
      "stateMutability": "nonpayable",
      "type": "function"
    },
    {
      "constant": false,
      "inputs": [
        {
          "name": "spender",
          "type": "address"
        },
        {
          "name": "subtractedValue",
          "type": "uint256"
        }
      ],
      "name": "decreaseAllowance",
      "outputs": [
        {
          "name": "",
          "type": "bool"
        }
      ],
      "payable": false,
      "stateMutability": "nonpayable",
      "type": "function"
    },
    {
      "constant": false,
      "inputs": [
        {
          "name": "to",
          "type": "address"
        },
        {
          "name": "value",
          "type": "uint256"
        }
      ],
      "name": "transfer",
      "outputs": [
        {
          "name": "",
          "type": "bool"
        }
      ],
      "payable": false,
      "stateMutability": "nonpayable",
      "type": "function"
    },
    {
      "constant": false,
      "inputs": [
        {
          "name": "_recipients",
          "type": "address[]"
        },
        {
          "name": "_values",
          "type": "uint256[]"
        }
      ],
      "name": "batchBurnFor",
      "outputs": [
        {
          "name": "",
          "type": "bool"
        }
      ],
      "payable": false,
      "stateMutability": "nonpayable",
      "type": "function"
    },
    {
      "constant": true,
      "inputs": [],
      "name": "newAddress",
      "outputs": [
        {
          "name": "",
          "type": "address"
        }
      ],
      "payable": false,
      "stateMutability": "view",
      "type": "function"
    },
    {
      "constant": true,
      "inputs": [
        {
          "name": "",
          "type": "address"
        }
      ],
      "name": "frozen",
      "outputs": [
        {
          "name": "",
          "type": "bool"
        }
      ],
      "payable": false,
      "stateMutability": "view",
      "type": "function"
    },
    {
      "constant": true,
      "inputs": [
        {
          "name": "_account",
          "type": "address"
        }
      ],
      "name": "isAdminOrSystem",
      "outputs": [
        {
          "name": "",
          "type": "bool"
        }
      ],
      "payable": false,
      "stateMutability": "view",
      "type": "function"
    },
    {
      "constant": false,
      "inputs": [
        {
          "name": "_addresses",
          "type": "address[]"
        },
        {
          "name": "_toggled",
          "type": "bool"
        }
      ],
      "name": "batchToggleWhitelist",
      "outputs": [],
      "payable": false,
      "stateMutability": "nonpayable",
      "type": "function"
    },
    {
      "constant": true,
      "inputs": [
        {
          "name": "",
          "type": "address"
        }
      ],
      "name": "whitelisted",
      "outputs": [
        {
          "name": "",
          "type": "bool"
        }
      ],
      "payable": false,
      "stateMutability": "view",
      "type": "function"
    },
    {
      "constant": true,
      "inputs": [
        {
          "name": "owner",
          "type": "address"
        },
        {
          "name": "spender",
          "type": "address"
        }
      ],
      "name": "allowance",
      "outputs": [
        {
          "name": "",
          "type": "uint256"
        }
      ],
      "payable": false,
      "stateMutability": "view",
      "type": "function"
    },
    {
      "constant": true,
      "inputs": [
        {
          "name": "_account",
          "type": "address"
        }
      ],
      "name": "isFrozen",
      "outputs": [
        {
          "name": "",
          "type": "bool"
        }
      ],
      "payable": false,
      "stateMutability": "view",
      "type": "function"
    },
    {
      "constant": true,
      "inputs": [],
      "name": "newUint",
      "outputs": [
        {
          "name": "",
          "type": "uint256"
        }
      ],
      "payable": false,
      "stateMutability": "view",
      "type": "function"
    },
    {
      "anonymous": false,
      "inputs": [
        {
          "indexed": true,
          "name": "minter",
          "type": "address"
        },
        {
          "indexed": true,
          "name": "account",
          "type": "address"
        },
        {
          "indexed": false,
          "name": "value",
          "type": "uint256"
        }
      ],
      "name": "Minted",
      "type": "event"
    },
    {
      "anonymous": false,
      "inputs": [
        {
          "indexed": true,
          "name": "burner",
          "type": "address"
        },
        {
          "indexed": false,
          "name": "value",
          "type": "uint256"
        }
      ],
      "name": "Burned",
      "type": "event"
    },
    {
      "anonymous": false,
      "inputs": [
        {
          "indexed": true,
          "name": "burner",
          "type": "address"
        },
        {
          "indexed": true,
          "name": "account",
          "type": "address"
        },
        {
          "indexed": false,
          "name": "value",
          "type": "uint256"
        }
      ],
      "name": "BurnedFor",
      "type": "event"
    },
    {
      "anonymous": false,
      "inputs": [
        {
          "indexed": true,
          "name": "account",
          "type": "address"
        },
        {
          "indexed": false,
          "name": "frozen",
          "type": "bool"
        }
      ],
      "name": "FreezeToggled",
      "type": "event"
    },
    {
      "anonymous": false,
      "inputs": [
        {
          "indexed": true,
          "name": "account",
          "type": "address"
        }
      ],
      "name": "Paused",
      "type": "event"
    },
    {
      "anonymous": false,
      "inputs": [
        {
          "indexed": true,
          "name": "account",
          "type": "address"
        }
      ],
      "name": "Unpaused",
      "type": "event"
    },
    {
      "anonymous": false,
      "inputs": [
        {
          "indexed": true,
          "name": "account",
          "type": "address"
        },
        {
          "indexed": false,
          "name": "whitelisted",
          "type": "bool"
        }
      ],
      "name": "WhitelistToggled",
      "type": "event"
    },
    {
      "anonymous": false,
      "inputs": [
        {
          "indexed": true,
          "name": "caller",
          "type": "address"
        },
        {
          "indexed": true,
          "name": "operatorsAddress",
          "type": "address"
        }
      ],
      "name": "OperatorsContractChanged",
      "type": "event"
    },
    {
      "anonymous": false,
      "inputs": [
        {
          "indexed": true,
          "name": "caller",
          "type": "address"
        },
        {
          "indexed": true,
          "name": "operatorsAddress",
          "type": "address"
        }
      ],
      "name": "OperatorsContractPending",
      "type": "event"
    },
    {
      "anonymous": false,
      "inputs": [
        {
          "indexed": true,
          "name": "from",
          "type": "address"
        },
        {
          "indexed": true,
          "name": "to",
          "type": "address"
        },
        {
          "indexed": false,
          "name": "value",
          "type": "uint256"
        }
      ],
      "name": "Transfer",
      "type": "event"
    },
    {
      "anonymous": false,
      "inputs": [
        {
          "indexed": true,
          "name": "owner",
          "type": "address"
        },
        {
          "indexed": true,
          "name": "spender",
          "type": "address"
        },
        {
          "indexed": false,
          "name": "value",
          "type": "uint256"
        }
      ],
      "name": "Approval",
      "type": "event"
    },
    {
      "constant": false,
      "inputs": [
        {
          "name": "_baseOperators",
          "type": "address"
        }
      ],
      "name": "initialize",
      "outputs": [],
      "payable": false,
      "stateMutability": "nonpayable",
      "type": "function"
    },
    {
      "constant": false,
      "inputs": [
        {
          "name": "_operatorsAddr",
          "type": "address"
        },
        {
          "name": "_newBool",
          "type": "bool"
        },
        {
          "name": "_newAddress",
          "type": "address"
        },
        {
          "name": "_newUint",
          "type": "uint256"
        }
      ],
      "name": "initialize",
      "outputs": [],
      "payable": false,
      "stateMutability": "nonpayable",
      "type": "function"
    },
    {
      "constant": false,
      "inputs": [
        {
          "name": "_newBool",
          "type": "bool"
        },
        {
          "name": "_newAddress",
          "type": "address"
        },
        {
          "name": "_newUint",
          "type": "uint256"
        }
      ],
      "name": "initV1",
      "outputs": [],
      "payable": false,
      "stateMutability": "nonpayable",
      "type": "function"
    },
    {
      "constant": false,
      "inputs": [
        {
          "name": "_newAddress",
          "type": "address"
        }
      ],
      "name": "setNewAddress",
      "outputs": [],
      "payable": false,
      "stateMutability": "nonpayable",
      "type": "function"
    }
  ],
  "bytecode": "0x600b60808181527f4469676974616c2043484600000000000000000000000000000000000000000060a0908152610100604052600460c09081527f444348460000000000000000000000000000000000000000000000000000000060e0529192600291620000719160039190620000ac565b50815162000087906004906020850190620000ac565b506005805460ff90921660ff19928316179055603b8054909116905550620001519050565b828054600181600116156101000203166002900490600052602060002090601f016020900481019282601f10620000ef57805160ff19168380011785556200011f565b828001600101855582156200011f579182015b828111156200011f57825182559160200191906001019062000102565b506200012d92915062000131565b5090565b6200014e91905b808211156200012d576000815560010162000138565b90565b61427980620001616000396000f3fe6080604052600436106102455763ffffffff7c010000000000000000000000000000000000000000000000000000000060003504166306fdde03811461024a578063095ea7b3146102d457806310ae5638146103215780631745145e1461033657806318160ddd1461036b5780631c6bbabc146103925780631dd319cb146103c357806323b872dd146103fc57806324d7806c1461043f57806329518514146104725780633117a761146104a5578063313ce5671461065d578063349123d11461068857806334cdcf26146106c3578063392e53cd146106f6578063395093511461070b5780633af32abf146107445780633f4ba83a1461077757806340c10f191461078c57806342966c68146107c55780635ead86c6146107ef57806368573107146108045780636d70f7ae1461093857806370a082311461096b578063715879881461099e57806379cc6790146109d15780637acf489214610a0a5780638456cb5914610a1f57806384a9d4d714610a345780638535a56b14610ae6578063869c0be414610afb5780638feaade414610b1057806395d89b4114610b4b578063960313bb14610b60578063a457c2d714610ba3578063a9059cbb14610bdc578063b962e03414610c15578063c4d66de814610d49578063ccdb3f4514610d7c578063d051665014610d91578063d0ea5f4d14610dc4578063d178224314610df7578063d936547e14610ea9578063dd62ed3e14610edc578063df1ef87f14610f17578063e583983614610f58578063ef6aa26414610f8b578063f9bf772814610fd4575b600080fd5b34801561025657600080fd5b5061025f610fe9565b6040805160208082528351818301528351919283929083019185019080838360005b83811015610299578181015183820152602001610281565b50505050905090810190601f1680156102c65780820380516001836020036101000a031916815260200191505b509250505060405180910390f35b3480156102e057600080fd5b5061030d600480360360408110156102f757600080fd5b50600160a060020a03813516906020013561107f565b604080519115158252519081900360200190f35b34801561032d57600080fd5b5061030d61114c565b34801561034257600080fd5b506103696004803603602081101561035957600080fd5b5035600160a060020a0316611155565b005b34801561037757600080fd5b506103806112a7565b60408051918252519081900360200190f35b34801561039e57600080fd5b506103a76112ad565b60408051600160a060020a039092168252519081900360200190f35b3480156103cf57600080fd5b50610369600480360360408110156103e657600080fd5b50600160a060020a0381351690602001356112bc565b34801561040857600080fd5b5061030d6004803603606081101561041f57600080fd5b50600160a060020a0381358116916020810135909116906040013561130a565b34801561044b57600080fd5b5061030d6004803603602081101561046257600080fd5b5035600160a060020a031661143b565b34801561047e57600080fd5b5061030d6004803603602081101561049557600080fd5b5035600160a060020a03166114d7565b3480156104b157600080fd5b5061030d600480360360608110156104c857600080fd5b8101906020810181356401000000008111156104e357600080fd5b8201836020820111156104f557600080fd5b8035906020019184602083028401116401000000008311171561051757600080fd5b919080806020026020016040519081016040528093929190818152602001838360200280828437600092019190915250929594936020810193503591505064010000000081111561056757600080fd5b82018360208201111561057957600080fd5b8035906020019184602083028401116401000000008311171561059b57600080fd5b91908080602002602001604051908101604052809392919081815260200183836020028082843760009201919091525092959493602081019350359150506401000000008111156105eb57600080fd5b8201836020820111156105fd57600080fd5b8035906020019184602083028401116401000000008311171561061f57600080fd5b9190808060200260200160405190810160405280939291908181526020018383602002808284376000920191909152509295506115df945050505050565b34801561066957600080fd5b5061067261175c565b6040805160ff9092168252519081900360200190f35b34801561069457600080fd5b50610369600480360360408110156106ab57600080fd5b50600160a060020a0381351690602001351515611765565b3480156106cf57600080fd5b5061030d600480360360208110156106e657600080fd5b5035600160a060020a031661189f565b34801561070257600080fd5b5061030d611909565b34801561071757600080fd5b5061030d6004803603604081101561072e57600080fd5b50600160a060020a038135169060200135611917565b34801561075057600080fd5b5061030d6004803603602081101561076757600080fd5b5035600160a060020a03166119db565b34801561078357600080fd5b506103696119f9565b34801561079857600080fd5b50610369600480360360408110156107af57600080fd5b50600160a060020a038135169060200135611aed565b3480156107d157600080fd5b50610369600480360360208110156107e857600080fd5b5035611bcd565b3480156107fb57600080fd5b506103a7611c94565b34801561081057600080fd5b5061030d6004803603604081101561082757600080fd5b81019060208101813564010000000081111561084257600080fd5b82018360208201111561085457600080fd5b8035906020019184602083028401116401000000008311171561087657600080fd5b91908080602002602001604051908101604052809392919081815260200183836020028082843760009201919091525092959493602081019350359150506401000000008111156108c657600080fd5b8201836020820111156108d857600080fd5b803590602001918460208302840111640100000000831117156108fa57600080fd5b919080806020026020016040519081016040528093929190818152602001838360200280828437600092019190915250929550611ca3945050505050565b34801561094457600080fd5b5061030d6004803603602081101561095b57600080fd5b5035600160a060020a0316611df8565b34801561097757600080fd5b506103806004803603602081101561098e57600080fd5b5035600160a060020a0316611e62565b3480156109aa57600080fd5b50610369600480360360208110156109c157600080fd5b5035600160a060020a0316611e7d565b3480156109dd57600080fd5b50610369600480360360408110156109f457600080fd5b50600160a060020a038135169060200135611eb2565b348015610a1657600080fd5b5061030d611eff565b348015610a2b57600080fd5b50610369611f09565b348015610a4057600080fd5b5061036960048036036040811015610a5757600080fd5b810190602081018135640100000000811115610a7257600080fd5b820183602082011115610a8457600080fd5b80359060200191846020830284011164010000000083111715610aa657600080fd5b9190808060200260200160405190810160405280939291908181526020018383602002808284376000920191909152509295505050503515159050611fed565b348015610af257600080fd5b506103696120a8565b348015610b0757600080fd5b5061030d6121cf565b348015610b1c57600080fd5b5061036960048036036040811015610b3357600080fd5b50600160a060020a03813516906020013515156121d8565b348015610b5757600080fd5b5061025f612300565b348015610b6c57600080fd5b5061036960048036036060811015610b8357600080fd5b50600160a060020a03813581169160208101359091169060400135612361565b348015610baf57600080fd5b5061030d60048036036040811015610bc657600080fd5b50600160a060020a0381351690602001356124db565b348015610be857600080fd5b5061030d60048036036040811015610bff57600080fd5b50600160a060020a03813516906020013561259f565b348015610c2157600080fd5b5061030d60048036036040811015610c3857600080fd5b810190602081018135640100000000811115610c5357600080fd5b820183602082011115610c6557600080fd5b80359060200191846020830284011164010000000083111715610c8757600080fd5b9190808060200260200160405190810160405280939291908181526020018383602002808284376000920191909152509295949360208101935035915050640100000000811115610cd757600080fd5b820183602082011115610ce957600080fd5b80359060200191846020830284011164010000000083111715610d0b57600080fd5b919080806020026020016040519081016040528093929190818152602001838360200280828437600092019190915250929550612663945050505050565b348015610d5557600080fd5b5061036960048036036020811015610d6c57600080fd5b5035600160a060020a03166127b2565b348015610d8857600080fd5b506103a76128ab565b348015610d9d57600080fd5b5061030d60048036036020811015610db457600080fd5b5035600160a060020a03166128bf565b348015610dd057600080fd5b5061030d60048036036020811015610de757600080fd5b5035600160a060020a03166128d4565b348015610e0357600080fd5b5061036960048036036040811015610e1a57600080fd5b810190602081018135640100000000811115610e3557600080fd5b820183602082011115610e4757600080fd5b80359060200191846020830284011164010000000083111715610e6957600080fd5b919080806020026020016040519081016040528093929190818152602001838360200280828437600092019190915250929550505050351515905061293e565b348015610eb557600080fd5b5061030d60048036036020811015610ecc57600080fd5b5035600160a060020a03166129f4565b348015610ee857600080fd5b5061038060048036036040811015610eff57600080fd5b50600160a060020a0381358116916020013516612a09565b348015610f2357600080fd5b5061036960048036036060811015610f3a57600080fd5b508035151590600160a060020a036020820135169060400135612a34565b348015610f6457600080fd5b5061030d60048036036020811015610f7b57600080fd5b5035600160a060020a0316612ae2565b348015610f9757600080fd5b5061036960048036036080811015610fae57600080fd5b50600160a060020a03813581169160208101351515916040820135169060600135612b00565b348015610fe057600080fd5b50610380612b1a565b60038054604080516020601f60026000196101006001881615020190951694909404938401819004810282018101909252828152606093909290918301828280156110755780601f1061104a57610100808354040283529160200191611075565b820191906000526020600020905b81548152906001019060200180831161105857829003601f168201915b5050505050905090565b336000818152603c602052604081205490919060ff16156110d8576040805160e560020a62461bcd02815260206004820152601c60248201526000805160206141ae833981519152604482015290519081900360640190fd5b600160a060020a0384166000908152603c6020526040902054849060ff1615611139576040805160e560020a62461bcd02815260206004820152601c60248201526000805160206141ae833981519152604482015290519081900360640190fd5b6111438585612b20565b95945050505050565b603d5460ff1681565b61115e3361143b565b15156111c8576040805160e560020a62461bcd02815260206004820152603160248201526000805160206141ee83398151915260448201527f7665207468652061646d696e20726f6c65000000000000000000000000000000606482015290519081900360840190fd5b600160a060020a038116151561124e576040805160e560020a62461bcd02815260206004820152603f60248201527f4f70657261746f7261626c653a2061646472657373206f66206e6577206f706560448201527f7261746f727320636f6e74726163742063616e206e6f74206265207a65726f00606482015290519081900360840190fd5b6039805473ffffffffffffffffffffffffffffffffffffffff1916600160a060020a03831690811790915560405133907f01e6311290e7fb795a47761d6ca6a39b9c898bbf2e8b0e40211aa9f2f6c0202990600090a350565b60025490565b603954600160a060020a031690565b6112c68282612b7d565b604080518281529051600160a060020a0384169133917f27d99300c6c6789f01bf643b2832d5f98653c4c2166dfce0a8ed822b049f30739181900360200190a35050565b336000818152603c602052604081205490919060ff1615611363576040805160e560020a62461bcd02815260206004820152601c60248201526000805160206141ae833981519152604482015290519081900360640190fd5b600160a060020a0385166000908152603c6020526040902054859060ff16156113c4576040805160e560020a62461bcd02815260206004820152601c60248201526000805160206141ae833981519152604482015290519081900360640190fd5b600160a060020a0385166000908152603c6020526040902054859060ff1615611425576040805160e560020a62461bcd02815260206004820152601c60248201526000805160206141ae833981519152604482015290519081900360640190fd5b611430878787612be8565b979650505050505050565b603854604080517f24d7806c000000000000000000000000000000000000000000000000000000008152600160a060020a038481166004830152915160009392909216916324d7806c91602480820192602092909190829003018186803b1580156114a557600080fd5b505afa1580156114b9573d6000803e3d6000fd5b505050506040513d60208110156114cf57600080fd5b505192915050565b603854604080517f6d70f7ae000000000000000000000000000000000000000000000000000000008152600160a060020a03848116600483015291516000939290921691636d70f7ae91602480820192602092909190829003018186803b15801561154157600080fd5b505afa158015611555573d6000803e3d6000fd5b505050506040513d602081101561156b57600080fd5b5051806115d95750603854604080517f34cdcf26000000000000000000000000000000000000000000000000000000008152600160a060020a038581166004830152915191909216916334cdcf26916024808301926020929190829003018186803b1580156114a557600080fd5b92915050565b6000815184511480156115f3575081518351145b151561166f576040805160e560020a62461bcd02815260206004820152602e60248201527f45646765546f6b656e3a2076616c75657320616e6420726563697069656e747360448201527f20617265206e6f7420657175616c000000000000000000000000000000000000606482015290519081900360840190fd5b835161010010156116f0576040805160e560020a62461bcd02815260206004820152603260248201527f45646765546f6b656e3a20626174636820636f756e742069732067726561746560448201527f72207468616e2042415443485f4c494d49540000000000000000000000000000606482015290519081900360840190fd5b60005b84518110156117545761174c858281518110151561170d57fe5b90602001906020020151858381518110151561172557fe5b90602001906020020151858481518110151561173d57fe5b90602001906020020151612361565b6001016116f3565b509392505050565b60055460ff1690565b81600160a060020a03811615156117c6576040805160e560020a62461bcd02815260206004820152601860248201527f467265657a61626c653a20456d70747920616464726573730000000000000000604482015290519081900360640190fd5b6117cf336114d7565b1515611839576040805160e560020a62461bcd02815260206004820152603f60248201526000805160206141ee83398151915260448201527f766520746865206f70657261746f7220726f6c65206e6f722073797374656d00606482015290519081900360840190fd5b600160a060020a0383166000818152603a6020908152604091829020805460ff19168615151790819055825160ff9091161515815291517fdb17f7dcc6b9d3c099107ae3eea3dcc0ce959cda4b7b164cac7f8f9c841397199281900390910190a2505050565b603854604080517f34cdcf26000000000000000000000000000000000000000000000000000000008152600160a060020a038481166004830152915160009392909216916334cdcf2691602480820192602092909190829003018186803b1580156114a557600080fd5b600554610100900460ff1690565b336000818152603c602052604081205490919060ff1615611970576040805160e560020a62461bcd02815260206004820152601c60248201526000805160206141ae833981519152604482015290519081900360640190fd5b600160a060020a0384166000908152603c6020526040902054849060ff16156119d1576040805160e560020a62461bcd02815260206004820152601c60248201526000805160206141ae833981519152604482015290519081900360640190fd5b6111438585612c47565b600160a060020a03166000908152603a602052604090205460ff1690565b611a0233611df8565b1515611a5a576040805160e560020a62461bcd02815260206004820152603460248201526000805160206141ee833981519152604482015260008051602061420e833981519152606482015290519081900360840190fd5b603b5460ff161515611ab6576040805160e560020a62461bcd02815260206004820152601460248201527f5061757361626c653a206e6f7420706175736564000000000000000000000000604482015290519081900360640190fd5b603b805460ff1916905560405133907f5db9ee0a495bf2e6ff9c91a7834c1ba4fdd244a5e8aa4e537bd38aeae4b073aa90600090a2565b611af63361189f565b15611b7f57611b0482612ae2565b15611b7f576040805160e560020a62461bcd02815260206004820152603460248201527f45646765546f6b656e3a204163636f756e74206d7573742062652066726f7a6560448201527f6e2069662073797374656d2063616c6c696e672e000000000000000000000000606482015290519081900360840190fd5b611b898282612c9d565b604080518281529051600160a060020a0384169133917f9d228d69b5fdb8d273a2336f8fb8612d039631024ea9bf09c424a9503aa078f09181900360200190a35050565b611bd633612ae2565b15611c51576040805160e560020a62461bcd02815260206004820152602560248201527f45646765546f6b656e3a204163636f756e74206d757374206e6f74206265206660448201527f726f7a656e000000000000000000000000000000000000000000000000000000606482015290519081900360840190fd5b611c5b3382612d98565b60408051828152905133917f696de425f79f4a40bc6d2122ca50507f0efbeabbff86a84871b7196ab8ea8df7919081900360200190a250565b603854600160a060020a031690565b8051825160009114611d25576040805160e560020a62461bcd02815260206004820152602f60248201527f45646765546f6b656e3a2076616c75657320616e6420726563697069656e747360448201527f20617265206e6f7420657175616c2e0000000000000000000000000000000000606482015290519081900360840190fd5b82516101001015611da5576040805160e560020a62461bcd028152602060048201526024808201527f45646765546f6b656e3a2067726561746572207468616e2042415443485f4c4960448201527f4d49542e00000000000000000000000000000000000000000000000000000000606482015290519081900360840190fd5b60005b8351811015611df157611de98482815181101515611dc257fe5b906020019060200201518483815181101515611dda57fe5b90602001906020020151611aed565b600101611da8565b5092915050565b603854604080517f6d70f7ae000000000000000000000000000000000000000000000000000000008152600160a060020a03848116600483015291516000939290921691636d70f7ae91602480820192602092909190829003018186803b1580156114a557600080fd5b600160a060020a031660009081526020819052604090205490565b603d8054600160a060020a039092166101000274ffffffffffffffffffffffffffffffffffffffff0019909216919091179055565b611ebc8282612deb565b604080518281529051600160a060020a038416917f696de425f79f4a40bc6d2122ca50507f0efbeabbff86a84871b7196ab8ea8df7919081900360200190a25050565b603b5460ff161590565b611f1233611df8565b1515611f6a576040805160e560020a62461bcd02815260206004820152603460248201526000805160206141ee833981519152604482015260008051602061420e833981519152606482015290519081900360840190fd5b603b5460ff1615611fb3576040805160e560020a62461bcd028152602060048201526010602482015260008051602061422e833981519152604482015290519081900360640190fd5b603b805460ff1916600117905560405133907f62e78cea01bee320cd4e420270b5ea74000d11b0c9f74754ebdbfc544b05a25890600090a2565b8151610100101561206e576040805160e560020a62461bcd02815260206004820152602a60248201527f467265657a61626c653a20626174636820636f756e742069732067726561746560448201527f72207468616e2032353600000000000000000000000000000000000000000000606482015290519081900360840190fd5b60005b82518110156120a35761209b838281518110151561208b57fe5b90602001906020020151836121d8565b600101612071565b505050565b603954600160a060020a03161515612130576040805160e560020a62461bcd02815260206004820152603f60248201527f4f70657261746f7261626c653a2061646472657373206f66206e6577206f706560448201527f7261746f727320636f6e74726163742063616e206e6f74206265207a65726f00606482015290519081900360840190fd5b603954600160a060020a031633146121b8576040805160e560020a62461bcd02815260206004820152603a60248201527f4f70657261746f7261626c653a2073686f756c642062652063616c6c6564206660448201527f726f6d206e6577206f70657261746f727320636f6e7472616374000000000000606482015290519081900360840190fd5b6039546121cd90600160a060020a0316612eac565b565b603f5460ff1681565b81600160a060020a0381161515612239576040805160e560020a62461bcd02815260206004820152601860248201527f467265657a61626c653a20456d70747920616464726573730000000000000000604482015290519081900360640190fd5b61224233611df8565b151561229a576040805160e560020a62461bcd02815260206004820152603460248201526000805160206141ee833981519152604482015260008051602061420e833981519152606482015290519081900360840190fd5b600160a060020a0383166000818152603c6020908152604091829020805460ff19168615151790819055825160ff9091161515815291517f3c143a3c8cc9eafd41748a32abe319b06bd5b995c988fa06db8d1ef4e5841edf9281900390910190a2505050565b60048054604080516020601f60026000196101006001881615020190951694909404938401819004810282018101909252828152606093909290918301828280156110755780601f1061104a57610100808354040283529160200191611075565b61236a33611df8565b15156123c2576040805160e560020a62461bcd02815260206004820152603460248201526000805160206141ee833981519152604482015260008051602061420e833981519152606482015290519081900360840190fd5b603b5460ff161561240b576040805160e560020a62461bcd028152602060048201526010602482015260008051602061422e833981519152604482015290519081900360640190fd5b81612415816119db565b151561246a576040805160e560020a62461bcd02815260206004820152602560248201526000805160206141ce833981519152604482015260da60020a641a5cdd195902606482015290519081900360840190fd5b83612474816119db565b15156124c9576040805160e560020a62461bcd02815260206004820152602560248201526000805160206141ce833981519152604482015260da60020a641a5cdd195902606482015290519081900360840190fd5b6124d4858585612f8b565b5050505050565b336000818152603c602052604081205490919060ff1615612534576040805160e560020a62461bcd02815260206004820152601c60248201526000805160206141ae833981519152604482015290519081900360640190fd5b600160a060020a0384166000908152603c6020526040902054849060ff1615612595576040805160e560020a62461bcd02815260206004820152601c60248201526000805160206141ae833981519152604482015290519081900360640190fd5b61114385856131ac565b336000818152603c602052604081205490919060ff16156125f8576040805160e560020a62461bcd02815260206004820152601c60248201526000805160206141ae833981519152604482015290519081900360640190fd5b600160a060020a0384166000908152603c6020526040902054849060ff1615612659576040805160e560020a62461bcd02815260206004820152601c60248201526000805160206141ae833981519152604482015290519081900360640190fd5b6111438585613202565b80518251600091146126e5576040805160e560020a62461bcd02815260206004820152602f60248201527f45646765546f6b656e3a2076616c75657320616e6420726563697069656e747360448201527f20617265206e6f7420657175616c2e0000000000000000000000000000000000606482015290519081900360840190fd5b82516101001015612766576040805160e560020a62461bcd02815260206004820152603360248201527f45646765546f6b656e3a20626174636820636f756e742069732067726561746560448201527f72207468616e2042415443485f4c494d49542e00000000000000000000000000606482015290519081900360840190fd5b60005b8351811015611df1576127aa848281518110151561278357fe5b90602001906020020151848381518110151561279b57fe5b906020019060200201516112bc565b600101612769565b60055462010000900460ff16806127cc57506127cc613258565b806127df5750600554610100900460ff16155b151561285b576040805160e560020a62461bcd02815260206004820152603d60248201527f496e697469616c697a61626c653a20436f6e747261637420696e7374616e636560448201527f2068617320616c7265616479206265656e20696e697469616c697a6564000000606482015290519081900360840190fd5b60055462010000900460ff1615801561288b576005805461ff001962ff0000199091166201000017166101001790555b6128948261325e565b80156128a7576005805462ff0000191690555b5050565b603d546101009004600160a060020a031681565b603c6020526000908152604090205460ff1681565b603854604080517f24d7806c000000000000000000000000000000000000000000000000000000008152600160a060020a038481166004830152915160009392909216916324d7806c91602480820192602092909190829003018186803b15801561154157600080fd5b815161010010156129bf576040805160e560020a62461bcd02815260206004820152602a60248201527f57686974656c6973743a20626174636820636f756e742069732067726561746560448201527f72207468616e2032353600000000000000000000000000000000000000000000606482015290519081900360840190fd5b60005b82518110156120a3576129ec83828151811015156129dc57fe5b9060200190602002015183611765565b6001016129c2565b603a6020526000908152604090205460ff1681565b600160a060020a03918216600090815260016020908152604080832093909416825291909152205490565b603f5460ff1615612a8f576040805160e560020a62461bcd02815260206004820181905260248201527f45646765546f6b656e56313a20616c726561647920696e697469616c697a6564604482015290519081900360640190fd5b603d8054600160a060020a039093166101000274ffffffffffffffffffffffffffffffffffffffff001994151560ff19948516179490941693909317909255603e91909155603f80549091166001179055565b600160a060020a03166000908152603c602052604090205460ff1690565b612b09846127b2565b612b14838383612a34565b50505050565b603e5481565b603b5460009060ff1615612b6c576040805160e560020a62461bcd028152602060048201526010602482015260008051602061422e833981519152604482015290519081900360640190fd5b612b768383613340565b9392505050565b612b8633611df8565b1515612bde576040805160e560020a62461bcd02815260206004820152603460248201526000805160206141ee833981519152604482015260008051602061420e833981519152606482015290519081900360840190fd5b6128a78282612d98565b603b5460009060ff1615612c34576040805160e560020a62461bcd028152602060048201526010602482015260008051602061422e833981519152604482015290519081900360640190fd5b612c3f84848461340a565b949350505050565b603b5460009060ff1615612c93576040805160e560020a62461bcd028152602060048201526010602482015260008051602061422e833981519152604482015290519081900360640190fd5b612b768383613534565b612ca6336114d7565b1515612d10576040805160e560020a62461bcd02815260206004820152603f60248201526000805160206141ee83398151915260448201527f766520746865206f70657261746f7220726f6c65206e6f722073797374656d00606482015290519081900360840190fd5b60008111612d8e576040805160e560020a62461bcd02815260206004820152602e60248201527f45524332304d696e7461626c653a20616d6f756e742068617320746f2062652060448201527f67726561746572207468616e2030000000000000000000000000000000000000606482015290519081900360840190fd5b6128a782826135fe565b603b5460ff1615612de1576040805160e560020a62461bcd028152602060048201526010602482015260008051602061422e833981519152604482015290519081900360640190fd5b6128a78282613651565b336000818152603c602052604090205460ff1615612e41576040805160e560020a62461bcd02815260206004820152601c60248201526000805160206141ae833981519152604482015290519081900360640190fd5b600160a060020a0383166000908152603c6020526040902054839060ff1615612ea2576040805160e560020a62461bcd02815260206004820152601c60248201526000805160206141ae833981519152604482015290519081900360640190fd5b612b1484846136ba565b600160a060020a0381161515612f32576040805160e560020a62461bcd02815260206004820152603e60248201527f4f70657261746f7261626c653a2061646472657373206f66206e6577206f706560448201527f7261746f727320636f6e74726163742063616e6e6f74206265207a65726f0000606482015290519081900360840190fd5b6038805473ffffffffffffffffffffffffffffffffffffffff1916600160a060020a03831690811790915560405133907f581e9e5016a25985d2da9da423c68d9946de634ff0e3447eaaa9575d135e819e90600090a350565b600160a060020a0383161515613011576040805160e560020a62461bcd02815260206004820152602560248201527f45524332303a207472616e736665722066726f6d20746865207a65726f20616460448201527f6472657373000000000000000000000000000000000000000000000000000000606482015290519081900360840190fd5b600160a060020a0382161515613097576040805160e560020a62461bcd02815260206004820152602360248201527f45524332303a207472616e7366657220746f20746865207a65726f206164647260448201527f6573730000000000000000000000000000000000000000000000000000000000606482015290519081900360840190fd5b60408051606081018252602681527f45524332303a207472616e7366657220616d6f756e74206578636565647320626020808301919091527f616c616e6365000000000000000000000000000000000000000000000000000082840152600160a060020a038616600090815290819052919091205461311d91839063ffffffff61370d16565b600160a060020a038085166000908152602081905260408082209390935590841681522054613152908263ffffffff6137a716565b600160a060020a038084166000818152602081815260409182902094909455805185815290519193928716927fddf252ad1be2c89b69c2b068fc378daa952ba7f163c4a11628f55a4df523b3ef92918290030190a3505050565b603b5460009060ff16156131f8576040805160e560020a62461bcd028152602060048201526010602482015260008051602061422e833981519152604482015290519081900360640190fd5b612b768383613804565b603b5460009060ff161561324e576040805160e560020a62461bcd028152602060048201526010602482015260008051602061422e833981519152604482015290519081900360640190fd5b612b7683836138ce565b303b1590565b60055462010000900460ff16806132785750613278613258565b8061328b5750600554610100900460ff16155b1515613307576040805160e560020a62461bcd02815260206004820152603d60248201527f496e697469616c697a61626c653a20436f6e747261637420696e7374616e636560448201527f2068617320616c7265616479206265656e20696e697469616c697a6564000000606482015290519081900360840190fd5b60055462010000900460ff16158015613337576005805461ff001962ff0000199091166201000017166101001790555b61289482612eac565b60003361334c816119db565b15156133a1576040805160e560020a62461bcd02815260206004820152602560248201526000805160206141ce833981519152604482015260da60020a641a5cdd195902606482015290519081900360840190fd5b836133ab816119db565b1515613400576040805160e560020a62461bcd02815260206004820152602560248201526000805160206141ce833981519152604482015260da60020a641a5cdd195902606482015290519081900360840190fd5b6111438585613998565b600033613416816119db565b151561346b576040805160e560020a62461bcd02815260206004820152602560248201526000805160206141ce833981519152604482015260da60020a641a5cdd195902606482015290519081900360840190fd5b84613475816119db565b15156134ca576040805160e560020a62461bcd02815260206004820152602560248201526000805160206141ce833981519152604482015260da60020a641a5cdd195902606482015290519081900360840190fd5b846134d4816119db565b1515613529576040805160e560020a62461bcd02815260206004820152602560248201526000805160206141ce833981519152604482015260da60020a641a5cdd195902606482015290519081900360840190fd5b6114308787876139b5565b600082613540816119db565b1515613595576040805160e560020a62461bcd02815260206004820152602560248201526000805160206141ce833981519152604482015260da60020a641a5cdd195902606482015290519081900360840190fd5b3361359f816119db565b15156135f4576040805160e560020a62461bcd02815260206004820152602560248201526000805160206141ce833981519152604482015260da60020a641a5cdd195902606482015290519081900360840190fd5b6111438585613a94565b603b5460ff1615613647576040805160e560020a62461bcd028152602060048201526010602482015260008051602061422e833981519152604482015290519081900360640190fd5b6128a78282613ae8565b8161365b816119db565b15156136b0576040805160e560020a62461bcd02815260206004820152602560248201526000805160206141ce833981519152604482015260da60020a641a5cdd195902606482015290519081900360840190fd5b6120a38383613b51565b603b5460ff1615613703576040805160e560020a62461bcd028152602060048201526010602482015260008051602061422e833981519152604482015290519081900360640190fd5b6128a78282613cd1565b6000818484111561379f5760405160e560020a62461bcd0281526004018080602001828103825283818151815260200191508051906020019080838360005b8381101561376457818101518382015260200161374c565b50505050905090810190601f1680156137915780820380516001836020036101000a031916815260200191505b509250505060405180910390fd5b505050900390565b600082820183811015612b76576040805160e560020a62461bcd02815260206004820152601b60248201527f536166654d6174683a206164646974696f6e206f766572666c6f770000000000604482015290519081900360640190fd5b600082613810816119db565b1515613865576040805160e560020a62461bcd02815260206004820152602560248201526000805160206141ce833981519152604482015260da60020a641a5cdd195902606482015290519081900360840190fd5b3361386f816119db565b15156138c4576040805160e560020a62461bcd02815260206004820152602560248201526000805160206141ce833981519152604482015260da60020a641a5cdd195902606482015290519081900360840190fd5b6111438585613d99565b6000336138da816119db565b151561392f576040805160e560020a62461bcd02815260206004820152602560248201526000805160206141ce833981519152604482015260da60020a641a5cdd195902606482015290519081900360840190fd5b83613939816119db565b151561398e576040805160e560020a62461bcd02815260206004820152602560248201526000805160206141ce833981519152604482015260da60020a641a5cdd195902606482015290519081900360840190fd5b6111438585613e4b565b60006139ac6139a5613e5f565b8484613e63565b50600192915050565b60006139c2848484612f8b565b613a8a846139ce613e5f565b613a8585606060405190810160405280602881526020017f45524332303a207472616e7366657220616d6f756e742065786365656473206181526020017f6c6c6f77616e6365000000000000000000000000000000000000000000000000815250600160008b600160a060020a0316600160a060020a031681526020019081526020016000206000613a5e613e5f565b600160a060020a03168152602081019190915260400160002054919063ffffffff61370d16565b613e63565b5060019392505050565b60006139ac613aa1613e5f565b84613a858560016000613ab2613e5f565b600160a060020a03908116825260208083019390935260409182016000908120918c16815292529020549063ffffffff6137a716565b81613af2816119db565b1515613b47576040805160e560020a62461bcd02815260206004820152602560248201526000805160206141ce833981519152604482015260da60020a641a5cdd195902606482015290519081900360840190fd5b6120a38383613fd0565b600160a060020a0382161515613bd7576040805160e560020a62461bcd02815260206004820152602160248201527f45524332303a206275726e2066726f6d20746865207a65726f2061646472657360448201527f7300000000000000000000000000000000000000000000000000000000000000606482015290519081900360840190fd5b60408051606081018252602281527f45524332303a206275726e20616d6f756e7420657863656564732062616c616e6020808301919091527f636500000000000000000000000000000000000000000000000000000000000082840152600160a060020a0385166000908152908190529190912054613c5d91839063ffffffff61370d16565b600160a060020a038316600090815260208190526040902055600254613c89908263ffffffff6140c516565b600255604080518281529051600091600160a060020a038516917fddf252ad1be2c89b69c2b068fc378daa952ba7f163c4a11628f55a4df523b3ef9181900360200190a35050565b33613cdb816119db565b1515613d30576040805160e560020a62461bcd02815260206004820152602560248201526000805160206141ce833981519152604482015260da60020a641a5cdd195902606482015290519081900360840190fd5b82613d3a816119db565b1515613d8f576040805160e560020a62461bcd02815260206004820152602560248201526000805160206141ce833981519152604482015260da60020a641a5cdd195902606482015290519081900360840190fd5b612b148484614107565b60006139ac613da6613e5f565b84613a8585606060405190810160405280602581526020017f45524332303a2064656372656173656420616c6c6f77616e63652062656c6f7781526020017f207a65726f00000000000000000000000000000000000000000000000000000081525060016000613e14613e5f565b600160a060020a03908116825260208083019390935260409182016000908120918d1681529252902054919063ffffffff61370d16565b60006139ac613e58613e5f565b8484612f8b565b3390565b600160a060020a0383161515613ee8576040805160e560020a62461bcd028152602060048201526024808201527f45524332303a20617070726f76652066726f6d20746865207a65726f2061646460448201527f7265737300000000000000000000000000000000000000000000000000000000606482015290519081900360840190fd5b600160a060020a0382161515613f6e576040805160e560020a62461bcd02815260206004820152602260248201527f45524332303a20617070726f766520746f20746865207a65726f20616464726560448201527f7373000000000000000000000000000000000000000000000000000000000000606482015290519081900360840190fd5b600160a060020a03808416600081815260016020908152604080832094871680845294825291829020859055815185815291517f8c5be1e5ebec7d5bd14f71427d1e84f3dd0314c0f7b2291e5b200ac8c7c3b9259281900390910190a3505050565b600160a060020a0382161515614030576040805160e560020a62461bcd02815260206004820152601f60248201527f45524332303a206d696e7420746f20746865207a65726f206164647265737300604482015290519081900360640190fd5b600254614043908263ffffffff6137a716565b600255600160a060020a03821660009081526020819052604090205461406f908263ffffffff6137a716565b600160a060020a0383166000818152602081815260408083209490945583518581529351929391927fddf252ad1be2c89b69c2b068fc378daa952ba7f163c4a11628f55a4df523b3ef9281900390910190a35050565b6000612b7683836040805190810160405280601e81526020017f536166654d6174683a207375627472616374696f6e206f766572666c6f77000081525061370d565b6141118282612d98565b6128a78261411d613e5f565b613a8584606060405190810160405280602481526020017f45524332303a206275726e20616d6f756e74206578636565647320616c6c6f7781526020017f616e6365000000000000000000000000000000000000000000000000000000008152506001600089600160a060020a0316600160a060020a031681526020019081526020016000206000613a5e613e5f56fe467265657a61626c653a206163636f756e742069732066726f7a656e0000000057686974656c6973743a206163636f756e74206973206e6f742077686974656c4f70657261746f7261626c653a2063616c6c657220646f6573206e6f74206861766520746865206f70657261746f7220726f6c650000000000000000000000005061757361626c653a2070617573656400000000000000000000000000000000a165627a7a72305820721b970b0a67071ef18964e9bfe9683f4db24bbc916230356df14edd145749650029",
  "source": "/**\n * @title EdgeTokenV1\n * @author Connor Howe <connor.howe@sygnum.com> \n * @dev Standard contract to display upgradability usability.  This is an example contract,\n*      that will not be used in production, to show how upgradability will be utilized.\n*/\npragma solidity 0.5.0;\n\nimport \"../EdgeToken.sol\";\n\ncontract EdgeTokenV1 is EdgeToken {\n    bool public newBool;\n    address public newAddress;\n    uint256 public newUint;\n    bool public initializedV1;\n\n    function initialize(address _operatorsAddr, bool _newBool, address _newAddress, uint _newUint) public {\n        super.initialize(_operatorsAddr);\n        initV1(_newBool, _newAddress, _newUint);\n    }\n\n    // changed back to public for tests\n    function initV1(bool _newBool, address _newAddress, uint256 _newUint) public {\n      require(!initializedV1, \"EdgeTokenV1: already initialized\");\n      newBool = _newBool;\n      newAddress = _newAddress;\n      newUint = _newUint;\n      initializedV1 = true;\n    }\n\n    function setNewAddress(address _newAddress) public {\n        newAddress = _newAddress;\n    }\n}",
  "sourcePath": "/Users/connor/Code/sygnum/blockchain-engineering/solidity-edge-contracts/solidity-edge-dchf-contracts/contracts/edge/upgradeExample/EdgeTokenV1.sol",
  "compiler": {
    "name": "solc",
    "version": "0.5.0+commit.1d4f565a.Emscripten.clang"
  },
  "schemaVersion": "3.0.23",
  "updatedAt": "2020-03-03T20:24:25.157Z",
  "devdoc": {
    "methods": {
      "allowance(address,address)": {
        "details": "See {IERC20-allowance}."
      },
      "balanceOf(address)": {
        "details": "See {IERC20-balanceOf}."
      },
      "batchBurnFor(address[],uint256[])": {
        "details": "Batch burn from an operator or admin address.",
        "params": {
          "_recipients": "Array of recipient addresses.",
          "_values": "Array of amount to burn."
        }
      },
      "batchConfiscate(address[],address[],uint256[])": {
        "details": "Batch confiscate to a macimum of 255 addresses. ",
        "params": {
          "_confiscatees": "array addresses who's funds are being confiscated",
          "_receivers": "array addresses who's receiving the funds",
          "_values": "array of values of funds being confiscated"
        }
      },
      "batchMint(address[],uint256[])": {
        "details": "Batch mint to a maximum of 255 addresses, for a custom amount for each address.",
        "params": {
          "_recipients": "Array of recipient addresses.",
          "_values": "Array of amount to mint."
        }
      },
      "batchToggleFreeze(address[],bool)": {
        "details": "Batch freeze/unfreeze multiple addresses, with _toggled being true/false.",
        "params": {
          "_addresses": "address array.",
          "_toggled": "freeze/unfreeze."
        }
      },
      "batchToggleWhitelist(address[],bool)": {
        "details": "Batch whitelisted/unwhitelist multiple addresses, with _toggled being true/false.",
        "params": {
          "_addresses": "address array.",
          "_toggled": "whitelist/unwhitelist."
        }
      },
      "burn(uint256)": {
        "details": "Burn.",
        "params": {
          "_amount": "Amount of tokens to burn."
        }
      },
      "burnFor(address,uint256)": {
        "details": "BurnFor.",
        "params": {
          "_account": "Account to burn tokens from.",
          "_amount": "Amount of tokens to burn."
        }
      },
      "burnFrom(address,uint256)": {
        "details": "burnFrom.",
        "params": {
          "_account": "Account to burn from.",
          "_amount": "Amount of tokens to burn."
        }
      },
      "confirmOperatorsContract()": {
        "details": "The function should be called from new operators contract by admin to insure that operatorsPending address      is the real contract address."
      },
      "confiscate(address,address,uint256)": {
        "details": "confiscate.",
        "params": {
          "_amount": "Amount of tokens to burn.",
          "_confiscatee": "Account to confiscate funds from.",
          "_receiver": "Account to transfer confiscated funds too."
        }
      },
      "decimals()": {
        "details": "Returns the number of decimals used to get its user representation. For example, if `decimals` equals `2`, a balance of `505` tokens should be displayed to a user as `5,05` (`505 / 10 ** 2`).     * Tokens usually opt for a value of 18, imitating the relationship between Ether and Wei.     * NOTE: This information is only used for _display_ purposes: it in no way affects any of the arithmetic of the contract, including {IERC20-balanceOf} and {IERC20-transfer}."
      },
      "getOperatorsContract()": {
        "return": "The address of the BaseOperators contract."
      },
      "getOperatorsPending()": {
        "return": "The pending address of the BaseOperators contract."
      },
      "initialize(address)": {
        "details": "Initialization instead of constructor, only called once.",
        "params": {
          "_baseOperators": "Address of baseOperators contract."
        }
      },
      "isAdmin(address)": {
        "return": "If '_account' has admin privileges."
      },
      "isAdminOrSystem(address)": {
        "return": "If '_account' has admin or system privileges."
      },
      "isFrozen(address)": {
        "details": "Getter to determine if address is frozen.",
        "params": {
          "_account": "address to determine if frozen or not."
        },
        "return": "bool is frozen"
      },
      "isNotPaused()": {
        "return": "If child contract is already paused or not."
      },
      "isOperator(address)": {
        "return": "If '_account' has operator privileges."
      },
      "isOperatorOrSystem(address)": {
        "return": "If '_account' has operator or system privileges."
      },
      "isSystem(address)": {
        "return": "If '_account' has system privileges."
      },
      "isWhitelisted(address)": {
        "details": "Getter to determine if address is whitelisted.",
        "params": {
          "_account": "address to determine if whitelisted or not."
        },
        "return": "bool is whitelisted"
      },
      "mint(address,uint256)": {
        "details": "Mint.",
        "params": {
          "_account": "Address to mint tokens to.",
          "_amount": "Amount to mint."
        }
      },
      "name()": {
        "details": "Returns the name of the token."
      },
      "pause()": {
        "details": "Called by operator to pause child contract. The contract     must not already be paused."
      },
      "setOperatorsContract(address)": {
        "details": "Set the new the address of Operators contract, should be confirmed from operators contract by calling confirmFor(addr)      where addr is the address of current contract instance. This is done to prevent the case when the new contract address is      broken and control of the contract can be lost in such case",
        "params": {
          "_baseOperators": "BaseOperators contract address."
        }
      },
      "symbol()": {
        "details": "Returns the symbol of the token, usually a shorter version of the name."
      },
      "toggleFreeze(address,bool)": {
        "details": "Toggle freeze/unfreeze on _account address, with _toggled being true/false.",
        "params": {
          "_account": "address to toggle.",
          "_toggled": "freeze/unfreeze."
        }
      },
      "toggleWhitelist(address,bool)": {
        "details": "Toggle whitelisted/unwhitelisted on _account address, with _toggled being true/false.",
        "params": {
          "_account": "address to toggle.",
          "_toggled": "whitelist/unwhitelist."
        }
      },
      "totalSupply()": {
        "details": "See {IERC20-totalSupply}."
      },
      "unpause()": {
        "details": "Called by operator to pause child contract. The contract      must already be paused."
      }
    }
  },
  "userdoc": {
    "methods": {}
  }
}