{
  "contractName": "EdgeToken",
  "abi": [
    {
      "constant": true,
      "inputs": [],
      "name": "name",
      "outputs": [
        {
          "name": "",
          "type": "string"
        }
      ],
      "payable": false,
      "stateMutability": "view",
      "type": "function"
    },
    {
      "constant": false,
      "inputs": [
        {
          "name": "spender",
          "type": "address"
        },
        {
          "name": "value",
          "type": "uint256"
        }
      ],
      "name": "approve",
      "outputs": [
        {
          "name": "",
          "type": "bool"
        }
      ],
      "payable": false,
      "stateMutability": "nonpayable",
      "type": "function"
    },
    {
      "constant": false,
      "inputs": [
        {
          "name": "_baseOperators",
          "type": "address"
        }
      ],
      "name": "setOperatorsContract",
      "outputs": [],
      "payable": false,
      "stateMutability": "nonpayable",
      "type": "function"
    },
    {
      "constant": true,
      "inputs": [],
      "name": "totalSupply",
      "outputs": [
        {
          "name": "",
          "type": "uint256"
        }
      ],
      "payable": false,
      "stateMutability": "view",
      "type": "function"
    },
    {
      "constant": true,
      "inputs": [],
      "name": "getOperatorsPending",
      "outputs": [
        {
          "name": "",
          "type": "address"
        }
      ],
      "payable": false,
      "stateMutability": "view",
      "type": "function"
    },
    {
      "constant": false,
      "inputs": [
        {
          "name": "from",
          "type": "address"
        },
        {
          "name": "to",
          "type": "address"
        },
        {
          "name": "value",
          "type": "uint256"
        }
      ],
      "name": "transferFrom",
      "outputs": [
        {
          "name": "",
          "type": "bool"
        }
      ],
      "payable": false,
      "stateMutability": "nonpayable",
      "type": "function"
    },
    {
      "constant": true,
      "inputs": [
        {
          "name": "_account",
          "type": "address"
        }
      ],
      "name": "isAdmin",
      "outputs": [
        {
          "name": "",
          "type": "bool"
        }
      ],
      "payable": false,
      "stateMutability": "view",
      "type": "function"
    },
    {
      "constant": true,
      "inputs": [
        {
          "name": "_account",
          "type": "address"
        }
      ],
      "name": "isOperatorOrSystem",
      "outputs": [
        {
          "name": "",
          "type": "bool"
        }
      ],
      "payable": false,
      "stateMutability": "view",
      "type": "function"
    },
    {
      "constant": true,
      "inputs": [],
      "name": "decimals",
      "outputs": [
        {
          "name": "",
          "type": "uint8"
        }
      ],
      "payable": false,
      "stateMutability": "view",
      "type": "function"
    },
    {
      "constant": false,
      "inputs": [
        {
          "name": "_account",
          "type": "address"
        },
        {
          "name": "_toggled",
          "type": "bool"
        }
      ],
      "name": "toggleWhitelist",
      "outputs": [],
      "payable": false,
      "stateMutability": "nonpayable",
      "type": "function"
    },
    {
      "constant": true,
      "inputs": [
        {
          "name": "_account",
          "type": "address"
        }
      ],
      "name": "isSystem",
      "outputs": [
        {
          "name": "",
          "type": "bool"
        }
      ],
      "payable": false,
      "stateMutability": "view",
      "type": "function"
    },
    {
      "constant": true,
      "inputs": [],
      "name": "isInitialized",
      "outputs": [
        {
          "name": "",
          "type": "bool"
        }
      ],
      "payable": false,
      "stateMutability": "view",
      "type": "function"
    },
    {
      "constant": false,
      "inputs": [
        {
          "name": "spender",
          "type": "address"
        },
        {
          "name": "addedValue",
          "type": "uint256"
        }
      ],
      "name": "increaseAllowance",
      "outputs": [
        {
          "name": "",
          "type": "bool"
        }
      ],
      "payable": false,
      "stateMutability": "nonpayable",
      "type": "function"
    },
    {
      "constant": true,
      "inputs": [
        {
          "name": "_account",
          "type": "address"
        }
      ],
      "name": "isWhitelisted",
      "outputs": [
        {
          "name": "",
          "type": "bool"
        }
      ],
      "payable": false,
      "stateMutability": "view",
      "type": "function"
    },
    {
      "constant": false,
      "inputs": [],
      "name": "unpause",
      "outputs": [],
      "payable": false,
      "stateMutability": "nonpayable",
      "type": "function"
    },
    {
      "constant": true,
      "inputs": [],
      "name": "getOperatorsContract",
      "outputs": [
        {
          "name": "",
          "type": "address"
        }
      ],
      "payable": false,
      "stateMutability": "view",
      "type": "function"
    },
    {
      "constant": true,
      "inputs": [
        {
          "name": "_account",
          "type": "address"
        }
      ],
      "name": "isOperator",
      "outputs": [
        {
          "name": "",
          "type": "bool"
        }
      ],
      "payable": false,
      "stateMutability": "view",
      "type": "function"
    },
    {
      "constant": true,
      "inputs": [
        {
          "name": "account",
          "type": "address"
        }
      ],
      "name": "balanceOf",
      "outputs": [
        {
          "name": "",
          "type": "uint256"
        }
      ],
      "payable": false,
      "stateMutability": "view",
      "type": "function"
    },
    {
      "constant": true,
      "inputs": [],
      "name": "isNotPaused",
      "outputs": [
        {
          "name": "",
          "type": "bool"
        }
      ],
      "payable": false,
      "stateMutability": "view",
      "type": "function"
    },
    {
      "constant": false,
      "inputs": [],
      "name": "pause",
      "outputs": [],
      "payable": false,
      "stateMutability": "nonpayable",
      "type": "function"
    },
    {
      "constant": false,
      "inputs": [
        {
          "name": "_addresses",
          "type": "address[]"
        },
        {
          "name": "_toggled",
          "type": "bool"
        }
      ],
      "name": "batchToggleFreeze",
      "outputs": [],
      "payable": false,
      "stateMutability": "nonpayable",
      "type": "function"
    },
    {
      "constant": false,
      "inputs": [],
      "name": "confirmOperatorsContract",
      "outputs": [],
      "payable": false,
      "stateMutability": "nonpayable",
      "type": "function"
    },
    {
      "constant": false,
      "inputs": [
        {
          "name": "_account",
          "type": "address"
        },
        {
          "name": "_toggled",
          "type": "bool"
        }
      ],
      "name": "toggleFreeze",
      "outputs": [],
      "payable": false,
      "stateMutability": "nonpayable",
      "type": "function"
    },
    {
      "constant": true,
      "inputs": [],
      "name": "symbol",
      "outputs": [
        {
          "name": "",
          "type": "string"
        }
      ],
      "payable": false,
      "stateMutability": "view",
      "type": "function"
    },
    {
      "constant": false,
      "inputs": [
        {
          "name": "spender",
          "type": "address"
        },
        {
          "name": "subtractedValue",
          "type": "uint256"
        }
      ],
      "name": "decreaseAllowance",
      "outputs": [
        {
          "name": "",
          "type": "bool"
        }
      ],
      "payable": false,
      "stateMutability": "nonpayable",
      "type": "function"
    },
    {
      "constant": false,
      "inputs": [
        {
          "name": "to",
          "type": "address"
        },
        {
          "name": "value",
          "type": "uint256"
        }
      ],
      "name": "transfer",
      "outputs": [
        {
          "name": "",
          "type": "bool"
        }
      ],
      "payable": false,
      "stateMutability": "nonpayable",
      "type": "function"
    },
    {
      "constant": true,
      "inputs": [
        {
          "name": "",
          "type": "address"
        }
      ],
      "name": "frozen",
      "outputs": [
        {
          "name": "",
          "type": "bool"
        }
      ],
      "payable": false,
      "stateMutability": "view",
      "type": "function"
    },
    {
      "constant": true,
      "inputs": [
        {
          "name": "_account",
          "type": "address"
        }
      ],
      "name": "isAdminOrSystem",
      "outputs": [
        {
          "name": "",
          "type": "bool"
        }
      ],
      "payable": false,
      "stateMutability": "view",
      "type": "function"
    },
    {
      "constant": false,
      "inputs": [
        {
          "name": "_addresses",
          "type": "address[]"
        },
        {
          "name": "_toggled",
          "type": "bool"
        }
      ],
      "name": "batchToggleWhitelist",
      "outputs": [],
      "payable": false,
      "stateMutability": "nonpayable",
      "type": "function"
    },
    {
      "constant": true,
      "inputs": [
        {
          "name": "",
          "type": "address"
        }
      ],
      "name": "whitelisted",
      "outputs": [
        {
          "name": "",
          "type": "bool"
        }
      ],
      "payable": false,
      "stateMutability": "view",
      "type": "function"
    },
    {
      "constant": true,
      "inputs": [
        {
          "name": "owner",
          "type": "address"
        },
        {
          "name": "spender",
          "type": "address"
        }
      ],
      "name": "allowance",
      "outputs": [
        {
          "name": "",
          "type": "uint256"
        }
      ],
      "payable": false,
      "stateMutability": "view",
      "type": "function"
    },
    {
      "constant": true,
      "inputs": [
        {
          "name": "_account",
          "type": "address"
        }
      ],
      "name": "isFrozen",
      "outputs": [
        {
          "name": "",
          "type": "bool"
        }
      ],
      "payable": false,
      "stateMutability": "view",
      "type": "function"
    },
    {
      "anonymous": false,
      "inputs": [
        {
          "indexed": true,
          "name": "minter",
          "type": "address"
        },
        {
          "indexed": true,
          "name": "account",
          "type": "address"
        },
        {
          "indexed": false,
          "name": "value",
          "type": "uint256"
        }
      ],
      "name": "Minted",
      "type": "event"
    },
    {
      "anonymous": false,
      "inputs": [
        {
          "indexed": true,
          "name": "burner",
          "type": "address"
        },
        {
          "indexed": false,
          "name": "value",
          "type": "uint256"
        }
      ],
      "name": "Burned",
      "type": "event"
    },
    {
      "anonymous": false,
      "inputs": [
        {
          "indexed": true,
          "name": "burner",
          "type": "address"
        },
        {
          "indexed": true,
          "name": "account",
          "type": "address"
        },
        {
          "indexed": false,
          "name": "value",
          "type": "uint256"
        }
      ],
      "name": "BurnedFor",
      "type": "event"
    },
    {
      "anonymous": false,
      "inputs": [
        {
          "indexed": true,
          "name": "account",
          "type": "address"
        },
        {
          "indexed": false,
          "name": "frozen",
          "type": "bool"
        }
      ],
      "name": "FreezeToggled",
      "type": "event"
    },
    {
      "anonymous": false,
      "inputs": [
        {
          "indexed": true,
          "name": "account",
          "type": "address"
        }
      ],
      "name": "Paused",
      "type": "event"
    },
    {
      "anonymous": false,
      "inputs": [
        {
          "indexed": true,
          "name": "account",
          "type": "address"
        }
      ],
      "name": "Unpaused",
      "type": "event"
    },
    {
      "anonymous": false,
      "inputs": [
        {
          "indexed": true,
          "name": "account",
          "type": "address"
        },
        {
          "indexed": false,
          "name": "whitelisted",
          "type": "bool"
        }
      ],
      "name": "WhitelistToggled",
      "type": "event"
    },
    {
      "anonymous": false,
      "inputs": [
        {
          "indexed": true,
          "name": "caller",
          "type": "address"
        },
        {
          "indexed": true,
          "name": "operatorsAddress",
          "type": "address"
        }
      ],
      "name": "OperatorsContractChanged",
      "type": "event"
    },
    {
      "anonymous": false,
      "inputs": [
        {
          "indexed": true,
          "name": "caller",
          "type": "address"
        },
        {
          "indexed": true,
          "name": "operatorsAddress",
          "type": "address"
        }
      ],
      "name": "OperatorsContractPending",
      "type": "event"
    },
    {
      "anonymous": false,
      "inputs": [
        {
          "indexed": true,
          "name": "from",
          "type": "address"
        },
        {
          "indexed": true,
          "name": "to",
          "type": "address"
        },
        {
          "indexed": false,
          "name": "value",
          "type": "uint256"
        }
      ],
      "name": "Transfer",
      "type": "event"
    },
    {
      "anonymous": false,
      "inputs": [
        {
          "indexed": true,
          "name": "owner",
          "type": "address"
        },
        {
          "indexed": true,
          "name": "spender",
          "type": "address"
        },
        {
          "indexed": false,
          "name": "value",
          "type": "uint256"
        }
      ],
      "name": "Approval",
      "type": "event"
    },
    {
      "constant": false,
      "inputs": [
        {
          "name": "_baseOperators",
          "type": "address"
        }
      ],
      "name": "initialize",
      "outputs": [],
      "payable": false,
      "stateMutability": "nonpayable",
      "type": "function"
    },
    {
      "constant": false,
      "inputs": [
        {
          "name": "_amount",
          "type": "uint256"
        }
      ],
      "name": "burn",
      "outputs": [],
      "payable": false,
      "stateMutability": "nonpayable",
      "type": "function"
    },
    {
      "constant": false,
      "inputs": [
        {
          "name": "_account",
          "type": "address"
        },
        {
          "name": "_amount",
          "type": "uint256"
        }
      ],
      "name": "burnFor",
      "outputs": [],
      "payable": false,
      "stateMutability": "nonpayable",
      "type": "function"
    },
    {
      "constant": false,
      "inputs": [
        {
          "name": "_account",
          "type": "address"
        },
        {
          "name": "_amount",
          "type": "uint256"
        }
      ],
      "name": "burnFrom",
      "outputs": [],
      "payable": false,
      "stateMutability": "nonpayable",
      "type": "function"
    },
    {
      "constant": false,
      "inputs": [
        {
          "name": "_account",
          "type": "address"
        },
        {
          "name": "_amount",
          "type": "uint256"
        }
      ],
      "name": "mint",
      "outputs": [],
      "payable": false,
      "stateMutability": "nonpayable",
      "type": "function"
    },
    {
      "constant": false,
      "inputs": [
        {
          "name": "_confiscatee",
          "type": "address"
        },
        {
          "name": "_receiver",
          "type": "address"
        },
        {
          "name": "_amount",
          "type": "uint256"
        }
      ],
      "name": "confiscate",
      "outputs": [],
      "payable": false,
      "stateMutability": "nonpayable",
      "type": "function"
    },
    {
      "constant": false,
      "inputs": [
        {
          "name": "_recipients",
          "type": "address[]"
        },
        {
          "name": "_values",
          "type": "uint256[]"
        }
      ],
      "name": "batchBurnFor",
      "outputs": [
        {
          "name": "",
          "type": "bool"
        }
      ],
      "payable": false,
      "stateMutability": "nonpayable",
      "type": "function"
    },
    {
      "constant": false,
      "inputs": [
        {
          "name": "_recipients",
          "type": "address[]"
        },
        {
          "name": "_values",
          "type": "uint256[]"
        }
      ],
      "name": "batchMint",
      "outputs": [
        {
          "name": "",
          "type": "bool"
        }
      ],
      "payable": false,
      "stateMutability": "nonpayable",
      "type": "function"
    },
    {
      "constant": false,
      "inputs": [
        {
          "name": "_confiscatees",
          "type": "address[]"
        },
        {
          "name": "_receivers",
          "type": "address[]"
        },
        {
          "name": "_values",
          "type": "uint256[]"
        }
      ],
      "name": "batchConfiscate",
      "outputs": [
        {
          "name": "",
          "type": "bool"
        }
      ],
      "payable": false,
      "stateMutability": "nonpayable",
      "type": "function"
    }
  ],
  "bytecode": "0x600b60808181527f4469676974616c2043484600000000000000000000000000000000000000000060a0908152610100604052600460c09081527f444348460000000000000000000000000000000000000000000000000000000060e0529192600291620000719160039190620000ac565b50815162000087906004906020850190620000ac565b506005805460ff90921660ff19928316179055603b8054909116905550620001519050565b828054600181600116156101000203166002900490600052602060002090601f016020900481019282601f10620000ef57805160ff19168380011785556200011f565b828001600101855582156200011f579182015b828111156200011f57825182559160200191906001019062000102565b506200012d92915062000131565b5090565b6200014e91905b808211156200012d576000815560010162000138565b90565b613ff880620001616000396000f3fe6080604052600436106101f85763ffffffff7c010000000000000000000000000000000000000000000000000000000060003504166306fdde0381146101fd578063095ea7b3146102875780631745145e146102d457806318160ddd146103095780631c6bbabc146103305780631dd319cb1461036157806323b872dd1461039a57806324d7806c146103dd57806329518514146104105780633117a76114610443578063313ce567146105fb578063349123d11461062657806334cdcf2614610661578063392e53cd1461069457806339509351146106a95780633af32abf146106e25780633f4ba83a1461071557806340c10f191461072a57806342966c68146107635780635ead86c61461078d57806368573107146107a25780636d70f7ae146108d657806370a082311461090957806379cc67901461093c5780637acf4892146109755780638456cb591461098a57806384a9d4d71461099f5780638535a56b14610a515780638feaade414610a6657806395d89b4114610aa1578063960313bb14610ab6578063a457c2d714610af9578063a9059cbb14610b32578063b962e03414610b6b578063c4d66de814610c9f578063d051665014610cd2578063d0ea5f4d14610d05578063d178224314610d38578063d936547e14610dea578063dd62ed3e14610e1d578063e583983614610e58575b600080fd5b34801561020957600080fd5b50610212610e8b565b6040805160208082528351818301528351919283929083019185019080838360005b8381101561024c578181015183820152602001610234565b50505050905090810190601f1680156102795780820380516001836020036101000a031916815260200191505b509250505060405180910390f35b34801561029357600080fd5b506102c0600480360360408110156102aa57600080fd5b50600160a060020a038135169060200135610f21565b604080519115158252519081900360200190f35b3480156102e057600080fd5b50610307600480360360208110156102f757600080fd5b5035600160a060020a0316610fee565b005b34801561031557600080fd5b5061031e611140565b60408051918252519081900360200190f35b34801561033c57600080fd5b50610345611146565b60408051600160a060020a039092168252519081900360200190f35b34801561036d57600080fd5b506103076004803603604081101561038457600080fd5b50600160a060020a038135169060200135611155565b3480156103a657600080fd5b506102c0600480360360608110156103bd57600080fd5b50600160a060020a038135811691602081013590911690604001356111a3565b3480156103e957600080fd5b506102c06004803603602081101561040057600080fd5b5035600160a060020a03166112d4565b34801561041c57600080fd5b506102c06004803603602081101561043357600080fd5b5035600160a060020a0316611370565b34801561044f57600080fd5b506102c06004803603606081101561046657600080fd5b81019060208101813564010000000081111561048157600080fd5b82018360208201111561049357600080fd5b803590602001918460208302840111640100000000831117156104b557600080fd5b919080806020026020016040519081016040528093929190818152602001838360200280828437600092019190915250929594936020810193503591505064010000000081111561050557600080fd5b82018360208201111561051757600080fd5b8035906020019184602083028401116401000000008311171561053957600080fd5b919080806020026020016040519081016040528093929190818152602001838360200280828437600092019190915250929594936020810193503591505064010000000081111561058957600080fd5b82018360208201111561059b57600080fd5b803590602001918460208302840111640100000000831117156105bd57600080fd5b919080806020026020016040519081016040528093929190818152602001838360200280828437600092019190915250929550611478945050505050565b34801561060757600080fd5b506106106115f5565b6040805160ff9092168252519081900360200190f35b34801561063257600080fd5b506103076004803603604081101561064957600080fd5b50600160a060020a03813516906020013515156115fe565b34801561066d57600080fd5b506102c06004803603602081101561068457600080fd5b5035600160a060020a0316611738565b3480156106a057600080fd5b506102c06117a2565b3480156106b557600080fd5b506102c0600480360360408110156106cc57600080fd5b50600160a060020a0381351690602001356117b0565b3480156106ee57600080fd5b506102c06004803603602081101561070557600080fd5b5035600160a060020a0316611874565b34801561072157600080fd5b50610307611892565b34801561073657600080fd5b506103076004803603604081101561074d57600080fd5b50600160a060020a038135169060200135611986565b34801561076f57600080fd5b506103076004803603602081101561078657600080fd5b5035611a66565b34801561079957600080fd5b50610345611b2d565b3480156107ae57600080fd5b506102c0600480360360408110156107c557600080fd5b8101906020810181356401000000008111156107e057600080fd5b8201836020820111156107f257600080fd5b8035906020019184602083028401116401000000008311171561081457600080fd5b919080806020026020016040519081016040528093929190818152602001838360200280828437600092019190915250929594936020810193503591505064010000000081111561086457600080fd5b82018360208201111561087657600080fd5b8035906020019184602083028401116401000000008311171561089857600080fd5b919080806020026020016040519081016040528093929190818152602001838360200280828437600092019190915250929550611b3c945050505050565b3480156108e257600080fd5b506102c0600480360360208110156108f957600080fd5b5035600160a060020a0316611c91565b34801561091557600080fd5b5061031e6004803603602081101561092c57600080fd5b5035600160a060020a0316611cfb565b34801561094857600080fd5b506103076004803603604081101561095f57600080fd5b50600160a060020a038135169060200135611d16565b34801561098157600080fd5b506102c0611d63565b34801561099657600080fd5b50610307611d6d565b3480156109ab57600080fd5b50610307600480360360408110156109c257600080fd5b8101906020810181356401000000008111156109dd57600080fd5b8201836020820111156109ef57600080fd5b80359060200191846020830284011164010000000083111715610a1157600080fd5b9190808060200260200160405190810160405280939291908181526020018383602002808284376000920191909152509295505050503515159050611e51565b348015610a5d57600080fd5b50610307611f0c565b348015610a7257600080fd5b5061030760048036036040811015610a8957600080fd5b50600160a060020a0381351690602001351515612033565b348015610aad57600080fd5b5061021261215b565b348015610ac257600080fd5b5061030760048036036060811015610ad957600080fd5b50600160a060020a038135811691602081013590911690604001356121bc565b348015610b0557600080fd5b506102c060048036036040811015610b1c57600080fd5b50600160a060020a038135169060200135612336565b348015610b3e57600080fd5b506102c060048036036040811015610b5557600080fd5b50600160a060020a0381351690602001356123fa565b348015610b7757600080fd5b506102c060048036036040811015610b8e57600080fd5b810190602081018135640100000000811115610ba957600080fd5b820183602082011115610bbb57600080fd5b80359060200191846020830284011164010000000083111715610bdd57600080fd5b9190808060200260200160405190810160405280939291908181526020018383602002808284376000920191909152509295949360208101935035915050640100000000811115610c2d57600080fd5b820183602082011115610c3f57600080fd5b80359060200191846020830284011164010000000083111715610c6157600080fd5b9190808060200260200160405190810160405280939291908181526020018383602002808284376000920191909152509295506124be945050505050565b348015610cab57600080fd5b5061030760048036036020811015610cc257600080fd5b5035600160a060020a031661260d565b348015610cde57600080fd5b506102c060048036036020811015610cf557600080fd5b5035600160a060020a0316612706565b348015610d1157600080fd5b506102c060048036036020811015610d2857600080fd5b5035600160a060020a031661271b565b348015610d4457600080fd5b5061030760048036036040811015610d5b57600080fd5b810190602081018135640100000000811115610d7657600080fd5b820183602082011115610d8857600080fd5b80359060200191846020830284011164010000000083111715610daa57600080fd5b9190808060200260200160405190810160405280939291908181526020018383602002808284376000920191909152509295505050503515159050612785565b348015610df657600080fd5b506102c060048036036020811015610e0d57600080fd5b5035600160a060020a031661283b565b348015610e2957600080fd5b5061031e60048036036040811015610e4057600080fd5b50600160a060020a0381358116916020013516612850565b348015610e6457600080fd5b506102c060048036036020811015610e7b57600080fd5b5035600160a060020a031661287b565b60038054604080516020601f6002600019610100600188161502019095169490940493840181900481028201810190925282815260609390929091830182828015610f175780601f10610eec57610100808354040283529160200191610f17565b820191906000526020600020905b815481529060010190602001808311610efa57829003601f168201915b5050505050905090565b336000818152603c602052604081205490919060ff1615610f7a576040805160e560020a62461bcd02815260206004820152601c6024820152600080516020613f2d833981519152604482015290519081900360640190fd5b600160a060020a0384166000908152603c6020526040902054849060ff1615610fdb576040805160e560020a62461bcd02815260206004820152601c6024820152600080516020613f2d833981519152604482015290519081900360640190fd5b610fe58585612899565b95945050505050565b610ff7336112d4565b1515611061576040805160e560020a62461bcd0281526020600482015260316024820152600080516020613f6d83398151915260448201527f7665207468652061646d696e20726f6c65000000000000000000000000000000606482015290519081900360840190fd5b600160a060020a03811615156110e7576040805160e560020a62461bcd02815260206004820152603f60248201527f4f70657261746f7261626c653a2061646472657373206f66206e6577206f706560448201527f7261746f727320636f6e74726163742063616e206e6f74206265207a65726f00606482015290519081900360840190fd5b6039805473ffffffffffffffffffffffffffffffffffffffff1916600160a060020a03831690811790915560405133907f01e6311290e7fb795a47761d6ca6a39b9c898bbf2e8b0e40211aa9f2f6c0202990600090a350565b60025490565b603954600160a060020a031690565b61115f82826128f6565b604080518281529051600160a060020a0384169133917f27d99300c6c6789f01bf643b2832d5f98653c4c2166dfce0a8ed822b049f30739181900360200190a35050565b336000818152603c602052604081205490919060ff16156111fc576040805160e560020a62461bcd02815260206004820152601c6024820152600080516020613f2d833981519152604482015290519081900360640190fd5b600160a060020a0385166000908152603c6020526040902054859060ff161561125d576040805160e560020a62461bcd02815260206004820152601c6024820152600080516020613f2d833981519152604482015290519081900360640190fd5b600160a060020a0385166000908152603c6020526040902054859060ff16156112be576040805160e560020a62461bcd02815260206004820152601c6024820152600080516020613f2d833981519152604482015290519081900360640190fd5b6112c9878787612961565b979650505050505050565b603854604080517f24d7806c000000000000000000000000000000000000000000000000000000008152600160a060020a038481166004830152915160009392909216916324d7806c91602480820192602092909190829003018186803b15801561133e57600080fd5b505afa158015611352573d6000803e3d6000fd5b505050506040513d602081101561136857600080fd5b505192915050565b603854604080517f6d70f7ae000000000000000000000000000000000000000000000000000000008152600160a060020a03848116600483015291516000939290921691636d70f7ae91602480820192602092909190829003018186803b1580156113da57600080fd5b505afa1580156113ee573d6000803e3d6000fd5b505050506040513d602081101561140457600080fd5b5051806114725750603854604080517f34cdcf26000000000000000000000000000000000000000000000000000000008152600160a060020a038581166004830152915191909216916334cdcf26916024808301926020929190829003018186803b15801561133e57600080fd5b92915050565b60008151845114801561148c575081518351145b1515611508576040805160e560020a62461bcd02815260206004820152602e60248201527f45646765546f6b656e3a2076616c75657320616e6420726563697069656e747360448201527f20617265206e6f7420657175616c000000000000000000000000000000000000606482015290519081900360840190fd5b83516101001015611589576040805160e560020a62461bcd02815260206004820152603260248201527f45646765546f6b656e3a20626174636820636f756e742069732067726561746560448201527f72207468616e2042415443485f4c494d49540000000000000000000000000000606482015290519081900360840190fd5b60005b84518110156115ed576115e585828151811015156115a657fe5b9060200190602002015185838151811015156115be57fe5b9060200190602002015185848151811015156115d657fe5b906020019060200201516121bc565b60010161158c565b509392505050565b60055460ff1690565b81600160a060020a038116151561165f576040805160e560020a62461bcd02815260206004820152601860248201527f467265657a61626c653a20456d70747920616464726573730000000000000000604482015290519081900360640190fd5b61166833611370565b15156116d2576040805160e560020a62461bcd02815260206004820152603f6024820152600080516020613f6d83398151915260448201527f766520746865206f70657261746f7220726f6c65206e6f722073797374656d00606482015290519081900360840190fd5b600160a060020a0383166000818152603a6020908152604091829020805460ff19168615151790819055825160ff9091161515815291517fdb17f7dcc6b9d3c099107ae3eea3dcc0ce959cda4b7b164cac7f8f9c841397199281900390910190a2505050565b603854604080517f34cdcf26000000000000000000000000000000000000000000000000000000008152600160a060020a038481166004830152915160009392909216916334cdcf2691602480820192602092909190829003018186803b15801561133e57600080fd5b600554610100900460ff1690565b336000818152603c602052604081205490919060ff1615611809576040805160e560020a62461bcd02815260206004820152601c6024820152600080516020613f2d833981519152604482015290519081900360640190fd5b600160a060020a0384166000908152603c6020526040902054849060ff161561186a576040805160e560020a62461bcd02815260206004820152601c6024820152600080516020613f2d833981519152604482015290519081900360640190fd5b610fe585856129c0565b600160a060020a03166000908152603a602052604090205460ff1690565b61189b33611c91565b15156118f3576040805160e560020a62461bcd0281526020600482015260346024820152600080516020613f6d8339815191526044820152600080516020613f8d833981519152606482015290519081900360840190fd5b603b5460ff16151561194f576040805160e560020a62461bcd02815260206004820152601460248201527f5061757361626c653a206e6f7420706175736564000000000000000000000000604482015290519081900360640190fd5b603b805460ff1916905560405133907f5db9ee0a495bf2e6ff9c91a7834c1ba4fdd244a5e8aa4e537bd38aeae4b073aa90600090a2565b61198f33611738565b15611a185761199d8261287b565b15611a18576040805160e560020a62461bcd02815260206004820152603460248201527f45646765546f6b656e3a204163636f756e74206d7573742062652066726f7a6560448201527f6e2069662073797374656d2063616c6c696e672e000000000000000000000000606482015290519081900360840190fd5b611a228282612a16565b604080518281529051600160a060020a0384169133917f9d228d69b5fdb8d273a2336f8fb8612d039631024ea9bf09c424a9503aa078f09181900360200190a35050565b611a6f3361287b565b15611aea576040805160e560020a62461bcd02815260206004820152602560248201527f45646765546f6b656e3a204163636f756e74206d757374206e6f74206265206660448201527f726f7a656e000000000000000000000000000000000000000000000000000000606482015290519081900360840190fd5b611af43382612b11565b60408051828152905133917f696de425f79f4a40bc6d2122ca50507f0efbeabbff86a84871b7196ab8ea8df7919081900360200190a250565b603854600160a060020a031690565b8051825160009114611bbe576040805160e560020a62461bcd02815260206004820152602f60248201527f45646765546f6b656e3a2076616c75657320616e6420726563697069656e747360448201527f20617265206e6f7420657175616c2e0000000000000000000000000000000000606482015290519081900360840190fd5b82516101001015611c3e576040805160e560020a62461bcd028152602060048201526024808201527f45646765546f6b656e3a2067726561746572207468616e2042415443485f4c4960448201527f4d49542e00000000000000000000000000000000000000000000000000000000606482015290519081900360840190fd5b60005b8351811015611c8a57611c828482815181101515611c5b57fe5b906020019060200201518483815181101515611c7357fe5b90602001906020020151611986565b600101611c41565b5092915050565b603854604080517f6d70f7ae000000000000000000000000000000000000000000000000000000008152600160a060020a03848116600483015291516000939290921691636d70f7ae91602480820192602092909190829003018186803b15801561133e57600080fd5b600160a060020a031660009081526020819052604090205490565b611d208282612b64565b604080518281529051600160a060020a038416917f696de425f79f4a40bc6d2122ca50507f0efbeabbff86a84871b7196ab8ea8df7919081900360200190a25050565b603b5460ff161590565b611d7633611c91565b1515611dce576040805160e560020a62461bcd0281526020600482015260346024820152600080516020613f6d8339815191526044820152600080516020613f8d833981519152606482015290519081900360840190fd5b603b5460ff1615611e17576040805160e560020a62461bcd0281526020600482015260106024820152600080516020613fad833981519152604482015290519081900360640190fd5b603b805460ff1916600117905560405133907f62e78cea01bee320cd4e420270b5ea74000d11b0c9f74754ebdbfc544b05a25890600090a2565b81516101001015611ed2576040805160e560020a62461bcd02815260206004820152602a60248201527f467265657a61626c653a20626174636820636f756e742069732067726561746560448201527f72207468616e2032353600000000000000000000000000000000000000000000606482015290519081900360840190fd5b60005b8251811015611f0757611eff8382815181101515611eef57fe5b9060200190602002015183612033565b600101611ed5565b505050565b603954600160a060020a03161515611f94576040805160e560020a62461bcd02815260206004820152603f60248201527f4f70657261746f7261626c653a2061646472657373206f66206e6577206f706560448201527f7261746f727320636f6e74726163742063616e206e6f74206265207a65726f00606482015290519081900360840190fd5b603954600160a060020a0316331461201c576040805160e560020a62461bcd02815260206004820152603a60248201527f4f70657261746f7261626c653a2073686f756c642062652063616c6c6564206660448201527f726f6d206e6577206f70657261746f727320636f6e7472616374000000000000606482015290519081900360840190fd5b60395461203190600160a060020a0316612c2b565b565b81600160a060020a0381161515612094576040805160e560020a62461bcd02815260206004820152601860248201527f467265657a61626c653a20456d70747920616464726573730000000000000000604482015290519081900360640190fd5b61209d33611c91565b15156120f5576040805160e560020a62461bcd0281526020600482015260346024820152600080516020613f6d8339815191526044820152600080516020613f8d833981519152606482015290519081900360840190fd5b600160a060020a0383166000818152603c6020908152604091829020805460ff19168615151790819055825160ff9091161515815291517f3c143a3c8cc9eafd41748a32abe319b06bd5b995c988fa06db8d1ef4e5841edf9281900390910190a2505050565b60048054604080516020601f6002600019610100600188161502019095169490940493840181900481028201810190925282815260609390929091830182828015610f175780601f10610eec57610100808354040283529160200191610f17565b6121c533611c91565b151561221d576040805160e560020a62461bcd0281526020600482015260346024820152600080516020613f6d8339815191526044820152600080516020613f8d833981519152606482015290519081900360840190fd5b603b5460ff1615612266576040805160e560020a62461bcd0281526020600482015260106024820152600080516020613fad833981519152604482015290519081900360640190fd5b8161227081611874565b15156122c5576040805160e560020a62461bcd0281526020600482015260256024820152600080516020613f4d833981519152604482015260da60020a641a5cdd195902606482015290519081900360840190fd5b836122cf81611874565b1515612324576040805160e560020a62461bcd0281526020600482015260256024820152600080516020613f4d833981519152604482015260da60020a641a5cdd195902606482015290519081900360840190fd5b61232f858585612d0a565b5050505050565b336000818152603c602052604081205490919060ff161561238f576040805160e560020a62461bcd02815260206004820152601c6024820152600080516020613f2d833981519152604482015290519081900360640190fd5b600160a060020a0384166000908152603c6020526040902054849060ff16156123f0576040805160e560020a62461bcd02815260206004820152601c6024820152600080516020613f2d833981519152604482015290519081900360640190fd5b610fe58585612f2b565b336000818152603c602052604081205490919060ff1615612453576040805160e560020a62461bcd02815260206004820152601c6024820152600080516020613f2d833981519152604482015290519081900360640190fd5b600160a060020a0384166000908152603c6020526040902054849060ff16156124b4576040805160e560020a62461bcd02815260206004820152601c6024820152600080516020613f2d833981519152604482015290519081900360640190fd5b610fe58585612f81565b8051825160009114612540576040805160e560020a62461bcd02815260206004820152602f60248201527f45646765546f6b656e3a2076616c75657320616e6420726563697069656e747360448201527f20617265206e6f7420657175616c2e0000000000000000000000000000000000606482015290519081900360840190fd5b825161010010156125c1576040805160e560020a62461bcd02815260206004820152603360248201527f45646765546f6b656e3a20626174636820636f756e742069732067726561746560448201527f72207468616e2042415443485f4c494d49542e00000000000000000000000000606482015290519081900360840190fd5b60005b8351811015611c8a5761260584828151811015156125de57fe5b9060200190602002015184838151811015156125f657fe5b90602001906020020151611155565b6001016125c4565b60055462010000900460ff16806126275750612627612fd7565b8061263a5750600554610100900460ff16155b15156126b6576040805160e560020a62461bcd02815260206004820152603d60248201527f496e697469616c697a61626c653a20436f6e747261637420696e7374616e636560448201527f2068617320616c7265616479206265656e20696e697469616c697a6564000000606482015290519081900360840190fd5b60055462010000900460ff161580156126e6576005805461ff001962ff0000199091166201000017166101001790555b6126ef82612fdd565b8015612702576005805462ff0000191690555b5050565b603c6020526000908152604090205460ff1681565b603854604080517f24d7806c000000000000000000000000000000000000000000000000000000008152600160a060020a038481166004830152915160009392909216916324d7806c91602480820192602092909190829003018186803b1580156113da57600080fd5b81516101001015612806576040805160e560020a62461bcd02815260206004820152602a60248201527f57686974656c6973743a20626174636820636f756e742069732067726561746560448201527f72207468616e2032353600000000000000000000000000000000000000000000606482015290519081900360840190fd5b60005b8251811015611f0757612833838281518110151561282357fe5b90602001906020020151836115fe565b600101612809565b603a6020526000908152604090205460ff1681565b600160a060020a03918216600090815260016020908152604080832093909416825291909152205490565b600160a060020a03166000908152603c602052604090205460ff1690565b603b5460009060ff16156128e5576040805160e560020a62461bcd0281526020600482015260106024820152600080516020613fad833981519152604482015290519081900360640190fd5b6128ef83836130bf565b9392505050565b6128ff33611c91565b1515612957576040805160e560020a62461bcd0281526020600482015260346024820152600080516020613f6d8339815191526044820152600080516020613f8d833981519152606482015290519081900360840190fd5b6127028282612b11565b603b5460009060ff16156129ad576040805160e560020a62461bcd0281526020600482015260106024820152600080516020613fad833981519152604482015290519081900360640190fd5b6129b8848484613189565b949350505050565b603b5460009060ff1615612a0c576040805160e560020a62461bcd0281526020600482015260106024820152600080516020613fad833981519152604482015290519081900360640190fd5b6128ef83836132b3565b612a1f33611370565b1515612a89576040805160e560020a62461bcd02815260206004820152603f6024820152600080516020613f6d83398151915260448201527f766520746865206f70657261746f7220726f6c65206e6f722073797374656d00606482015290519081900360840190fd5b60008111612b07576040805160e560020a62461bcd02815260206004820152602e60248201527f45524332304d696e7461626c653a20616d6f756e742068617320746f2062652060448201527f67726561746572207468616e2030000000000000000000000000000000000000606482015290519081900360840190fd5b612702828261337d565b603b5460ff1615612b5a576040805160e560020a62461bcd0281526020600482015260106024820152600080516020613fad833981519152604482015290519081900360640190fd5b61270282826133d0565b336000818152603c602052604090205460ff1615612bba576040805160e560020a62461bcd02815260206004820152601c6024820152600080516020613f2d833981519152604482015290519081900360640190fd5b600160a060020a0383166000908152603c6020526040902054839060ff1615612c1b576040805160e560020a62461bcd02815260206004820152601c6024820152600080516020613f2d833981519152604482015290519081900360640190fd5b612c258484613439565b50505050565b600160a060020a0381161515612cb1576040805160e560020a62461bcd02815260206004820152603e60248201527f4f70657261746f7261626c653a2061646472657373206f66206e6577206f706560448201527f7261746f727320636f6e74726163742063616e6e6f74206265207a65726f0000606482015290519081900360840190fd5b6038805473ffffffffffffffffffffffffffffffffffffffff1916600160a060020a03831690811790915560405133907f581e9e5016a25985d2da9da423c68d9946de634ff0e3447eaaa9575d135e819e90600090a350565b600160a060020a0383161515612d90576040805160e560020a62461bcd02815260206004820152602560248201527f45524332303a207472616e736665722066726f6d20746865207a65726f20616460448201527f6472657373000000000000000000000000000000000000000000000000000000606482015290519081900360840190fd5b600160a060020a0382161515612e16576040805160e560020a62461bcd02815260206004820152602360248201527f45524332303a207472616e7366657220746f20746865207a65726f206164647260448201527f6573730000000000000000000000000000000000000000000000000000000000606482015290519081900360840190fd5b60408051606081018252602681527f45524332303a207472616e7366657220616d6f756e74206578636565647320626020808301919091527f616c616e6365000000000000000000000000000000000000000000000000000082840152600160a060020a0386166000908152908190529190912054612e9c91839063ffffffff61348c16565b600160a060020a038085166000908152602081905260408082209390935590841681522054612ed1908263ffffffff61352616565b600160a060020a038084166000818152602081815260409182902094909455805185815290519193928716927fddf252ad1be2c89b69c2b068fc378daa952ba7f163c4a11628f55a4df523b3ef92918290030190a3505050565b603b5460009060ff1615612f77576040805160e560020a62461bcd0281526020600482015260106024820152600080516020613fad833981519152604482015290519081900360640190fd5b6128ef8383613583565b603b5460009060ff1615612fcd576040805160e560020a62461bcd0281526020600482015260106024820152600080516020613fad833981519152604482015290519081900360640190fd5b6128ef838361364d565b303b1590565b60055462010000900460ff1680612ff75750612ff7612fd7565b8061300a5750600554610100900460ff16155b1515613086576040805160e560020a62461bcd02815260206004820152603d60248201527f496e697469616c697a61626c653a20436f6e747261637420696e7374616e636560448201527f2068617320616c7265616479206265656e20696e697469616c697a6564000000606482015290519081900360840190fd5b60055462010000900460ff161580156130b6576005805461ff001962ff0000199091166201000017166101001790555b6126ef82612c2b565b6000336130cb81611874565b1515613120576040805160e560020a62461bcd0281526020600482015260256024820152600080516020613f4d833981519152604482015260da60020a641a5cdd195902606482015290519081900360840190fd5b8361312a81611874565b151561317f576040805160e560020a62461bcd0281526020600482015260256024820152600080516020613f4d833981519152604482015260da60020a641a5cdd195902606482015290519081900360840190fd5b610fe58585613717565b60003361319581611874565b15156131ea576040805160e560020a62461bcd0281526020600482015260256024820152600080516020613f4d833981519152604482015260da60020a641a5cdd195902606482015290519081900360840190fd5b846131f481611874565b1515613249576040805160e560020a62461bcd0281526020600482015260256024820152600080516020613f4d833981519152604482015260da60020a641a5cdd195902606482015290519081900360840190fd5b8461325381611874565b15156132a8576040805160e560020a62461bcd0281526020600482015260256024820152600080516020613f4d833981519152604482015260da60020a641a5cdd195902606482015290519081900360840190fd5b6112c9878787613734565b6000826132bf81611874565b1515613314576040805160e560020a62461bcd0281526020600482015260256024820152600080516020613f4d833981519152604482015260da60020a641a5cdd195902606482015290519081900360840190fd5b3361331e81611874565b1515613373576040805160e560020a62461bcd0281526020600482015260256024820152600080516020613f4d833981519152604482015260da60020a641a5cdd195902606482015290519081900360840190fd5b610fe58585613813565b603b5460ff16156133c6576040805160e560020a62461bcd0281526020600482015260106024820152600080516020613fad833981519152604482015290519081900360640190fd5b6127028282613867565b816133da81611874565b151561342f576040805160e560020a62461bcd0281526020600482015260256024820152600080516020613f4d833981519152604482015260da60020a641a5cdd195902606482015290519081900360840190fd5b611f0783836138d0565b603b5460ff1615613482576040805160e560020a62461bcd0281526020600482015260106024820152600080516020613fad833981519152604482015290519081900360640190fd5b6127028282613a50565b6000818484111561351e5760405160e560020a62461bcd0281526004018080602001828103825283818151815260200191508051906020019080838360005b838110156134e35781810151838201526020016134cb565b50505050905090810190601f1680156135105780820380516001836020036101000a031916815260200191505b509250505060405180910390fd5b505050900390565b6000828201838110156128ef576040805160e560020a62461bcd02815260206004820152601b60248201527f536166654d6174683a206164646974696f6e206f766572666c6f770000000000604482015290519081900360640190fd5b60008261358f81611874565b15156135e4576040805160e560020a62461bcd0281526020600482015260256024820152600080516020613f4d833981519152604482015260da60020a641a5cdd195902606482015290519081900360840190fd5b336135ee81611874565b1515613643576040805160e560020a62461bcd0281526020600482015260256024820152600080516020613f4d833981519152604482015260da60020a641a5cdd195902606482015290519081900360840190fd5b610fe58585613b18565b60003361365981611874565b15156136ae576040805160e560020a62461bcd0281526020600482015260256024820152600080516020613f4d833981519152604482015260da60020a641a5cdd195902606482015290519081900360840190fd5b836136b881611874565b151561370d576040805160e560020a62461bcd0281526020600482015260256024820152600080516020613f4d833981519152604482015260da60020a641a5cdd195902606482015290519081900360840190fd5b610fe58585613bca565b600061372b613724613bde565b8484613be2565b50600192915050565b6000613741848484612d0a565b6138098461374d613bde565b61380485606060405190810160405280602881526020017f45524332303a207472616e7366657220616d6f756e742065786365656473206181526020017f6c6c6f77616e6365000000000000000000000000000000000000000000000000815250600160008b600160a060020a0316600160a060020a0316815260200190815260200160002060006137dd613bde565b600160a060020a03168152602081019190915260400160002054919063ffffffff61348c16565b613be2565b5060019392505050565b600061372b613820613bde565b846138048560016000613831613bde565b600160a060020a03908116825260208083019390935260409182016000908120918c16815292529020549063ffffffff61352616565b8161387181611874565b15156138c6576040805160e560020a62461bcd0281526020600482015260256024820152600080516020613f4d833981519152604482015260da60020a641a5cdd195902606482015290519081900360840190fd5b611f078383613d4f565b600160a060020a0382161515613956576040805160e560020a62461bcd02815260206004820152602160248201527f45524332303a206275726e2066726f6d20746865207a65726f2061646472657360448201527f7300000000000000000000000000000000000000000000000000000000000000606482015290519081900360840190fd5b60408051606081018252602281527f45524332303a206275726e20616d6f756e7420657863656564732062616c616e6020808301919091527f636500000000000000000000000000000000000000000000000000000000000082840152600160a060020a03851660009081529081905291909120546139dc91839063ffffffff61348c16565b600160a060020a038316600090815260208190526040902055600254613a08908263ffffffff613e4416565b600255604080518281529051600091600160a060020a038516917fddf252ad1be2c89b69c2b068fc378daa952ba7f163c4a11628f55a4df523b3ef9181900360200190a35050565b33613a5a81611874565b1515613aaf576040805160e560020a62461bcd0281526020600482015260256024820152600080516020613f4d833981519152604482015260da60020a641a5cdd195902606482015290519081900360840190fd5b82613ab981611874565b1515613b0e576040805160e560020a62461bcd0281526020600482015260256024820152600080516020613f4d833981519152604482015260da60020a641a5cdd195902606482015290519081900360840190fd5b612c258484613e86565b600061372b613b25613bde565b8461380485606060405190810160405280602581526020017f45524332303a2064656372656173656420616c6c6f77616e63652062656c6f7781526020017f207a65726f00000000000000000000000000000000000000000000000000000081525060016000613b93613bde565b600160a060020a03908116825260208083019390935260409182016000908120918d1681529252902054919063ffffffff61348c16565b600061372b613bd7613bde565b8484612d0a565b3390565b600160a060020a0383161515613c67576040805160e560020a62461bcd028152602060048201526024808201527f45524332303a20617070726f76652066726f6d20746865207a65726f2061646460448201527f7265737300000000000000000000000000000000000000000000000000000000606482015290519081900360840190fd5b600160a060020a0382161515613ced576040805160e560020a62461bcd02815260206004820152602260248201527f45524332303a20617070726f766520746f20746865207a65726f20616464726560448201527f7373000000000000000000000000000000000000000000000000000000000000606482015290519081900360840190fd5b600160a060020a03808416600081815260016020908152604080832094871680845294825291829020859055815185815291517f8c5be1e5ebec7d5bd14f71427d1e84f3dd0314c0f7b2291e5b200ac8c7c3b9259281900390910190a3505050565b600160a060020a0382161515613daf576040805160e560020a62461bcd02815260206004820152601f60248201527f45524332303a206d696e7420746f20746865207a65726f206164647265737300604482015290519081900360640190fd5b600254613dc2908263ffffffff61352616565b600255600160a060020a038216600090815260208190526040902054613dee908263ffffffff61352616565b600160a060020a0383166000818152602081815260408083209490945583518581529351929391927fddf252ad1be2c89b69c2b068fc378daa952ba7f163c4a11628f55a4df523b3ef9281900390910190a35050565b60006128ef83836040805190810160405280601e81526020017f536166654d6174683a207375627472616374696f6e206f766572666c6f77000081525061348c565b613e908282612b11565b61270282613e9c613bde565b61380484606060405190810160405280602481526020017f45524332303a206275726e20616d6f756e74206578636565647320616c6c6f7781526020017f616e6365000000000000000000000000000000000000000000000000000000008152506001600089600160a060020a0316600160a060020a0316815260200190815260200160002060006137dd613bde56fe467265657a61626c653a206163636f756e742069732066726f7a656e0000000057686974656c6973743a206163636f756e74206973206e6f742077686974656c4f70657261746f7261626c653a2063616c6c657220646f6573206e6f74206861766520746865206f70657261746f7220726f6c650000000000000000000000005061757361626c653a2070617573656400000000000000000000000000000000a165627a7a723058202a8a69fa53b26a53d8a91a54c339b50adfe97cd19df20b327901593a995b863b0029",
  "source": "/**\n * @title EdgeToken\n * @author Connor Howe <connor.howe@sygnum.com>\n * @dev EdgeToken is a ERC20 token that is upgradable and pausable.\n *      User addresses require to be whitelisted for transfers\n *      to execute.  Addresses can be frozen, and funds from\n *      particular addresses can be confiscated.\n */\npragma solidity 0.5.0;\n\nimport \"openzeppelin-solidity/contracts/token/ERC20/ERC20.sol\";\nimport \"openzeppelin-solidity/contracts/token/ERC20/ERC20Detailed.sol\";\n\nimport \"./ERC20/ERC20Whitelist.sol\";\nimport \"./ERC20/ERC20Pausable.sol\";\nimport \"./ERC20/ERC20Freezable.sol\";\nimport \"./ERC20/ERC20Mintable.sol\";\nimport \"./ERC20/ERC20Burnable.sol\";\n\nimport \"@sygnum/solidity-base-contracts/contracts/helpers/Initializable.sol\";\n\n\ncontract EdgeToken is ERC20, ERC20Detailed(\"Digital CHF\", \"DCHF\", 2), Initializable, ERC20Whitelist,\n                        ERC20Pausable, ERC20Freezable, ERC20Mintable, ERC20Burnable {\n\n    event Minted(address indexed minter, address indexed account, uint256 value);\n    event Burned(address indexed burner, uint256 value);\n    event BurnedFor(address indexed burner, address indexed account, uint256 value);\n\n    uint16 constant BATCH_LIMIT = 256;\n\n    /**\n     * @dev Initialization instead of constructor, only called once.\n     * @param _baseOperators Address of baseOperators contract.\n     */\n    function initialize(address _baseOperators) public initializer {\n        super.initialize(_baseOperators);\n    }\n\n    /**\n    * @dev Burn.\n    * @param _amount Amount of tokens to burn.\n    */\n    function burn(uint256 _amount) public {\n        require(!isFrozen(msg.sender), \"EdgeToken: Account must not be frozen\");\n        super._burn(msg.sender, _amount);\n        emit Burned(msg.sender, _amount);\n    }\n\n    /**\n    * @dev BurnFor.\n    * @param _account Account to burn tokens from.\n    * @param _amount Amount of tokens to burn.\n    */\n    function burnFor(address _account, uint256 _amount) public {\n        super._burnFor(_account, _amount);\n        emit BurnedFor(msg.sender, _account, _amount);\n    }\n\n    /**\n    * @dev burnFrom.\n    * @param _account Account to burn from.\n    * @param _amount Amount of tokens to burn.\n    */\n    function burnFrom(address _account, uint256 _amount) public {\n        super._burnFrom(_account, _amount);\n        emit Burned(_account, _amount);\n    }\n\n    /**\n    * @dev Mint.\n    * @param _account Address to mint tokens to.\n    * @param _amount Amount to mint.\n    */\n    function mint(address _account, uint256 _amount) public {\n        if(isSystem(msg.sender)){\n            require(!isFrozen(_account), 'EdgeToken: Account must be frozen if system calling.');\n        }\n        super._mint(_account, _amount);\n        emit Minted(msg.sender, _account, _amount);\n    }\n\n    /**\n    * @dev confiscate.\n    * @param _confiscatee Account to confiscate funds from.\n    * @param _receiver Account to transfer confiscated funds too.\n    * @param _amount Amount of tokens to burn.\n    */\n    function confiscate(address _confiscatee, address _receiver, uint256 _amount)\n        public\n        onlyOperator\n        whenNotPaused\n        onlyWhitelisted(_receiver)\n        onlyWhitelisted(_confiscatee)\n    {\n        super._transfer(_confiscatee, _receiver, _amount);\n     }\n\n    /**\n     * @dev Batch burn from an operator or admin address.\n     * @param _recipients Array of recipient addresses.\n     * @param _values Array of amount to burn.\n     */\n    function batchBurnFor(address[] memory _recipients, uint256[] memory _values) public returns (bool) {\n        require(_recipients.length == _values.length, \"EdgeToken: values and recipients are not equal.\");\n        require(_recipients.length <= BATCH_LIMIT, \"EdgeToken: batch count is greater than BATCH_LIMIT.\");\n        for(uint256 i = 0; i < _recipients.length; i++) {\n            burnFor(_recipients[i], _values[i]);\n        }\n    }\n\n     /**\n     * @dev Batch mint to a maximum of 255 addresses, for a custom amount for each address.\n     * @param _recipients Array of recipient addresses.\n     * @param _values Array of amount to mint.\n     */\n    function batchMint(address[] memory _recipients, uint256[] memory _values) public returns (bool) {\n        require(_recipients.length == _values.length, \"EdgeToken: values and recipients are not equal.\");\n        require(_recipients.length <= BATCH_LIMIT, \"EdgeToken: greater than BATCH_LIMIT.\");\n        for(uint256 i = 0; i < _recipients.length; i++) {\n            mint(_recipients[i], _values[i]);\n        }\n    }\n\n     /**\n    * @dev Batch confiscate to a macimum of 255 addresses. \n    * @param _confiscatees array addresses who's funds are being confiscated\n    * @param _receivers array addresses who's receiving the funds\n    * @param _values array of values of funds being confiscated\n    */\n    function batchConfiscate(address[] memory _confiscatees, address[] memory _receivers, uint256[] memory _values) public returns (bool) {\n        require(_confiscatees.length == _values.length && _receivers.length == _values.length, \"EdgeToken: values and recipients are not equal\");\n        require(_confiscatees.length <= BATCH_LIMIT, \"EdgeToken: batch count is greater than BATCH_LIMIT\");\n        for(uint256 i = 0; i < _confiscatees.length; i++) {\n            confiscate(_confiscatees[i], _receivers[i], _values[i]);\n        }\n    }\n}\n",
  "sourcePath": "/Users/connor/Code/sygnum/blockchain-engineering/solidity-edge-contracts/solidity-edge-dchf-contracts/contracts/edge/EdgeToken.sol",
  "compiler": {
    "name": "solc",
    "version": "0.5.0+commit.1d4f565a.Emscripten.clang"
  },
  "schemaVersion": "3.0.23",
  "updatedAt": "2020-03-03T20:24:25.153Z",
  "devdoc": {
    "methods": {
      "allowance(address,address)": {
        "details": "See {IERC20-allowance}."
      },
      "balanceOf(address)": {
        "details": "See {IERC20-balanceOf}."
      },
      "batchBurnFor(address[],uint256[])": {
        "details": "Batch burn from an operator or admin address.",
        "params": {
          "_recipients": "Array of recipient addresses.",
          "_values": "Array of amount to burn."
        }
      },
      "batchConfiscate(address[],address[],uint256[])": {
        "details": "Batch confiscate to a macimum of 255 addresses. ",
        "params": {
          "_confiscatees": "array addresses who's funds are being confiscated",
          "_receivers": "array addresses who's receiving the funds",
          "_values": "array of values of funds being confiscated"
        }
      },
      "batchMint(address[],uint256[])": {
        "details": "Batch mint to a maximum of 255 addresses, for a custom amount for each address.",
        "params": {
          "_recipients": "Array of recipient addresses.",
          "_values": "Array of amount to mint."
        }
      },
      "batchToggleFreeze(address[],bool)": {
        "details": "Batch freeze/unfreeze multiple addresses, with _toggled being true/false.",
        "params": {
          "_addresses": "address array.",
          "_toggled": "freeze/unfreeze."
        }
      },
      "batchToggleWhitelist(address[],bool)": {
        "details": "Batch whitelisted/unwhitelist multiple addresses, with _toggled being true/false.",
        "params": {
          "_addresses": "address array.",
          "_toggled": "whitelist/unwhitelist."
        }
      },
      "burn(uint256)": {
        "details": "Burn.",
        "params": {
          "_amount": "Amount of tokens to burn."
        }
      },
      "burnFor(address,uint256)": {
        "details": "BurnFor.",
        "params": {
          "_account": "Account to burn tokens from.",
          "_amount": "Amount of tokens to burn."
        }
      },
      "burnFrom(address,uint256)": {
        "details": "burnFrom.",
        "params": {
          "_account": "Account to burn from.",
          "_amount": "Amount of tokens to burn."
        }
      },
      "confirmOperatorsContract()": {
        "details": "The function should be called from new operators contract by admin to insure that operatorsPending address      is the real contract address."
      },
      "confiscate(address,address,uint256)": {
        "details": "confiscate.",
        "params": {
          "_amount": "Amount of tokens to burn.",
          "_confiscatee": "Account to confiscate funds from.",
          "_receiver": "Account to transfer confiscated funds too."
        }
      },
      "decimals()": {
        "details": "Returns the number of decimals used to get its user representation. For example, if `decimals` equals `2`, a balance of `505` tokens should be displayed to a user as `5,05` (`505 / 10 ** 2`).     * Tokens usually opt for a value of 18, imitating the relationship between Ether and Wei.     * NOTE: This information is only used for _display_ purposes: it in no way affects any of the arithmetic of the contract, including {IERC20-balanceOf} and {IERC20-transfer}."
      },
      "getOperatorsContract()": {
        "return": "The address of the BaseOperators contract."
      },
      "getOperatorsPending()": {
        "return": "The pending address of the BaseOperators contract."
      },
      "initialize(address)": {
        "details": "Initialization instead of constructor, only called once.",
        "params": {
          "_baseOperators": "Address of baseOperators contract."
        }
      },
      "isAdmin(address)": {
        "return": "If '_account' has admin privileges."
      },
      "isAdminOrSystem(address)": {
        "return": "If '_account' has admin or system privileges."
      },
      "isFrozen(address)": {
        "details": "Getter to determine if address is frozen.",
        "params": {
          "_account": "address to determine if frozen or not."
        },
        "return": "bool is frozen"
      },
      "isNotPaused()": {
        "return": "If child contract is already paused or not."
      },
      "isOperator(address)": {
        "return": "If '_account' has operator privileges."
      },
      "isOperatorOrSystem(address)": {
        "return": "If '_account' has operator or system privileges."
      },
      "isSystem(address)": {
        "return": "If '_account' has system privileges."
      },
      "isWhitelisted(address)": {
        "details": "Getter to determine if address is whitelisted.",
        "params": {
          "_account": "address to determine if whitelisted or not."
        },
        "return": "bool is whitelisted"
      },
      "mint(address,uint256)": {
        "details": "Mint.",
        "params": {
          "_account": "Address to mint tokens to.",
          "_amount": "Amount to mint."
        }
      },
      "name()": {
        "details": "Returns the name of the token."
      },
      "pause()": {
        "details": "Called by operator to pause child contract. The contract     must not already be paused."
      },
      "setOperatorsContract(address)": {
        "details": "Set the new the address of Operators contract, should be confirmed from operators contract by calling confirmFor(addr)      where addr is the address of current contract instance. This is done to prevent the case when the new contract address is      broken and control of the contract can be lost in such case",
        "params": {
          "_baseOperators": "BaseOperators contract address."
        }
      },
      "symbol()": {
        "details": "Returns the symbol of the token, usually a shorter version of the name."
      },
      "toggleFreeze(address,bool)": {
        "details": "Toggle freeze/unfreeze on _account address, with _toggled being true/false.",
        "params": {
          "_account": "address to toggle.",
          "_toggled": "freeze/unfreeze."
        }
      },
      "toggleWhitelist(address,bool)": {
        "details": "Toggle whitelisted/unwhitelisted on _account address, with _toggled being true/false.",
        "params": {
          "_account": "address to toggle.",
          "_toggled": "whitelist/unwhitelist."
        }
      },
      "totalSupply()": {
        "details": "See {IERC20-totalSupply}."
      },
      "unpause()": {
        "details": "Called by operator to pause child contract. The contract      must already be paused."
      }
    }
  },
  "userdoc": {
    "methods": {}
  }
}