{
  "contractName": "ERC20Pausable",
  "abi": [
    {
      "constant": false,
      "inputs": [
        {
          "name": "_baseOperators",
          "type": "address"
        }
      ],
      "name": "setOperatorsContract",
      "outputs": [],
      "payable": false,
      "stateMutability": "nonpayable",
      "type": "function"
    },
    {
      "constant": true,
      "inputs": [],
      "name": "totalSupply",
      "outputs": [
        {
          "name": "",
          "type": "uint256"
        }
      ],
      "payable": false,
      "stateMutability": "view",
      "type": "function"
    },
    {
      "constant": true,
      "inputs": [],
      "name": "getOperatorsPending",
      "outputs": [
        {
          "name": "",
          "type": "address"
        }
      ],
      "payable": false,
      "stateMutability": "view",
      "type": "function"
    },
    {
      "constant": true,
      "inputs": [
        {
          "name": "_account",
          "type": "address"
        }
      ],
      "name": "isAdmin",
      "outputs": [
        {
          "name": "",
          "type": "bool"
        }
      ],
      "payable": false,
      "stateMutability": "view",
      "type": "function"
    },
    {
      "constant": true,
      "inputs": [
        {
          "name": "_account",
          "type": "address"
        }
      ],
      "name": "isOperatorOrSystem",
      "outputs": [
        {
          "name": "",
          "type": "bool"
        }
      ],
      "payable": false,
      "stateMutability": "view",
      "type": "function"
    },
    {
      "constant": true,
      "inputs": [
        {
          "name": "_account",
          "type": "address"
        }
      ],
      "name": "isSystem",
      "outputs": [
        {
          "name": "",
          "type": "bool"
        }
      ],
      "payable": false,
      "stateMutability": "view",
      "type": "function"
    },
    {
      "constant": true,
      "inputs": [],
      "name": "isInitialized",
      "outputs": [
        {
          "name": "",
          "type": "bool"
        }
      ],
      "payable": false,
      "stateMutability": "view",
      "type": "function"
    },
    {
      "constant": false,
      "inputs": [],
      "name": "unpause",
      "outputs": [],
      "payable": false,
      "stateMutability": "nonpayable",
      "type": "function"
    },
    {
      "constant": true,
      "inputs": [],
      "name": "getOperatorsContract",
      "outputs": [
        {
          "name": "",
          "type": "address"
        }
      ],
      "payable": false,
      "stateMutability": "view",
      "type": "function"
    },
    {
      "constant": true,
      "inputs": [
        {
          "name": "_account",
          "type": "address"
        }
      ],
      "name": "isOperator",
      "outputs": [
        {
          "name": "",
          "type": "bool"
        }
      ],
      "payable": false,
      "stateMutability": "view",
      "type": "function"
    },
    {
      "constant": true,
      "inputs": [
        {
          "name": "account",
          "type": "address"
        }
      ],
      "name": "balanceOf",
      "outputs": [
        {
          "name": "",
          "type": "uint256"
        }
      ],
      "payable": false,
      "stateMutability": "view",
      "type": "function"
    },
    {
      "constant": true,
      "inputs": [],
      "name": "isNotPaused",
      "outputs": [
        {
          "name": "",
          "type": "bool"
        }
      ],
      "payable": false,
      "stateMutability": "view",
      "type": "function"
    },
    {
      "constant": false,
      "inputs": [],
      "name": "pause",
      "outputs": [],
      "payable": false,
      "stateMutability": "nonpayable",
      "type": "function"
    },
    {
      "constant": false,
      "inputs": [],
      "name": "confirmOperatorsContract",
      "outputs": [],
      "payable": false,
      "stateMutability": "nonpayable",
      "type": "function"
    },
    {
      "constant": false,
      "inputs": [
        {
          "name": "_baseOperators",
          "type": "address"
        }
      ],
      "name": "initialize",
      "outputs": [],
      "payable": false,
      "stateMutability": "nonpayable",
      "type": "function"
    },
    {
      "constant": true,
      "inputs": [
        {
          "name": "_account",
          "type": "address"
        }
      ],
      "name": "isAdminOrSystem",
      "outputs": [
        {
          "name": "",
          "type": "bool"
        }
      ],
      "payable": false,
      "stateMutability": "view",
      "type": "function"
    },
    {
      "constant": true,
      "inputs": [
        {
          "name": "owner",
          "type": "address"
        },
        {
          "name": "spender",
          "type": "address"
        }
      ],
      "name": "allowance",
      "outputs": [
        {
          "name": "",
          "type": "uint256"
        }
      ],
      "payable": false,
      "stateMutability": "view",
      "type": "function"
    },
    {
      "anonymous": false,
      "inputs": [
        {
          "indexed": true,
          "name": "account",
          "type": "address"
        }
      ],
      "name": "Paused",
      "type": "event"
    },
    {
      "anonymous": false,
      "inputs": [
        {
          "indexed": true,
          "name": "account",
          "type": "address"
        }
      ],
      "name": "Unpaused",
      "type": "event"
    },
    {
      "anonymous": false,
      "inputs": [
        {
          "indexed": true,
          "name": "caller",
          "type": "address"
        },
        {
          "indexed": true,
          "name": "operatorsAddress",
          "type": "address"
        }
      ],
      "name": "OperatorsContractChanged",
      "type": "event"
    },
    {
      "anonymous": false,
      "inputs": [
        {
          "indexed": true,
          "name": "caller",
          "type": "address"
        },
        {
          "indexed": true,
          "name": "operatorsAddress",
          "type": "address"
        }
      ],
      "name": "OperatorsContractPending",
      "type": "event"
    },
    {
      "anonymous": false,
      "inputs": [
        {
          "indexed": true,
          "name": "from",
          "type": "address"
        },
        {
          "indexed": true,
          "name": "to",
          "type": "address"
        },
        {
          "indexed": false,
          "name": "value",
          "type": "uint256"
        }
      ],
      "name": "Transfer",
      "type": "event"
    },
    {
      "anonymous": false,
      "inputs": [
        {
          "indexed": true,
          "name": "owner",
          "type": "address"
        },
        {
          "indexed": true,
          "name": "spender",
          "type": "address"
        },
        {
          "indexed": false,
          "name": "value",
          "type": "uint256"
        }
      ],
      "name": "Approval",
      "type": "event"
    },
    {
      "constant": false,
      "inputs": [
        {
          "name": "to",
          "type": "address"
        },
        {
          "name": "value",
          "type": "uint256"
        }
      ],
      "name": "transfer",
      "outputs": [
        {
          "name": "",
          "type": "bool"
        }
      ],
      "payable": false,
      "stateMutability": "nonpayable",
      "type": "function"
    },
    {
      "constant": false,
      "inputs": [
        {
          "name": "spender",
          "type": "address"
        },
        {
          "name": "value",
          "type": "uint256"
        }
      ],
      "name": "approve",
      "outputs": [
        {
          "name": "",
          "type": "bool"
        }
      ],
      "payable": false,
      "stateMutability": "nonpayable",
      "type": "function"
    },
    {
      "constant": false,
      "inputs": [
        {
          "name": "from",
          "type": "address"
        },
        {
          "name": "to",
          "type": "address"
        },
        {
          "name": "value",
          "type": "uint256"
        }
      ],
      "name": "transferFrom",
      "outputs": [
        {
          "name": "",
          "type": "bool"
        }
      ],
      "payable": false,
      "stateMutability": "nonpayable",
      "type": "function"
    },
    {
      "constant": false,
      "inputs": [
        {
          "name": "spender",
          "type": "address"
        },
        {
          "name": "addedValue",
          "type": "uint256"
        }
      ],
      "name": "increaseAllowance",
      "outputs": [
        {
          "name": "",
          "type": "bool"
        }
      ],
      "payable": false,
      "stateMutability": "nonpayable",
      "type": "function"
    },
    {
      "constant": false,
      "inputs": [
        {
          "name": "spender",
          "type": "address"
        },
        {
          "name": "subtractedValue",
          "type": "uint256"
        }
      ],
      "name": "decreaseAllowance",
      "outputs": [
        {
          "name": "",
          "type": "bool"
        }
      ],
      "payable": false,
      "stateMutability": "nonpayable",
      "type": "function"
    }
  ],
  "bytecode": "0x60806040526037805460a060020a60ff02191690556117fa806100236000396000f3fe6080604052600436106101275763ffffffff7c0100000000000000000000000000000000000000000000000000000000600035041663095ea7b3811461012c5780631745145e1461017957806318160ddd146101ae5780631c6bbabc146101d557806323b872dd1461020657806324d7806c14610249578063295185141461027c57806334cdcf26146102af578063392e53cd146102e257806339509351146102f75780633f4ba83a146103305780635ead86c6146103455780636d70f7ae1461035a57806370a082311461038d5780637acf4892146103c05780638456cb59146103d55780638535a56b146103ea578063a457c2d7146103ff578063a9059cbb14610438578063c4d66de814610471578063d0ea5f4d146104a4578063dd62ed3e146104d7575b600080fd5b34801561013857600080fd5b506101656004803603604081101561014f57600080fd5b50600160a060020a038135169060200135610512565b604080519115158252519081900360200190f35b34801561018557600080fd5b506101ac6004803603602081101561019c57600080fd5b5035600160a060020a0316610576565b005b3480156101ba57600080fd5b506101c36106da565b60408051918252519081900360200190f35b3480156101e157600080fd5b506101ea6106e0565b60408051600160a060020a039092168252519081900360200190f35b34801561021257600080fd5b506101656004803603606081101561022957600080fd5b50600160a060020a038135811691602081013590911690604001356106ef565b34801561025557600080fd5b506101656004803603602081101561026c57600080fd5b5035600160a060020a0316610755565b34801561028857600080fd5b506101656004803603602081101561029f57600080fd5b5035600160a060020a03166107f1565b3480156102bb57600080fd5b50610165600480360360208110156102d257600080fd5b5035600160a060020a03166108f9565b3480156102ee57600080fd5b50610165610963565b34801561030357600080fd5b506101656004803603604081101561031a57600080fd5b50600160a060020a03813516906020013561096c565b34801561033c57600080fd5b506101ac6109c9565b34801561035157600080fd5b506101ea610afc565b34801561036657600080fd5b506101656004803603602081101561037d57600080fd5b5035600160a060020a0316610b0b565b34801561039957600080fd5b506101c3600480360360208110156103b057600080fd5b5035600160a060020a0316610b75565b3480156103cc57600080fd5b50610165610b90565b3480156103e157600080fd5b506101ac610ba1565b3480156103f657600080fd5b506101ac610cc7565b34801561040b57600080fd5b506101656004803603604081101561042257600080fd5b50600160a060020a038135169060200135610dee565b34801561044457600080fd5b506101656004803603604081101561045b57600080fd5b50600160a060020a038135169060200135610e4b565b34801561047d57600080fd5b506101ac6004803603602081101561049457600080fd5b5035600160a060020a0316610ea8565b3480156104b057600080fd5b50610165600480360360208110156104c757600080fd5b5035600160a060020a0316610f95565b3480156104e357600080fd5b506101c3600480360360408110156104fa57600080fd5b50600160a060020a0381358116916020013516610fff565b60375460009060a060020a900460ff1615610565576040805160e560020a62461bcd02815260206004820152601060248201526000805160206117af833981519152604482015290519081900360640190fd5b61056f838361102a565b9392505050565b61057f33610755565b15156105fb576040805160e560020a62461bcd02815260206004820152603160248201527f4f70657261746f7261626c653a2063616c6c657220646f6573206e6f7420686160448201527f7665207468652061646d696e20726f6c65000000000000000000000000000000606482015290519081900360840190fd5b600160a060020a0381161515610681576040805160e560020a62461bcd02815260206004820152603f60248201527f4f70657261746f7261626c653a2061646472657373206f66206e6577206f706560448201527f7261746f727320636f6e74726163742063616e206e6f74206265207a65726f00606482015290519081900360840190fd5b6037805473ffffffffffffffffffffffffffffffffffffffff1916600160a060020a03831690811790915560405133907f01e6311290e7fb795a47761d6ca6a39b9c898bbf2e8b0e40211aa9f2f6c0202990600090a350565b60025490565b603754600160a060020a031690565b60375460009060a060020a900460ff1615610742576040805160e560020a62461bcd02815260206004820152601060248201526000805160206117af833981519152604482015290519081900360640190fd5b61074d848484611047565b949350505050565b603654604080517f24d7806c000000000000000000000000000000000000000000000000000000008152600160a060020a038481166004830152915160009392909216916324d7806c91602480820192602092909190829003018186803b1580156107bf57600080fd5b505afa1580156107d3573d6000803e3d6000fd5b505050506040513d60208110156107e957600080fd5b505192915050565b603654604080517f6d70f7ae000000000000000000000000000000000000000000000000000000008152600160a060020a03848116600483015291516000939290921691636d70f7ae91602480820192602092909190829003018186803b15801561085b57600080fd5b505afa15801561086f573d6000803e3d6000fd5b505050506040513d602081101561088557600080fd5b5051806108f35750603654604080517f34cdcf26000000000000000000000000000000000000000000000000000000008152600160a060020a038581166004830152915191909216916334cdcf26916024808301926020929190829003018186803b1580156107bf57600080fd5b92915050565b603654604080517f34cdcf26000000000000000000000000000000000000000000000000000000008152600160a060020a038481166004830152915160009392909216916334cdcf2691602480820192602092909190829003018186803b1580156107bf57600080fd5b60035460ff1690565b60375460009060a060020a900460ff16156109bf576040805160e560020a62461bcd02815260206004820152601060248201526000805160206117af833981519152604482015290519081900360640190fd5b61056f8383611126565b6109d233610b0b565b1515610a4e576040805160e560020a62461bcd02815260206004820152603460248201527f4f70657261746f7261626c653a2063616c6c657220646f6573206e6f7420686160448201527f766520746865206f70657261746f7220726f6c65000000000000000000000000606482015290519081900360840190fd5b60375460a060020a900460ff161515610ab1576040805160e560020a62461bcd02815260206004820152601460248201527f5061757361626c653a206e6f7420706175736564000000000000000000000000604482015290519081900360640190fd5b6037805474ff00000000000000000000000000000000000000001916905560405133907f5db9ee0a495bf2e6ff9c91a7834c1ba4fdd244a5e8aa4e537bd38aeae4b073aa90600090a2565b603654600160a060020a031690565b603654604080517f6d70f7ae000000000000000000000000000000000000000000000000000000008152600160a060020a03848116600483015291516000939290921691636d70f7ae91602480820192602092909190829003018186803b1580156107bf57600080fd5b600160a060020a031660009081526020819052604090205490565b60375460a060020a900460ff161590565b610baa33610b0b565b1515610c26576040805160e560020a62461bcd02815260206004820152603460248201527f4f70657261746f7261626c653a2063616c6c657220646f6573206e6f7420686160448201527f766520746865206f70657261746f7220726f6c65000000000000000000000000606482015290519081900360840190fd5b60375460a060020a900460ff1615610c76576040805160e560020a62461bcd02815260206004820152601060248201526000805160206117af833981519152604482015290519081900360640190fd5b6037805474ff0000000000000000000000000000000000000000191660a060020a17905560405133907f62e78cea01bee320cd4e420270b5ea74000d11b0c9f74754ebdbfc544b05a25890600090a2565b603754600160a060020a03161515610d4f576040805160e560020a62461bcd02815260206004820152603f60248201527f4f70657261746f7261626c653a2061646472657373206f66206e6577206f706560448201527f7261746f727320636f6e74726163742063616e206e6f74206265207a65726f00606482015290519081900360840190fd5b603754600160a060020a03163314610dd7576040805160e560020a62461bcd02815260206004820152603a60248201527f4f70657261746f7261626c653a2073686f756c642062652063616c6c6564206660448201527f726f6d206e6577206f70657261746f727320636f6e7472616374000000000000606482015290519081900360840190fd5b603754610dec90600160a060020a031661117a565b565b60375460009060a060020a900460ff1615610e41576040805160e560020a62461bcd02815260206004820152601060248201526000805160206117af833981519152604482015290519081900360640190fd5b61056f8383611259565b60375460009060a060020a900460ff1615610e9e576040805160e560020a62461bcd02815260206004820152601060248201526000805160206117af833981519152604482015290519081900360640190fd5b61056f838361130b565b600354610100900460ff1680610ec15750610ec161131f565b80610ecf575060035460ff16155b1515610f4b576040805160e560020a62461bcd02815260206004820152603d60248201527f496e697469616c697a61626c653a20436f6e747261637420696e7374616e636560448201527f2068617320616c7265616479206265656e20696e697469616c697a6564000000606482015290519081900360840190fd5b600354610100900460ff16158015610f76576003805460ff1961ff0019909116610100171660011790555b610f7f8261117a565b8015610f91576003805461ff00191690555b5050565b603654604080517f24d7806c000000000000000000000000000000000000000000000000000000008152600160a060020a038481166004830152915160009392909216916324d7806c91602480820192602092909190829003018186803b15801561085b57600080fd5b600160a060020a03918216600090815260016020908152604080832093909416825291909152205490565b600061103e611037611325565b8484611329565b50600192915050565b6000611054848484611496565b61111c84611060611325565b61111785606060405190810160405280602881526020017f45524332303a207472616e7366657220616d6f756e742065786365656473206181526020017f6c6c6f77616e6365000000000000000000000000000000000000000000000000815250600160008b600160a060020a0316600160a060020a0316815260200190815260200160002060006110f0611325565b600160a060020a03168152602081019190915260400160002054919063ffffffff6116b716565b611329565b5060019392505050565b600061103e611133611325565b846111178560016000611144611325565b600160a060020a03908116825260208083019390935260409182016000908120918c16815292529020549063ffffffff61175116565b600160a060020a0381161515611200576040805160e560020a62461bcd02815260206004820152603e60248201527f4f70657261746f7261626c653a2061646472657373206f66206e6577206f706560448201527f7261746f727320636f6e74726163742063616e6e6f74206265207a65726f0000606482015290519081900360840190fd5b6036805473ffffffffffffffffffffffffffffffffffffffff1916600160a060020a03831690811790915560405133907f581e9e5016a25985d2da9da423c68d9946de634ff0e3447eaaa9575d135e819e90600090a350565b600061103e611266611325565b8461111785606060405190810160405280602581526020017f45524332303a2064656372656173656420616c6c6f77616e63652062656c6f7781526020017f207a65726f000000000000000000000000000000000000000000000000000000815250600160006112d4611325565b600160a060020a03908116825260208083019390935260409182016000908120918d1681529252902054919063ffffffff6116b716565b600061103e611318611325565b8484611496565b303b1590565b3390565b600160a060020a03831615156113ae576040805160e560020a62461bcd028152602060048201526024808201527f45524332303a20617070726f76652066726f6d20746865207a65726f2061646460448201527f7265737300000000000000000000000000000000000000000000000000000000606482015290519081900360840190fd5b600160a060020a0382161515611434576040805160e560020a62461bcd02815260206004820152602260248201527f45524332303a20617070726f766520746f20746865207a65726f20616464726560448201527f7373000000000000000000000000000000000000000000000000000000000000606482015290519081900360840190fd5b600160a060020a03808416600081815260016020908152604080832094871680845294825291829020859055815185815291517f8c5be1e5ebec7d5bd14f71427d1e84f3dd0314c0f7b2291e5b200ac8c7c3b9259281900390910190a3505050565b600160a060020a038316151561151c576040805160e560020a62461bcd02815260206004820152602560248201527f45524332303a207472616e736665722066726f6d20746865207a65726f20616460448201527f6472657373000000000000000000000000000000000000000000000000000000606482015290519081900360840190fd5b600160a060020a03821615156115a2576040805160e560020a62461bcd02815260206004820152602360248201527f45524332303a207472616e7366657220746f20746865207a65726f206164647260448201527f6573730000000000000000000000000000000000000000000000000000000000606482015290519081900360840190fd5b60408051606081018252602681527f45524332303a207472616e7366657220616d6f756e74206578636565647320626020808301919091527f616c616e6365000000000000000000000000000000000000000000000000000082840152600160a060020a038616600090815290819052919091205461162891839063ffffffff6116b716565b600160a060020a03808516600090815260208190526040808220939093559084168152205461165d908263ffffffff61175116565b600160a060020a038084166000818152602081815260409182902094909455805185815290519193928716927fddf252ad1be2c89b69c2b068fc378daa952ba7f163c4a11628f55a4df523b3ef92918290030190a3505050565b600081848411156117495760405160e560020a62461bcd0281526004018080602001828103825283818151815260200191508051906020019080838360005b8381101561170e5781810151838201526020016116f6565b50505050905090810190601f16801561173b5780820380516001836020036101000a031916815260200191505b509250505060405180910390fd5b505050900390565b60008282018381101561056f576040805160e560020a62461bcd02815260206004820152601b60248201527f536166654d6174683a206164646974696f6e206f766572666c6f770000000000604482015290519081900360640190fdfe5061757361626c653a2070617573656400000000000000000000000000000000a165627a7a7230582053613b2ffbb35981345995daee53971c6d1fc4d6a36b71c36d0f95c09529c1e00029",
  "source": "pragma solidity 0.5.0;\n\nimport \"openzeppelin-solidity/contracts/token/ERC20/ERC20.sol\";\nimport \"@sygnum/solidity-base-contracts/contracts/helpers/Pausable.sol\";\n\n\ncontract ERC20Pausable is ERC20, Pausable {\n   function transfer(address to, uint256 value) public whenNotPaused returns (bool) {\n        return super.transfer(to, value);\n    }\n\n    function approve(address spender, uint256 value) public whenNotPaused returns (bool) {\n        return super.approve(spender, value);\n    }\n\n    function transferFrom(address from, address to, uint256 value) public whenNotPaused returns (bool) {\n        return super.transferFrom(from, to, value);\n    }\n\n    function increaseAllowance(address spender, uint addedValue) public whenNotPaused returns (bool) {\n        return super.increaseAllowance(spender, addedValue);\n    }\n\n    function decreaseAllowance(address spender, uint subtractedValue) public whenNotPaused returns (bool) {\n        return super.decreaseAllowance(spender, subtractedValue);\n    }\n\n    function _burn(address account, uint256 value) internal whenNotPaused {\n        super._burn(account, value);\n    }\n\n    function _burnFrom(address account, uint256 amount) internal whenNotPaused {\n        super._burnFrom(account, amount);\n    }\n\n    function _mint(address account, uint256 amount) internal whenNotPaused {\n        super._mint(account, amount);\n    }\n}\n",
  "sourcePath": "/Users/connor/Code/sygnum/blockchain-engineering/solidity-edge-contracts/solidity-edge-dchf-contracts/contracts/edge/ERC20/ERC20Pausable.sol",
  "compiler": {
    "name": "solc",
    "version": "0.5.0+commit.1d4f565a.Emscripten.clang"
  },
  "schemaVersion": "3.0.23",
  "updatedAt": "2020-03-03T20:24:25.151Z",
  "devdoc": {
    "methods": {
      "allowance(address,address)": {
        "details": "See {IERC20-allowance}."
      },
      "balanceOf(address)": {
        "details": "See {IERC20-balanceOf}."
      },
      "confirmOperatorsContract()": {
        "details": "The function should be called from new operators contract by admin to insure that operatorsPending address      is the real contract address."
      },
      "getOperatorsContract()": {
        "return": "The address of the BaseOperators contract."
      },
      "getOperatorsPending()": {
        "return": "The pending address of the BaseOperators contract."
      },
      "initialize(address)": {
        "details": "Initialization instead of constructor, called once. The setOperatorsContract function can be called only by Admin role with      confirmation through the operators contract.",
        "params": {
          "_baseOperators": "BaseOperators contract address."
        }
      },
      "isAdmin(address)": {
        "return": "If '_account' has admin privileges."
      },
      "isAdminOrSystem(address)": {
        "return": "If '_account' has admin or system privileges."
      },
      "isNotPaused()": {
        "return": "If child contract is already paused or not."
      },
      "isOperator(address)": {
        "return": "If '_account' has operator privileges."
      },
      "isOperatorOrSystem(address)": {
        "return": "If '_account' has operator or system privileges."
      },
      "isSystem(address)": {
        "return": "If '_account' has system privileges."
      },
      "pause()": {
        "details": "Called by operator to pause child contract. The contract     must not already be paused."
      },
      "setOperatorsContract(address)": {
        "details": "Set the new the address of Operators contract, should be confirmed from operators contract by calling confirmFor(addr)      where addr is the address of current contract instance. This is done to prevent the case when the new contract address is      broken and control of the contract can be lost in such case",
        "params": {
          "_baseOperators": "BaseOperators contract address."
        }
      },
      "totalSupply()": {
        "details": "See {IERC20-totalSupply}."
      },
      "unpause()": {
        "details": "Called by operator to pause child contract. The contract      must already be paused."
      }
    }
  },
  "userdoc": {
    "methods": {}
  }
}