{
  "contractName": "ERC20Freezable",
  "abi": [
    {
      "constant": false,
      "inputs": [
        {
          "name": "_baseOperators",
          "type": "address"
        }
      ],
      "name": "setOperatorsContract",
      "outputs": [],
      "payable": false,
      "stateMutability": "nonpayable",
      "type": "function"
    },
    {
      "constant": true,
      "inputs": [],
      "name": "totalSupply",
      "outputs": [
        {
          "name": "",
          "type": "uint256"
        }
      ],
      "payable": false,
      "stateMutability": "view",
      "type": "function"
    },
    {
      "constant": true,
      "inputs": [],
      "name": "getOperatorsPending",
      "outputs": [
        {
          "name": "",
          "type": "address"
        }
      ],
      "payable": false,
      "stateMutability": "view",
      "type": "function"
    },
    {
      "constant": true,
      "inputs": [
        {
          "name": "_account",
          "type": "address"
        }
      ],
      "name": "isAdmin",
      "outputs": [
        {
          "name": "",
          "type": "bool"
        }
      ],
      "payable": false,
      "stateMutability": "view",
      "type": "function"
    },
    {
      "constant": true,
      "inputs": [
        {
          "name": "_account",
          "type": "address"
        }
      ],
      "name": "isOperatorOrSystem",
      "outputs": [
        {
          "name": "",
          "type": "bool"
        }
      ],
      "payable": false,
      "stateMutability": "view",
      "type": "function"
    },
    {
      "constant": true,
      "inputs": [
        {
          "name": "_account",
          "type": "address"
        }
      ],
      "name": "isSystem",
      "outputs": [
        {
          "name": "",
          "type": "bool"
        }
      ],
      "payable": false,
      "stateMutability": "view",
      "type": "function"
    },
    {
      "constant": true,
      "inputs": [],
      "name": "isInitialized",
      "outputs": [
        {
          "name": "",
          "type": "bool"
        }
      ],
      "payable": false,
      "stateMutability": "view",
      "type": "function"
    },
    {
      "constant": true,
      "inputs": [],
      "name": "getOperatorsContract",
      "outputs": [
        {
          "name": "",
          "type": "address"
        }
      ],
      "payable": false,
      "stateMutability": "view",
      "type": "function"
    },
    {
      "constant": true,
      "inputs": [
        {
          "name": "_account",
          "type": "address"
        }
      ],
      "name": "isOperator",
      "outputs": [
        {
          "name": "",
          "type": "bool"
        }
      ],
      "payable": false,
      "stateMutability": "view",
      "type": "function"
    },
    {
      "constant": true,
      "inputs": [
        {
          "name": "account",
          "type": "address"
        }
      ],
      "name": "balanceOf",
      "outputs": [
        {
          "name": "",
          "type": "uint256"
        }
      ],
      "payable": false,
      "stateMutability": "view",
      "type": "function"
    },
    {
      "constant": false,
      "inputs": [
        {
          "name": "_addresses",
          "type": "address[]"
        },
        {
          "name": "_toggled",
          "type": "bool"
        }
      ],
      "name": "batchToggleFreeze",
      "outputs": [],
      "payable": false,
      "stateMutability": "nonpayable",
      "type": "function"
    },
    {
      "constant": false,
      "inputs": [],
      "name": "confirmOperatorsContract",
      "outputs": [],
      "payable": false,
      "stateMutability": "nonpayable",
      "type": "function"
    },
    {
      "constant": false,
      "inputs": [
        {
          "name": "_account",
          "type": "address"
        },
        {
          "name": "_toggled",
          "type": "bool"
        }
      ],
      "name": "toggleFreeze",
      "outputs": [],
      "payable": false,
      "stateMutability": "nonpayable",
      "type": "function"
    },
    {
      "constant": false,
      "inputs": [
        {
          "name": "_baseOperators",
          "type": "address"
        }
      ],
      "name": "initialize",
      "outputs": [],
      "payable": false,
      "stateMutability": "nonpayable",
      "type": "function"
    },
    {
      "constant": true,
      "inputs": [
        {
          "name": "",
          "type": "address"
        }
      ],
      "name": "frozen",
      "outputs": [
        {
          "name": "",
          "type": "bool"
        }
      ],
      "payable": false,
      "stateMutability": "view",
      "type": "function"
    },
    {
      "constant": true,
      "inputs": [
        {
          "name": "_account",
          "type": "address"
        }
      ],
      "name": "isAdminOrSystem",
      "outputs": [
        {
          "name": "",
          "type": "bool"
        }
      ],
      "payable": false,
      "stateMutability": "view",
      "type": "function"
    },
    {
      "constant": true,
      "inputs": [
        {
          "name": "owner",
          "type": "address"
        },
        {
          "name": "spender",
          "type": "address"
        }
      ],
      "name": "allowance",
      "outputs": [
        {
          "name": "",
          "type": "uint256"
        }
      ],
      "payable": false,
      "stateMutability": "view",
      "type": "function"
    },
    {
      "constant": true,
      "inputs": [
        {
          "name": "_account",
          "type": "address"
        }
      ],
      "name": "isFrozen",
      "outputs": [
        {
          "name": "",
          "type": "bool"
        }
      ],
      "payable": false,
      "stateMutability": "view",
      "type": "function"
    },
    {
      "anonymous": false,
      "inputs": [
        {
          "indexed": true,
          "name": "account",
          "type": "address"
        },
        {
          "indexed": false,
          "name": "frozen",
          "type": "bool"
        }
      ],
      "name": "FreezeToggled",
      "type": "event"
    },
    {
      "anonymous": false,
      "inputs": [
        {
          "indexed": true,
          "name": "caller",
          "type": "address"
        },
        {
          "indexed": true,
          "name": "operatorsAddress",
          "type": "address"
        }
      ],
      "name": "OperatorsContractChanged",
      "type": "event"
    },
    {
      "anonymous": false,
      "inputs": [
        {
          "indexed": true,
          "name": "caller",
          "type": "address"
        },
        {
          "indexed": true,
          "name": "operatorsAddress",
          "type": "address"
        }
      ],
      "name": "OperatorsContractPending",
      "type": "event"
    },
    {
      "anonymous": false,
      "inputs": [
        {
          "indexed": true,
          "name": "from",
          "type": "address"
        },
        {
          "indexed": true,
          "name": "to",
          "type": "address"
        },
        {
          "indexed": false,
          "name": "value",
          "type": "uint256"
        }
      ],
      "name": "Transfer",
      "type": "event"
    },
    {
      "anonymous": false,
      "inputs": [
        {
          "indexed": true,
          "name": "owner",
          "type": "address"
        },
        {
          "indexed": true,
          "name": "spender",
          "type": "address"
        },
        {
          "indexed": false,
          "name": "value",
          "type": "uint256"
        }
      ],
      "name": "Approval",
      "type": "event"
    },
    {
      "constant": false,
      "inputs": [
        {
          "name": "to",
          "type": "address"
        },
        {
          "name": "value",
          "type": "uint256"
        }
      ],
      "name": "transfer",
      "outputs": [
        {
          "name": "",
          "type": "bool"
        }
      ],
      "payable": false,
      "stateMutability": "nonpayable",
      "type": "function"
    },
    {
      "constant": false,
      "inputs": [
        {
          "name": "spender",
          "type": "address"
        },
        {
          "name": "value",
          "type": "uint256"
        }
      ],
      "name": "approve",
      "outputs": [
        {
          "name": "",
          "type": "bool"
        }
      ],
      "payable": false,
      "stateMutability": "nonpayable",
      "type": "function"
    },
    {
      "constant": false,
      "inputs": [
        {
          "name": "from",
          "type": "address"
        },
        {
          "name": "to",
          "type": "address"
        },
        {
          "name": "value",
          "type": "uint256"
        }
      ],
      "name": "transferFrom",
      "outputs": [
        {
          "name": "",
          "type": "bool"
        }
      ],
      "payable": false,
      "stateMutability": "nonpayable",
      "type": "function"
    },
    {
      "constant": false,
      "inputs": [
        {
          "name": "spender",
          "type": "address"
        },
        {
          "name": "addedValue",
          "type": "uint256"
        }
      ],
      "name": "increaseAllowance",
      "outputs": [
        {
          "name": "",
          "type": "bool"
        }
      ],
      "payable": false,
      "stateMutability": "nonpayable",
      "type": "function"
    },
    {
      "constant": false,
      "inputs": [
        {
          "name": "spender",
          "type": "address"
        },
        {
          "name": "subtractedValue",
          "type": "uint256"
        }
      ],
      "name": "decreaseAllowance",
      "outputs": [
        {
          "name": "",
          "type": "bool"
        }
      ],
      "payable": false,
      "stateMutability": "nonpayable",
      "type": "function"
    }
  ],
  "bytecode": "0x6080604052611b59806100136000396000f3fe6080604052600436106101325763ffffffff7c0100000000000000000000000000000000000000000000000000000000600035041663095ea7b381146101375780631745145e1461018457806318160ddd146101b95780631c6bbabc146101e057806323b872dd1461021157806324d7806c14610254578063295185141461028757806334cdcf26146102ba578063392e53cd146102ed57806339509351146103025780635ead86c61461033b5780636d70f7ae1461035057806370a082311461038357806384a9d4d7146103b65780638535a56b146104685780638feaade41461047d578063a457c2d7146104b8578063a9059cbb146104f1578063c4d66de81461052a578063d05166501461055d578063d0ea5f4d14610590578063dd62ed3e146105c3578063e5839836146105fe575b600080fd5b34801561014357600080fd5b506101706004803603604081101561015a57600080fd5b50600160a060020a038135169060200135610631565b604080519115158252519081900360200190f35b34801561019057600080fd5b506101b7600480360360208110156101a757600080fd5b5035600160a060020a03166106fe565b005b3480156101c557600080fd5b506101ce610862565b60408051918252519081900360200190f35b3480156101ec57600080fd5b506101f5610868565b60408051600160a060020a039092168252519081900360200190f35b34801561021d57600080fd5b506101706004803603606081101561023457600080fd5b50600160a060020a03813581169160208101359091169060400135610877565b34801561026057600080fd5b506101706004803603602081101561027757600080fd5b5035600160a060020a03166109a8565b34801561029357600080fd5b50610170600480360360208110156102aa57600080fd5b5035600160a060020a0316610a44565b3480156102c657600080fd5b50610170600480360360208110156102dd57600080fd5b5035600160a060020a0316610b4c565b3480156102f957600080fd5b50610170610bb6565b34801561030e57600080fd5b506101706004803603604081101561032557600080fd5b50600160a060020a038135169060200135610bbf565b34801561034757600080fd5b506101f5610c83565b34801561035c57600080fd5b506101706004803603602081101561037357600080fd5b5035600160a060020a0316610c92565b34801561038f57600080fd5b506101ce600480360360208110156103a657600080fd5b5035600160a060020a0316610cfc565b3480156103c257600080fd5b506101b7600480360360408110156103d957600080fd5b8101906020810181356401000000008111156103f457600080fd5b82018360208201111561040657600080fd5b8035906020019184602083028401116401000000008311171561042857600080fd5b9190808060200260200160405190810160405280939291908181526020018383602002808284376000920191909152509295505050503515159050610d17565b34801561047457600080fd5b506101b7610dd2565b34801561048957600080fd5b506101b7600480360360408110156104a057600080fd5b50600160a060020a0381351690602001351515610ef9565b3480156104c457600080fd5b50610170600480360360408110156104db57600080fd5b50600160a060020a038135169060200135611045565b3480156104fd57600080fd5b506101706004803603604081101561051457600080fd5b50600160a060020a038135169060200135611109565b34801561053657600080fd5b506101b76004803603602081101561054d57600080fd5b5035600160a060020a03166111cd565b34801561056957600080fd5b506101706004803603602081101561058057600080fd5b5035600160a060020a03166112ba565b34801561059c57600080fd5b50610170600480360360208110156105b357600080fd5b5035600160a060020a03166112cf565b3480156105cf57600080fd5b506101ce600480360360408110156105e657600080fd5b50600160a060020a0381358116916020013516611339565b34801561060a57600080fd5b506101706004803603602081101561062157600080fd5b5035600160a060020a0316611364565b3360008181526038602052604081205490919060ff161561068a576040805160e560020a62461bcd02815260206004820152601c6024820152600080516020611b0e833981519152604482015290519081900360640190fd5b600160a060020a038416600090815260386020526040902054849060ff16156106eb576040805160e560020a62461bcd02815260206004820152601c6024820152600080516020611b0e833981519152604482015290519081900360640190fd5b6106f58585611382565b95945050505050565b610707336109a8565b1515610783576040805160e560020a62461bcd02815260206004820152603160248201527f4f70657261746f7261626c653a2063616c6c657220646f6573206e6f7420686160448201527f7665207468652061646d696e20726f6c65000000000000000000000000000000606482015290519081900360840190fd5b600160a060020a0381161515610809576040805160e560020a62461bcd02815260206004820152603f60248201527f4f70657261746f7261626c653a2061646472657373206f66206e6577206f706560448201527f7261746f727320636f6e74726163742063616e206e6f74206265207a65726f00606482015290519081900360840190fd5b6037805473ffffffffffffffffffffffffffffffffffffffff1916600160a060020a03831690811790915560405133907f01e6311290e7fb795a47761d6ca6a39b9c898bbf2e8b0e40211aa9f2f6c0202990600090a350565b60025490565b603754600160a060020a031690565b3360008181526038602052604081205490919060ff16156108d0576040805160e560020a62461bcd02815260206004820152601c6024820152600080516020611b0e833981519152604482015290519081900360640190fd5b600160a060020a038516600090815260386020526040902054859060ff1615610931576040805160e560020a62461bcd02815260206004820152601c6024820152600080516020611b0e833981519152604482015290519081900360640190fd5b600160a060020a038516600090815260386020526040902054859060ff1615610992576040805160e560020a62461bcd02815260206004820152601c6024820152600080516020611b0e833981519152604482015290519081900360640190fd5b61099d87878761139f565b979650505050505050565b603654604080517f24d7806c000000000000000000000000000000000000000000000000000000008152600160a060020a038481166004830152915160009392909216916324d7806c91602480820192602092909190829003018186803b158015610a1257600080fd5b505afa158015610a26573d6000803e3d6000fd5b505050506040513d6020811015610a3c57600080fd5b505192915050565b603654604080517f6d70f7ae000000000000000000000000000000000000000000000000000000008152600160a060020a03848116600483015291516000939290921691636d70f7ae91602480820192602092909190829003018186803b158015610aae57600080fd5b505afa158015610ac2573d6000803e3d6000fd5b505050506040513d6020811015610ad857600080fd5b505180610b465750603654604080517f34cdcf26000000000000000000000000000000000000000000000000000000008152600160a060020a038581166004830152915191909216916334cdcf26916024808301926020929190829003018186803b158015610a1257600080fd5b92915050565b603654604080517f34cdcf26000000000000000000000000000000000000000000000000000000008152600160a060020a038481166004830152915160009392909216916334cdcf2691602480820192602092909190829003018186803b158015610a1257600080fd5b60035460ff1690565b3360008181526038602052604081205490919060ff1615610c18576040805160e560020a62461bcd02815260206004820152601c6024820152600080516020611b0e833981519152604482015290519081900360640190fd5b600160a060020a038416600090815260386020526040902054849060ff1615610c79576040805160e560020a62461bcd02815260206004820152601c6024820152600080516020611b0e833981519152604482015290519081900360640190fd5b6106f5858561147e565b603654600160a060020a031690565b603654604080517f6d70f7ae000000000000000000000000000000000000000000000000000000008152600160a060020a03848116600483015291516000939290921691636d70f7ae91602480820192602092909190829003018186803b158015610a1257600080fd5b600160a060020a031660009081526020819052604090205490565b81516101001015610d98576040805160e560020a62461bcd02815260206004820152602a60248201527f467265657a61626c653a20626174636820636f756e742069732067726561746560448201527f72207468616e2032353600000000000000000000000000000000000000000000606482015290519081900360840190fd5b60005b8251811015610dcd57610dc58382815181101515610db557fe5b9060200190602002015183610ef9565b600101610d9b565b505050565b603754600160a060020a03161515610e5a576040805160e560020a62461bcd02815260206004820152603f60248201527f4f70657261746f7261626c653a2061646472657373206f66206e6577206f706560448201527f7261746f727320636f6e74726163742063616e206e6f74206265207a65726f00606482015290519081900360840190fd5b603754600160a060020a03163314610ee2576040805160e560020a62461bcd02815260206004820152603a60248201527f4f70657261746f7261626c653a2073686f756c642062652063616c6c6564206660448201527f726f6d206e6577206f70657261746f727320636f6e7472616374000000000000606482015290519081900360840190fd5b603754610ef790600160a060020a03166114d2565b565b81600160a060020a0381161515610f5a576040805160e560020a62461bcd02815260206004820152601860248201527f467265657a61626c653a20456d70747920616464726573730000000000000000604482015290519081900360640190fd5b610f6333610c92565b1515610fdf576040805160e560020a62461bcd02815260206004820152603460248201527f4f70657261746f7261626c653a2063616c6c657220646f6573206e6f7420686160448201527f766520746865206f70657261746f7220726f6c65000000000000000000000000606482015290519081900360840190fd5b600160a060020a038316600081815260386020908152604091829020805460ff19168615151790819055825160ff9091161515815291517f3c143a3c8cc9eafd41748a32abe319b06bd5b995c988fa06db8d1ef4e5841edf9281900390910190a2505050565b3360008181526038602052604081205490919060ff161561109e576040805160e560020a62461bcd02815260206004820152601c6024820152600080516020611b0e833981519152604482015290519081900360640190fd5b600160a060020a038416600090815260386020526040902054849060ff16156110ff576040805160e560020a62461bcd02815260206004820152601c6024820152600080516020611b0e833981519152604482015290519081900360640190fd5b6106f585856115b1565b3360008181526038602052604081205490919060ff1615611162576040805160e560020a62461bcd02815260206004820152601c6024820152600080516020611b0e833981519152604482015290519081900360640190fd5b600160a060020a038416600090815260386020526040902054849060ff16156111c3576040805160e560020a62461bcd02815260206004820152601c6024820152600080516020611b0e833981519152604482015290519081900360640190fd5b6106f58585611663565b600354610100900460ff16806111e657506111e6611677565b806111f4575060035460ff16155b1515611270576040805160e560020a62461bcd02815260206004820152603d60248201527f496e697469616c697a61626c653a20436f6e747261637420696e7374616e636560448201527f2068617320616c7265616479206265656e20696e697469616c697a6564000000606482015290519081900360840190fd5b600354610100900460ff1615801561129b576003805460ff1961ff0019909116610100171660011790555b6112a4826114d2565b80156112b6576003805461ff00191690555b5050565b60386020526000908152604090205460ff1681565b603654604080517f24d7806c000000000000000000000000000000000000000000000000000000008152600160a060020a038481166004830152915160009392909216916324d7806c91602480820192602092909190829003018186803b158015610aae57600080fd5b600160a060020a03918216600090815260016020908152604080832093909416825291909152205490565b600160a060020a031660009081526038602052604090205460ff1690565b600061139661138f61167d565b8484611681565b50600192915050565b60006113ac8484846117ee565b611474846113b861167d565b61146f85606060405190810160405280602881526020017f45524332303a207472616e7366657220616d6f756e742065786365656473206181526020017f6c6c6f77616e6365000000000000000000000000000000000000000000000000815250600160008b600160a060020a0316600160a060020a03168152602001908152602001600020600061144861167d565b600160a060020a03168152602081019190915260400160002054919063ffffffff611a0f16565b611681565b5060019392505050565b600061139661148b61167d565b8461146f856001600061149c61167d565b600160a060020a03908116825260208083019390935260409182016000908120918c16815292529020549063ffffffff611aa916565b600160a060020a0381161515611558576040805160e560020a62461bcd02815260206004820152603e60248201527f4f70657261746f7261626c653a2061646472657373206f66206e6577206f706560448201527f7261746f727320636f6e74726163742063616e6e6f74206265207a65726f0000606482015290519081900360840190fd5b6036805473ffffffffffffffffffffffffffffffffffffffff1916600160a060020a03831690811790915560405133907f581e9e5016a25985d2da9da423c68d9946de634ff0e3447eaaa9575d135e819e90600090a350565b60006113966115be61167d565b8461146f85606060405190810160405280602581526020017f45524332303a2064656372656173656420616c6c6f77616e63652062656c6f7781526020017f207a65726f0000000000000000000000000000000000000000000000000000008152506001600061162c61167d565b600160a060020a03908116825260208083019390935260409182016000908120918d1681529252902054919063ffffffff611a0f16565b600061139661167061167d565b84846117ee565b303b1590565b3390565b600160a060020a0383161515611706576040805160e560020a62461bcd028152602060048201526024808201527f45524332303a20617070726f76652066726f6d20746865207a65726f2061646460448201527f7265737300000000000000000000000000000000000000000000000000000000606482015290519081900360840190fd5b600160a060020a038216151561178c576040805160e560020a62461bcd02815260206004820152602260248201527f45524332303a20617070726f766520746f20746865207a65726f20616464726560448201527f7373000000000000000000000000000000000000000000000000000000000000606482015290519081900360840190fd5b600160a060020a03808416600081815260016020908152604080832094871680845294825291829020859055815185815291517f8c5be1e5ebec7d5bd14f71427d1e84f3dd0314c0f7b2291e5b200ac8c7c3b9259281900390910190a3505050565b600160a060020a0383161515611874576040805160e560020a62461bcd02815260206004820152602560248201527f45524332303a207472616e736665722066726f6d20746865207a65726f20616460448201527f6472657373000000000000000000000000000000000000000000000000000000606482015290519081900360840190fd5b600160a060020a03821615156118fa576040805160e560020a62461bcd02815260206004820152602360248201527f45524332303a207472616e7366657220746f20746865207a65726f206164647260448201527f6573730000000000000000000000000000000000000000000000000000000000606482015290519081900360840190fd5b60408051606081018252602681527f45524332303a207472616e7366657220616d6f756e74206578636565647320626020808301919091527f616c616e6365000000000000000000000000000000000000000000000000000082840152600160a060020a038616600090815290819052919091205461198091839063ffffffff611a0f16565b600160a060020a0380851660009081526020819052604080822093909355908416815220546119b5908263ffffffff611aa916565b600160a060020a038084166000818152602081815260409182902094909455805185815290519193928716927fddf252ad1be2c89b69c2b068fc378daa952ba7f163c4a11628f55a4df523b3ef92918290030190a3505050565b60008184841115611aa15760405160e560020a62461bcd0281526004018080602001828103825283818151815260200191508051906020019080838360005b83811015611a66578181015183820152602001611a4e565b50505050905090810190601f168015611a935780820380516001836020036101000a031916815260200191505b509250505060405180910390fd5b505050900390565b600082820183811015611b06576040805160e560020a62461bcd02815260206004820152601b60248201527f536166654d6174683a206164646974696f6e206f766572666c6f770000000000604482015290519081900360640190fd5b939250505056fe467265657a61626c653a206163636f756e742069732066726f7a656e00000000a165627a7a723058206c8bd87ea35f8038113d40dea1799f6cc57bbc5c7f59dc0d68945c45a3f75b680029",
  "source": "pragma solidity 0.5.0;\n\nimport \"openzeppelin-solidity/contracts/token/ERC20/ERC20.sol\";\nimport \"@sygnum/solidity-base-contracts/contracts/helpers/Freezable.sol\";\n\n\ncontract ERC20Freezable is ERC20, Freezable {\n   function transfer(address to, uint256 value) public whenNotFrozen(msg.sender) whenNotFrozen(to) returns (bool) {\n        return super.transfer(to, value);\n    }\n\n    function approve(address spender, uint256 value) public whenNotFrozen(msg.sender) whenNotFrozen(spender) returns (bool) {\n        return super.approve(spender, value);\n    }\n\n    function transferFrom(address from, address to, uint256 value) public whenNotFrozen(msg.sender) whenNotFrozen(from) whenNotFrozen(to) returns (bool) {\n        return super.transferFrom(from, to, value);\n    }\n\n    function increaseAllowance(address spender, uint addedValue) public whenNotFrozen(msg.sender) whenNotFrozen(spender) returns (bool) {\n        return super.increaseAllowance(spender, addedValue);\n    }\n\n    function decreaseAllowance(address spender, uint subtractedValue) public whenNotFrozen(msg.sender) whenNotFrozen(spender) returns (bool) {\n        return super.decreaseAllowance(spender, subtractedValue);\n    }\n\n    function _burnFrom(address account, uint256 amount) internal whenNotFrozen(msg.sender) whenNotFrozen(account) {\n        super._burnFrom(account, amount);\n    }\n}\n",
  "sourcePath": "/Users/connor/Code/sygnum/blockchain-engineering/solidity-edge-contracts/solidity-edge-dchf-contracts/contracts/edge/ERC20/ERC20Freezable.sol",
  "compiler": {
    "name": "solc",
    "version": "0.5.0+commit.1d4f565a.Emscripten.clang"
  },
  "schemaVersion": "3.0.23",
  "updatedAt": "2020-03-03T20:24:25.149Z",
  "devdoc": {
    "methods": {
      "allowance(address,address)": {
        "details": "See {IERC20-allowance}."
      },
      "balanceOf(address)": {
        "details": "See {IERC20-balanceOf}."
      },
      "batchToggleFreeze(address[],bool)": {
        "details": "Batch freeze/unfreeze multiple addresses, with _toggled being true/false.",
        "params": {
          "_addresses": "address array.",
          "_toggled": "freeze/unfreeze."
        }
      },
      "confirmOperatorsContract()": {
        "details": "The function should be called from new operators contract by admin to insure that operatorsPending address      is the real contract address."
      },
      "getOperatorsContract()": {
        "return": "The address of the BaseOperators contract."
      },
      "getOperatorsPending()": {
        "return": "The pending address of the BaseOperators contract."
      },
      "initialize(address)": {
        "details": "Initialization instead of constructor, called once. The setOperatorsContract function can be called only by Admin role with      confirmation through the operators contract.",
        "params": {
          "_baseOperators": "BaseOperators contract address."
        }
      },
      "isAdmin(address)": {
        "return": "If '_account' has admin privileges."
      },
      "isAdminOrSystem(address)": {
        "return": "If '_account' has admin or system privileges."
      },
      "isFrozen(address)": {
        "details": "Getter to determine if address is frozen.",
        "params": {
          "_account": "address to determine if frozen or not."
        },
        "return": "bool is frozen"
      },
      "isOperator(address)": {
        "return": "If '_account' has operator privileges."
      },
      "isOperatorOrSystem(address)": {
        "return": "If '_account' has operator or system privileges."
      },
      "isSystem(address)": {
        "return": "If '_account' has system privileges."
      },
      "setOperatorsContract(address)": {
        "details": "Set the new the address of Operators contract, should be confirmed from operators contract by calling confirmFor(addr)      where addr is the address of current contract instance. This is done to prevent the case when the new contract address is      broken and control of the contract can be lost in such case",
        "params": {
          "_baseOperators": "BaseOperators contract address."
        }
      },
      "toggleFreeze(address,bool)": {
        "details": "Toggle freeze/unfreeze on _account address, with _toggled being true/false.",
        "params": {
          "_account": "address to toggle.",
          "_toggled": "freeze/unfreeze."
        }
      },
      "totalSupply()": {
        "details": "See {IERC20-totalSupply}."
      }
    }
  },
  "userdoc": {
    "methods": {}
  }
}