{
  "contractName": "ERC20Whitelist",
  "abi": [
    {
      "constant": false,
      "inputs": [
        {
          "name": "_baseOperators",
          "type": "address"
        }
      ],
      "name": "setOperatorsContract",
      "outputs": [],
      "payable": false,
      "stateMutability": "nonpayable",
      "type": "function"
    },
    {
      "constant": true,
      "inputs": [],
      "name": "totalSupply",
      "outputs": [
        {
          "name": "",
          "type": "uint256"
        }
      ],
      "payable": false,
      "stateMutability": "view",
      "type": "function"
    },
    {
      "constant": true,
      "inputs": [],
      "name": "getOperatorsPending",
      "outputs": [
        {
          "name": "",
          "type": "address"
        }
      ],
      "payable": false,
      "stateMutability": "view",
      "type": "function"
    },
    {
      "constant": true,
      "inputs": [
        {
          "name": "_account",
          "type": "address"
        }
      ],
      "name": "isAdmin",
      "outputs": [
        {
          "name": "",
          "type": "bool"
        }
      ],
      "payable": false,
      "stateMutability": "view",
      "type": "function"
    },
    {
      "constant": true,
      "inputs": [
        {
          "name": "_account",
          "type": "address"
        }
      ],
      "name": "isOperatorOrSystem",
      "outputs": [
        {
          "name": "",
          "type": "bool"
        }
      ],
      "payable": false,
      "stateMutability": "view",
      "type": "function"
    },
    {
      "constant": false,
      "inputs": [
        {
          "name": "_account",
          "type": "address"
        },
        {
          "name": "_toggled",
          "type": "bool"
        }
      ],
      "name": "toggleWhitelist",
      "outputs": [],
      "payable": false,
      "stateMutability": "nonpayable",
      "type": "function"
    },
    {
      "constant": true,
      "inputs": [
        {
          "name": "_account",
          "type": "address"
        }
      ],
      "name": "isSystem",
      "outputs": [
        {
          "name": "",
          "type": "bool"
        }
      ],
      "payable": false,
      "stateMutability": "view",
      "type": "function"
    },
    {
      "constant": true,
      "inputs": [],
      "name": "isInitialized",
      "outputs": [
        {
          "name": "",
          "type": "bool"
        }
      ],
      "payable": false,
      "stateMutability": "view",
      "type": "function"
    },
    {
      "constant": true,
      "inputs": [
        {
          "name": "_account",
          "type": "address"
        }
      ],
      "name": "isWhitelisted",
      "outputs": [
        {
          "name": "",
          "type": "bool"
        }
      ],
      "payable": false,
      "stateMutability": "view",
      "type": "function"
    },
    {
      "constant": true,
      "inputs": [],
      "name": "getOperatorsContract",
      "outputs": [
        {
          "name": "",
          "type": "address"
        }
      ],
      "payable": false,
      "stateMutability": "view",
      "type": "function"
    },
    {
      "constant": true,
      "inputs": [
        {
          "name": "_account",
          "type": "address"
        }
      ],
      "name": "isOperator",
      "outputs": [
        {
          "name": "",
          "type": "bool"
        }
      ],
      "payable": false,
      "stateMutability": "view",
      "type": "function"
    },
    {
      "constant": true,
      "inputs": [
        {
          "name": "account",
          "type": "address"
        }
      ],
      "name": "balanceOf",
      "outputs": [
        {
          "name": "",
          "type": "uint256"
        }
      ],
      "payable": false,
      "stateMutability": "view",
      "type": "function"
    },
    {
      "constant": false,
      "inputs": [],
      "name": "confirmOperatorsContract",
      "outputs": [],
      "payable": false,
      "stateMutability": "nonpayable",
      "type": "function"
    },
    {
      "constant": false,
      "inputs": [
        {
          "name": "_baseOperators",
          "type": "address"
        }
      ],
      "name": "initialize",
      "outputs": [],
      "payable": false,
      "stateMutability": "nonpayable",
      "type": "function"
    },
    {
      "constant": true,
      "inputs": [
        {
          "name": "_account",
          "type": "address"
        }
      ],
      "name": "isAdminOrSystem",
      "outputs": [
        {
          "name": "",
          "type": "bool"
        }
      ],
      "payable": false,
      "stateMutability": "view",
      "type": "function"
    },
    {
      "constant": false,
      "inputs": [
        {
          "name": "_addresses",
          "type": "address[]"
        },
        {
          "name": "_toggled",
          "type": "bool"
        }
      ],
      "name": "batchToggleWhitelist",
      "outputs": [],
      "payable": false,
      "stateMutability": "nonpayable",
      "type": "function"
    },
    {
      "constant": true,
      "inputs": [
        {
          "name": "",
          "type": "address"
        }
      ],
      "name": "whitelisted",
      "outputs": [
        {
          "name": "",
          "type": "bool"
        }
      ],
      "payable": false,
      "stateMutability": "view",
      "type": "function"
    },
    {
      "constant": true,
      "inputs": [
        {
          "name": "owner",
          "type": "address"
        },
        {
          "name": "spender",
          "type": "address"
        }
      ],
      "name": "allowance",
      "outputs": [
        {
          "name": "",
          "type": "uint256"
        }
      ],
      "payable": false,
      "stateMutability": "view",
      "type": "function"
    },
    {
      "anonymous": false,
      "inputs": [
        {
          "indexed": true,
          "name": "account",
          "type": "address"
        },
        {
          "indexed": false,
          "name": "whitelisted",
          "type": "bool"
        }
      ],
      "name": "WhitelistToggled",
      "type": "event"
    },
    {
      "anonymous": false,
      "inputs": [
        {
          "indexed": true,
          "name": "caller",
          "type": "address"
        },
        {
          "indexed": true,
          "name": "operatorsAddress",
          "type": "address"
        }
      ],
      "name": "OperatorsContractChanged",
      "type": "event"
    },
    {
      "anonymous": false,
      "inputs": [
        {
          "indexed": true,
          "name": "caller",
          "type": "address"
        },
        {
          "indexed": true,
          "name": "operatorsAddress",
          "type": "address"
        }
      ],
      "name": "OperatorsContractPending",
      "type": "event"
    },
    {
      "anonymous": false,
      "inputs": [
        {
          "indexed": true,
          "name": "from",
          "type": "address"
        },
        {
          "indexed": true,
          "name": "to",
          "type": "address"
        },
        {
          "indexed": false,
          "name": "value",
          "type": "uint256"
        }
      ],
      "name": "Transfer",
      "type": "event"
    },
    {
      "anonymous": false,
      "inputs": [
        {
          "indexed": true,
          "name": "owner",
          "type": "address"
        },
        {
          "indexed": true,
          "name": "spender",
          "type": "address"
        },
        {
          "indexed": false,
          "name": "value",
          "type": "uint256"
        }
      ],
      "name": "Approval",
      "type": "event"
    },
    {
      "constant": false,
      "inputs": [
        {
          "name": "to",
          "type": "address"
        },
        {
          "name": "value",
          "type": "uint256"
        }
      ],
      "name": "transfer",
      "outputs": [
        {
          "name": "",
          "type": "bool"
        }
      ],
      "payable": false,
      "stateMutability": "nonpayable",
      "type": "function"
    },
    {
      "constant": false,
      "inputs": [
        {
          "name": "spender",
          "type": "address"
        },
        {
          "name": "value",
          "type": "uint256"
        }
      ],
      "name": "approve",
      "outputs": [
        {
          "name": "",
          "type": "bool"
        }
      ],
      "payable": false,
      "stateMutability": "nonpayable",
      "type": "function"
    },
    {
      "constant": false,
      "inputs": [
        {
          "name": "from",
          "type": "address"
        },
        {
          "name": "to",
          "type": "address"
        },
        {
          "name": "value",
          "type": "uint256"
        }
      ],
      "name": "transferFrom",
      "outputs": [
        {
          "name": "",
          "type": "bool"
        }
      ],
      "payable": false,
      "stateMutability": "nonpayable",
      "type": "function"
    },
    {
      "constant": false,
      "inputs": [
        {
          "name": "spender",
          "type": "address"
        },
        {
          "name": "addedValue",
          "type": "uint256"
        }
      ],
      "name": "increaseAllowance",
      "outputs": [
        {
          "name": "",
          "type": "bool"
        }
      ],
      "payable": false,
      "stateMutability": "nonpayable",
      "type": "function"
    },
    {
      "constant": false,
      "inputs": [
        {
          "name": "spender",
          "type": "address"
        },
        {
          "name": "subtractedValue",
          "type": "uint256"
        }
      ],
      "name": "decreaseAllowance",
      "outputs": [
        {
          "name": "",
          "type": "bool"
        }
      ],
      "payable": false,
      "stateMutability": "nonpayable",
      "type": "function"
    }
  ],
  "bytecode": "0x6080604052611b75806100136000396000f3fe6080604052600436106101325763ffffffff7c0100000000000000000000000000000000000000000000000000000000600035041663095ea7b381146101375780631745145e1461018457806318160ddd146101b95780631c6bbabc146101e057806323b872dd1461021157806324d7806c146102545780632951851414610287578063349123d1146102ba57806334cdcf26146102f5578063392e53cd14610328578063395093511461033d5780633af32abf146103765780635ead86c6146103a95780636d70f7ae146103be57806370a08231146103f15780638535a56b14610424578063a457c2d714610439578063a9059cbb14610472578063c4d66de8146104ab578063d0ea5f4d146104de578063d178224314610511578063d936547e146105c3578063dd62ed3e146105f6575b600080fd5b34801561014357600080fd5b506101706004803603604081101561015a57600080fd5b50600160a060020a038135169060200135610631565b604080519115158252519081900360200190f35b34801561019057600080fd5b506101b7600480360360208110156101a757600080fd5b5035600160a060020a0316610704565b005b3480156101c557600080fd5b506101ce610868565b60408051918252519081900360200190f35b3480156101ec57600080fd5b506101f561086e565b60408051600160a060020a039092168252519081900360200190f35b34801561021d57600080fd5b506101706004803603606081101561023457600080fd5b50600160a060020a0381358116916020810135909116906040013561087d565b34801561026057600080fd5b506101706004803603602081101561027757600080fd5b5035600160a060020a03166109b2565b34801561029357600080fd5b50610170600480360360208110156102aa57600080fd5b5035600160a060020a0316610a4e565b3480156102c657600080fd5b506101b7600480360360408110156102dd57600080fd5b50600160a060020a0381351690602001351515610b56565b34801561030157600080fd5b506101706004803603602081101561031857600080fd5b5035600160a060020a0316610ca2565b34801561033457600080fd5b50610170610d0c565b34801561034957600080fd5b506101706004803603604081101561036057600080fd5b50600160a060020a038135169060200135610d15565b34801561038257600080fd5b506101706004803603602081101561039957600080fd5b5035600160a060020a0316610ddf565b3480156103b557600080fd5b506101f5610dfd565b3480156103ca57600080fd5b50610170600480360360208110156103e157600080fd5b5035600160a060020a0316610e0c565b3480156103fd57600080fd5b506101ce6004803603602081101561041457600080fd5b5035600160a060020a0316610e76565b34801561043057600080fd5b506101b7610e91565b34801561044557600080fd5b506101706004803603604081101561045c57600080fd5b50600160a060020a038135169060200135610fb8565b34801561047e57600080fd5b506101706004803603604081101561049557600080fd5b50600160a060020a038135169060200135611082565b3480156104b757600080fd5b506101b7600480360360208110156104ce57600080fd5b5035600160a060020a031661114c565b3480156104ea57600080fd5b506101706004803603602081101561050157600080fd5b5035600160a060020a0316611239565b34801561051d57600080fd5b506101b76004803603604081101561053457600080fd5b81019060208101813564010000000081111561054f57600080fd5b82018360208201111561056157600080fd5b8035906020019184602083028401116401000000008311171561058357600080fd5b91908080602002602001604051908101604052809392919081815260200183836020028082843760009201919091525092955050505035151590506112a3565b3480156105cf57600080fd5b50610170600480360360208110156105e657600080fd5b5035600160a060020a031661135e565b34801561060257600080fd5b506101ce6004803603604081101561061957600080fd5b50600160a060020a0381358116916020013516611373565b60003361063d81610ddf565b1515610692576040805160e560020a62461bcd0281526020600482015260256024820152600080516020611b2a833981519152604482015260da60020a641a5cdd195902606482015290519081900360840190fd5b8361069c81610ddf565b15156106f1576040805160e560020a62461bcd0281526020600482015260256024820152600080516020611b2a833981519152604482015260da60020a641a5cdd195902606482015290519081900360840190fd5b6106fb858561139e565b95945050505050565b61070d336109b2565b1515610789576040805160e560020a62461bcd02815260206004820152603160248201527f4f70657261746f7261626c653a2063616c6c657220646f6573206e6f7420686160448201527f7665207468652061646d696e20726f6c65000000000000000000000000000000606482015290519081900360840190fd5b600160a060020a038116151561080f576040805160e560020a62461bcd02815260206004820152603f60248201527f4f70657261746f7261626c653a2061646472657373206f66206e6577206f706560448201527f7261746f727320636f6e74726163742063616e206e6f74206265207a65726f00606482015290519081900360840190fd5b6037805473ffffffffffffffffffffffffffffffffffffffff1916600160a060020a03831690811790915560405133907f01e6311290e7fb795a47761d6ca6a39b9c898bbf2e8b0e40211aa9f2f6c0202990600090a350565b60025490565b603754600160a060020a031690565b60003361088981610ddf565b15156108de576040805160e560020a62461bcd0281526020600482015260256024820152600080516020611b2a833981519152604482015260da60020a641a5cdd195902606482015290519081900360840190fd5b846108e881610ddf565b151561093d576040805160e560020a62461bcd0281526020600482015260256024820152600080516020611b2a833981519152604482015260da60020a641a5cdd195902606482015290519081900360840190fd5b8461094781610ddf565b151561099c576040805160e560020a62461bcd0281526020600482015260256024820152600080516020611b2a833981519152604482015260da60020a641a5cdd195902606482015290519081900360840190fd5b6109a78787876113bb565b979650505050505050565b603654604080517f24d7806c000000000000000000000000000000000000000000000000000000008152600160a060020a038481166004830152915160009392909216916324d7806c91602480820192602092909190829003018186803b158015610a1c57600080fd5b505afa158015610a30573d6000803e3d6000fd5b505050506040513d6020811015610a4657600080fd5b505192915050565b603654604080517f6d70f7ae000000000000000000000000000000000000000000000000000000008152600160a060020a03848116600483015291516000939290921691636d70f7ae91602480820192602092909190829003018186803b158015610ab857600080fd5b505afa158015610acc573d6000803e3d6000fd5b505050506040513d6020811015610ae257600080fd5b505180610b505750603654604080517f34cdcf26000000000000000000000000000000000000000000000000000000008152600160a060020a038581166004830152915191909216916334cdcf26916024808301926020929190829003018186803b158015610a1c57600080fd5b92915050565b81600160a060020a0381161515610bb7576040805160e560020a62461bcd02815260206004820152601a60248201527f57686974656c6973743a20696e76616c69642061646472657373000000000000604482015290519081900360640190fd5b610bc033610a4e565b1515610c3c576040805160e560020a62461bcd02815260206004820152603f60248201527f4f70657261746f7261626c653a2063616c6c657220646f6573206e6f7420686160448201527f766520746865206f70657261746f7220726f6c65206e6f722073797374656d00606482015290519081900360840190fd5b600160a060020a038316600081815260386020908152604091829020805460ff19168615151790819055825160ff9091161515815291517fdb17f7dcc6b9d3c099107ae3eea3dcc0ce959cda4b7b164cac7f8f9c841397199281900390910190a2505050565b603654604080517f34cdcf26000000000000000000000000000000000000000000000000000000008152600160a060020a038481166004830152915160009392909216916334cdcf2691602480820192602092909190829003018186803b158015610a1c57600080fd5b60035460ff1690565b600082610d2181610ddf565b1515610d76576040805160e560020a62461bcd0281526020600482015260256024820152600080516020611b2a833981519152604482015260da60020a641a5cdd195902606482015290519081900360840190fd5b33610d8081610ddf565b1515610dd5576040805160e560020a62461bcd0281526020600482015260256024820152600080516020611b2a833981519152604482015260da60020a641a5cdd195902606482015290519081900360840190fd5b6106fb858561149a565b600160a060020a031660009081526038602052604090205460ff1690565b603654600160a060020a031690565b603654604080517f6d70f7ae000000000000000000000000000000000000000000000000000000008152600160a060020a03848116600483015291516000939290921691636d70f7ae91602480820192602092909190829003018186803b158015610a1c57600080fd5b600160a060020a031660009081526020819052604090205490565b603754600160a060020a03161515610f19576040805160e560020a62461bcd02815260206004820152603f60248201527f4f70657261746f7261626c653a2061646472657373206f66206e6577206f706560448201527f7261746f727320636f6e74726163742063616e206e6f74206265207a65726f00606482015290519081900360840190fd5b603754600160a060020a03163314610fa1576040805160e560020a62461bcd02815260206004820152603a60248201527f4f70657261746f7261626c653a2073686f756c642062652063616c6c6564206660448201527f726f6d206e6577206f70657261746f727320636f6e7472616374000000000000606482015290519081900360840190fd5b603754610fb690600160a060020a03166114ee565b565b600082610fc481610ddf565b1515611019576040805160e560020a62461bcd0281526020600482015260256024820152600080516020611b2a833981519152604482015260da60020a641a5cdd195902606482015290519081900360840190fd5b3361102381610ddf565b1515611078576040805160e560020a62461bcd0281526020600482015260256024820152600080516020611b2a833981519152604482015260da60020a641a5cdd195902606482015290519081900360840190fd5b6106fb85856115cd565b60003361108e81610ddf565b15156110e3576040805160e560020a62461bcd0281526020600482015260256024820152600080516020611b2a833981519152604482015260da60020a641a5cdd195902606482015290519081900360840190fd5b836110ed81610ddf565b1515611142576040805160e560020a62461bcd0281526020600482015260256024820152600080516020611b2a833981519152604482015260da60020a641a5cdd195902606482015290519081900360840190fd5b6106fb858561167f565b600354610100900460ff16806111655750611165611693565b80611173575060035460ff16155b15156111ef576040805160e560020a62461bcd02815260206004820152603d60248201527f496e697469616c697a61626c653a20436f6e747261637420696e7374616e636560448201527f2068617320616c7265616479206265656e20696e697469616c697a6564000000606482015290519081900360840190fd5b600354610100900460ff1615801561121a576003805460ff1961ff0019909116610100171660011790555b611223826114ee565b8015611235576003805461ff00191690555b5050565b603654604080517f24d7806c000000000000000000000000000000000000000000000000000000008152600160a060020a038481166004830152915160009392909216916324d7806c91602480820192602092909190829003018186803b158015610ab857600080fd5b81516101001015611324576040805160e560020a62461bcd02815260206004820152602a60248201527f57686974656c6973743a20626174636820636f756e742069732067726561746560448201527f72207468616e2032353600000000000000000000000000000000000000000000606482015290519081900360840190fd5b60005b825181101561135957611351838281518110151561134157fe5b9060200190602002015183610b56565b600101611327565b505050565b60386020526000908152604090205460ff1681565b600160a060020a03918216600090815260016020908152604080832093909416825291909152205490565b60006113b26113ab611699565b848461169d565b50600192915050565b60006113c884848461180a565b611490846113d4611699565b61148b85606060405190810160405280602881526020017f45524332303a207472616e7366657220616d6f756e742065786365656473206181526020017f6c6c6f77616e6365000000000000000000000000000000000000000000000000815250600160008b600160a060020a0316600160a060020a031681526020019081526020016000206000611464611699565b600160a060020a03168152602081019190915260400160002054919063ffffffff611a2b16565b61169d565b5060019392505050565b60006113b26114a7611699565b8461148b85600160006114b8611699565b600160a060020a03908116825260208083019390935260409182016000908120918c16815292529020549063ffffffff611ac516565b600160a060020a0381161515611574576040805160e560020a62461bcd02815260206004820152603e60248201527f4f70657261746f7261626c653a2061646472657373206f66206e6577206f706560448201527f7261746f727320636f6e74726163742063616e6e6f74206265207a65726f0000606482015290519081900360840190fd5b6036805473ffffffffffffffffffffffffffffffffffffffff1916600160a060020a03831690811790915560405133907f581e9e5016a25985d2da9da423c68d9946de634ff0e3447eaaa9575d135e819e90600090a350565b60006113b26115da611699565b8461148b85606060405190810160405280602581526020017f45524332303a2064656372656173656420616c6c6f77616e63652062656c6f7781526020017f207a65726f00000000000000000000000000000000000000000000000000000081525060016000611648611699565b600160a060020a03908116825260208083019390935260409182016000908120918d1681529252902054919063ffffffff611a2b16565b60006113b261168c611699565b848461180a565b303b1590565b3390565b600160a060020a0383161515611722576040805160e560020a62461bcd028152602060048201526024808201527f45524332303a20617070726f76652066726f6d20746865207a65726f2061646460448201527f7265737300000000000000000000000000000000000000000000000000000000606482015290519081900360840190fd5b600160a060020a03821615156117a8576040805160e560020a62461bcd02815260206004820152602260248201527f45524332303a20617070726f766520746f20746865207a65726f20616464726560448201527f7373000000000000000000000000000000000000000000000000000000000000606482015290519081900360840190fd5b600160a060020a03808416600081815260016020908152604080832094871680845294825291829020859055815185815291517f8c5be1e5ebec7d5bd14f71427d1e84f3dd0314c0f7b2291e5b200ac8c7c3b9259281900390910190a3505050565b600160a060020a0383161515611890576040805160e560020a62461bcd02815260206004820152602560248201527f45524332303a207472616e736665722066726f6d20746865207a65726f20616460448201527f6472657373000000000000000000000000000000000000000000000000000000606482015290519081900360840190fd5b600160a060020a0382161515611916576040805160e560020a62461bcd02815260206004820152602360248201527f45524332303a207472616e7366657220746f20746865207a65726f206164647260448201527f6573730000000000000000000000000000000000000000000000000000000000606482015290519081900360840190fd5b60408051606081018252602681527f45524332303a207472616e7366657220616d6f756e74206578636565647320626020808301919091527f616c616e6365000000000000000000000000000000000000000000000000000082840152600160a060020a038616600090815290819052919091205461199c91839063ffffffff611a2b16565b600160a060020a0380851660009081526020819052604080822093909355908416815220546119d1908263ffffffff611ac516565b600160a060020a038084166000818152602081815260409182902094909455805185815290519193928716927fddf252ad1be2c89b69c2b068fc378daa952ba7f163c4a11628f55a4df523b3ef92918290030190a3505050565b60008184841115611abd5760405160e560020a62461bcd0281526004018080602001828103825283818151815260200191508051906020019080838360005b83811015611a82578181015183820152602001611a6a565b50505050905090810190601f168015611aaf5780820380516001836020036101000a031916815260200191505b509250505060405180910390fd5b505050900390565b600082820183811015611b22576040805160e560020a62461bcd02815260206004820152601b60248201527f536166654d6174683a206164646974696f6e206f766572666c6f770000000000604482015290519081900360640190fd5b939250505056fe57686974656c6973743a206163636f756e74206973206e6f742077686974656ca165627a7a7230582007069094afa623037061db353d46977ddeeac13e88f34811910c331167c9750e0029",
  "source": "pragma solidity 0.5.0;\n\nimport \"openzeppelin-solidity/contracts/token/ERC20/ERC20.sol\";\nimport \"@sygnum/solidity-base-contracts/contracts/helpers/Whitelist.sol\";\n\n\ncontract ERC20Whitelist is ERC20, Whitelist {\n    function transfer(address to, uint256 value) public onlyWhitelisted(msg.sender) onlyWhitelisted(to) returns (bool) {\n        return super.transfer(to, value);\n    }\n\n    function approve(address spender, uint256 value) public onlyWhitelisted(msg.sender) onlyWhitelisted(spender) returns (bool) {\n        return super.approve(spender, value);\n    }\n\n    function transferFrom(address from, address to, uint256 value) public onlyWhitelisted(msg.sender) onlyWhitelisted(from) onlyWhitelisted(to) returns (bool) {\n        return super.transferFrom(from, to, value);\n    }\n\n    function increaseAllowance(address spender, uint addedValue) public onlyWhitelisted(spender) onlyWhitelisted(msg.sender) returns (bool) {\n        return super.increaseAllowance(spender, addedValue);\n    }\n\n    function decreaseAllowance(address spender, uint subtractedValue) public onlyWhitelisted(spender) onlyWhitelisted(msg.sender) returns (bool) {\n        return super.decreaseAllowance(spender, subtractedValue);\n    }\n\n    function _burn(address account, uint256 value) internal onlyWhitelisted(account) {\n        super._burn(account, value);\n    }\n\n    function _burnFrom(address account, uint256 amount) internal onlyWhitelisted(msg.sender) onlyWhitelisted(account) {\n        super._burnFrom(account, amount);\n    }\n\n    function _mint(address account, uint256 amount) internal onlyWhitelisted(account) {\n        super._mint(account, amount);\n    }\n}",
  "sourcePath": "/Users/connor/Code/sygnum/blockchain-engineering/solidity-edge-contracts/solidity-edge-dchf-contracts/contracts/edge/ERC20/ERC20Whitelist.sol",
  "compiler": {
    "name": "solc",
    "version": "0.5.0+commit.1d4f565a.Emscripten.clang"
  },
  "schemaVersion": "3.0.23",
  "updatedAt": "2020-03-03T20:24:25.152Z",
  "devdoc": {
    "methods": {
      "allowance(address,address)": {
        "details": "See {IERC20-allowance}."
      },
      "balanceOf(address)": {
        "details": "See {IERC20-balanceOf}."
      },
      "batchToggleWhitelist(address[],bool)": {
        "details": "Batch whitelisted/unwhitelist multiple addresses, with _toggled being true/false.",
        "params": {
          "_addresses": "address array.",
          "_toggled": "whitelist/unwhitelist."
        }
      },
      "confirmOperatorsContract()": {
        "details": "The function should be called from new operators contract by admin to insure that operatorsPending address      is the real contract address."
      },
      "getOperatorsContract()": {
        "return": "The address of the BaseOperators contract."
      },
      "getOperatorsPending()": {
        "return": "The pending address of the BaseOperators contract."
      },
      "initialize(address)": {
        "details": "Initialization instead of constructor, called once. The setOperatorsContract function can be called only by Admin role with      confirmation through the operators contract.",
        "params": {
          "_baseOperators": "BaseOperators contract address."
        }
      },
      "isAdmin(address)": {
        "return": "If '_account' has admin privileges."
      },
      "isAdminOrSystem(address)": {
        "return": "If '_account' has admin or system privileges."
      },
      "isOperator(address)": {
        "return": "If '_account' has operator privileges."
      },
      "isOperatorOrSystem(address)": {
        "return": "If '_account' has operator or system privileges."
      },
      "isSystem(address)": {
        "return": "If '_account' has system privileges."
      },
      "isWhitelisted(address)": {
        "details": "Getter to determine if address is whitelisted.",
        "params": {
          "_account": "address to determine if whitelisted or not."
        },
        "return": "bool is whitelisted"
      },
      "setOperatorsContract(address)": {
        "details": "Set the new the address of Operators contract, should be confirmed from operators contract by calling confirmFor(addr)      where addr is the address of current contract instance. This is done to prevent the case when the new contract address is      broken and control of the contract can be lost in such case",
        "params": {
          "_baseOperators": "BaseOperators contract address."
        }
      },
      "toggleWhitelist(address,bool)": {
        "details": "Toggle whitelisted/unwhitelisted on _account address, with _toggled being true/false.",
        "params": {
          "_account": "address to toggle.",
          "_toggled": "whitelist/unwhitelist."
        }
      },
      "totalSupply()": {
        "details": "See {IERC20-totalSupply}."
      }
    }
  },
  "userdoc": {
    "methods": {}
  }
}