{
  "contractName": "Freezable",
  "abi": [
    {
      "constant": false,
      "inputs": [
        {
          "name": "_baseOperators",
          "type": "address"
        }
      ],
      "name": "setOperatorsContract",
      "outputs": [],
      "payable": false,
      "stateMutability": "nonpayable",
      "type": "function"
    },
    {
      "constant": true,
      "inputs": [],
      "name": "getOperatorsPending",
      "outputs": [
        {
          "name": "",
          "type": "address"
        }
      ],
      "payable": false,
      "stateMutability": "view",
      "type": "function"
    },
    {
      "constant": true,
      "inputs": [
        {
          "name": "_account",
          "type": "address"
        }
      ],
      "name": "isAdmin",
      "outputs": [
        {
          "name": "",
          "type": "bool"
        }
      ],
      "payable": false,
      "stateMutability": "view",
      "type": "function"
    },
    {
      "constant": true,
      "inputs": [
        {
          "name": "_account",
          "type": "address"
        }
      ],
      "name": "isOperatorOrSystem",
      "outputs": [
        {
          "name": "",
          "type": "bool"
        }
      ],
      "payable": false,
      "stateMutability": "view",
      "type": "function"
    },
    {
      "constant": true,
      "inputs": [
        {
          "name": "_account",
          "type": "address"
        }
      ],
      "name": "isSystem",
      "outputs": [
        {
          "name": "",
          "type": "bool"
        }
      ],
      "payable": false,
      "stateMutability": "view",
      "type": "function"
    },
    {
      "constant": true,
      "inputs": [],
      "name": "isInitialized",
      "outputs": [
        {
          "name": "",
          "type": "bool"
        }
      ],
      "payable": false,
      "stateMutability": "view",
      "type": "function"
    },
    {
      "constant": true,
      "inputs": [],
      "name": "getOperatorsContract",
      "outputs": [
        {
          "name": "",
          "type": "address"
        }
      ],
      "payable": false,
      "stateMutability": "view",
      "type": "function"
    },
    {
      "constant": true,
      "inputs": [
        {
          "name": "_account",
          "type": "address"
        }
      ],
      "name": "isOperator",
      "outputs": [
        {
          "name": "",
          "type": "bool"
        }
      ],
      "payable": false,
      "stateMutability": "view",
      "type": "function"
    },
    {
      "constant": false,
      "inputs": [],
      "name": "confirmOperatorsContract",
      "outputs": [],
      "payable": false,
      "stateMutability": "nonpayable",
      "type": "function"
    },
    {
      "constant": false,
      "inputs": [
        {
          "name": "_baseOperators",
          "type": "address"
        }
      ],
      "name": "initialize",
      "outputs": [],
      "payable": false,
      "stateMutability": "nonpayable",
      "type": "function"
    },
    {
      "constant": true,
      "inputs": [
        {
          "name": "",
          "type": "address"
        }
      ],
      "name": "frozen",
      "outputs": [
        {
          "name": "",
          "type": "bool"
        }
      ],
      "payable": false,
      "stateMutability": "view",
      "type": "function"
    },
    {
      "constant": true,
      "inputs": [
        {
          "name": "_account",
          "type": "address"
        }
      ],
      "name": "isAdminOrSystem",
      "outputs": [
        {
          "name": "",
          "type": "bool"
        }
      ],
      "payable": false,
      "stateMutability": "view",
      "type": "function"
    },
    {
      "anonymous": false,
      "inputs": [
        {
          "indexed": true,
          "name": "account",
          "type": "address"
        },
        {
          "indexed": false,
          "name": "frozen",
          "type": "bool"
        }
      ],
      "name": "FreezeToggled",
      "type": "event"
    },
    {
      "anonymous": false,
      "inputs": [
        {
          "indexed": true,
          "name": "caller",
          "type": "address"
        },
        {
          "indexed": true,
          "name": "operatorsAddress",
          "type": "address"
        }
      ],
      "name": "OperatorsContractChanged",
      "type": "event"
    },
    {
      "anonymous": false,
      "inputs": [
        {
          "indexed": true,
          "name": "caller",
          "type": "address"
        },
        {
          "indexed": true,
          "name": "operatorsAddress",
          "type": "address"
        }
      ],
      "name": "OperatorsContractPending",
      "type": "event"
    },
    {
      "constant": true,
      "inputs": [
        {
          "name": "_account",
          "type": "address"
        }
      ],
      "name": "isFrozen",
      "outputs": [
        {
          "name": "",
          "type": "bool"
        }
      ],
      "payable": false,
      "stateMutability": "view",
      "type": "function"
    },
    {
      "constant": false,
      "inputs": [
        {
          "name": "_account",
          "type": "address"
        },
        {
          "name": "_toggled",
          "type": "bool"
        }
      ],
      "name": "toggleFreeze",
      "outputs": [],
      "payable": false,
      "stateMutability": "nonpayable",
      "type": "function"
    },
    {
      "constant": false,
      "inputs": [
        {
          "name": "_addresses",
          "type": "address[]"
        },
        {
          "name": "_toggled",
          "type": "bool"
        }
      ],
      "name": "batchToggleFreeze",
      "outputs": [],
      "payable": false,
      "stateMutability": "nonpayable",
      "type": "function"
    }
  ],
  "bytecode": "0x608060405234801561001057600080fd5b50610de9806100206000396000f3fe6080604052600436106100da5763ffffffff7c01000000000000000000000000000000000000000000000000000000006000350416631745145e81146100df5780631c6bbabc1461011457806324d7806c14610145578063295185141461018c57806334cdcf26146101bf578063392e53cd146101f25780635ead86c6146102075780636d70f7ae1461021c57806384a9d4d71461024f5780638535a56b146103015780638feaade414610316578063c4d66de814610351578063d051665014610384578063d0ea5f4d146103b7578063e5839836146103ea575b600080fd5b3480156100eb57600080fd5b506101126004803603602081101561010257600080fd5b5035600160a060020a031661041d565b005b34801561012057600080fd5b50610129610581565b60408051600160a060020a039092168252519081900360200190f35b34801561015157600080fd5b506101786004803603602081101561016857600080fd5b5035600160a060020a0316610590565b604080519115158252519081900360200190f35b34801561019857600080fd5b50610178600480360360208110156101af57600080fd5b5035600160a060020a031661062c565b3480156101cb57600080fd5b50610178600480360360208110156101e257600080fd5b5035600160a060020a0316610734565b3480156101fe57600080fd5b5061017861079e565b34801561021357600080fd5b506101296107a7565b34801561022857600080fd5b506101786004803603602081101561023f57600080fd5b5035600160a060020a03166107b6565b34801561025b57600080fd5b506101126004803603604081101561027257600080fd5b81019060208101813564010000000081111561028d57600080fd5b82018360208201111561029f57600080fd5b803590602001918460208302840111640100000000831117156102c157600080fd5b9190808060200260200160405190810160405280939291908181526020018383602002808284376000920191909152509295505050503515159050610820565b34801561030d57600080fd5b506101126108db565b34801561032257600080fd5b506101126004803603604081101561033957600080fd5b50600160a060020a0381351690602001351515610a02565b34801561035d57600080fd5b506101126004803603602081101561037457600080fd5b5035600160a060020a0316610b4e565b34801561039057600080fd5b50610178600480360360208110156103a757600080fd5b5035600160a060020a0316610c3b565b3480156103c357600080fd5b50610178600480360360208110156103da57600080fd5b5035600160a060020a0316610c50565b3480156103f657600080fd5b506101786004803603602081101561040d57600080fd5b5035600160a060020a0316610cba565b61042633610590565b15156104a2576040805160e560020a62461bcd02815260206004820152603160248201527f4f70657261746f7261626c653a2063616c6c657220646f6573206e6f7420686160448201527f7665207468652061646d696e20726f6c65000000000000000000000000000000606482015290519081900360840190fd5b600160a060020a0381161515610528576040805160e560020a62461bcd02815260206004820152603f60248201527f4f70657261746f7261626c653a2061646472657373206f66206e6577206f706560448201527f7261746f727320636f6e74726163742063616e206e6f74206265207a65726f00606482015290519081900360840190fd5b6034805473ffffffffffffffffffffffffffffffffffffffff1916600160a060020a03831690811790915560405133907f01e6311290e7fb795a47761d6ca6a39b9c898bbf2e8b0e40211aa9f2f6c0202990600090a350565b603454600160a060020a031690565b603354604080517f24d7806c000000000000000000000000000000000000000000000000000000008152600160a060020a038481166004830152915160009392909216916324d7806c91602480820192602092909190829003018186803b1580156105fa57600080fd5b505afa15801561060e573d6000803e3d6000fd5b505050506040513d602081101561062457600080fd5b505192915050565b603354604080517f6d70f7ae000000000000000000000000000000000000000000000000000000008152600160a060020a03848116600483015291516000939290921691636d70f7ae91602480820192602092909190829003018186803b15801561069657600080fd5b505afa1580156106aa573d6000803e3d6000fd5b505050506040513d60208110156106c057600080fd5b50518061072e5750603354604080517f34cdcf26000000000000000000000000000000000000000000000000000000008152600160a060020a038581166004830152915191909216916334cdcf26916024808301926020929190829003018186803b1580156105fa57600080fd5b92915050565b603354604080517f34cdcf26000000000000000000000000000000000000000000000000000000008152600160a060020a038481166004830152915160009392909216916334cdcf2691602480820192602092909190829003018186803b1580156105fa57600080fd5b60005460ff1690565b603354600160a060020a031690565b603354604080517f6d70f7ae000000000000000000000000000000000000000000000000000000008152600160a060020a03848116600483015291516000939290921691636d70f7ae91602480820192602092909190829003018186803b1580156105fa57600080fd5b815161010010156108a1576040805160e560020a62461bcd02815260206004820152602a60248201527f467265657a61626c653a20626174636820636f756e742069732067726561746560448201527f72207468616e2032353600000000000000000000000000000000000000000000606482015290519081900360840190fd5b60005b82518110156108d6576108ce83828151811015156108be57fe5b9060200190602002015183610a02565b6001016108a4565b505050565b603454600160a060020a03161515610963576040805160e560020a62461bcd02815260206004820152603f60248201527f4f70657261746f7261626c653a2061646472657373206f66206e6577206f706560448201527f7261746f727320636f6e74726163742063616e206e6f74206265207a65726f00606482015290519081900360840190fd5b603454600160a060020a031633146109eb576040805160e560020a62461bcd02815260206004820152603a60248201527f4f70657261746f7261626c653a2073686f756c642062652063616c6c6564206660448201527f726f6d206e6577206f70657261746f727320636f6e7472616374000000000000606482015290519081900360840190fd5b603454610a0090600160a060020a0316610cd8565b565b81600160a060020a0381161515610a63576040805160e560020a62461bcd02815260206004820152601860248201527f467265657a61626c653a20456d70747920616464726573730000000000000000604482015290519081900360640190fd5b610a6c336107b6565b1515610ae8576040805160e560020a62461bcd02815260206004820152603460248201527f4f70657261746f7261626c653a2063616c6c657220646f6573206e6f7420686160448201527f766520746865206f70657261746f7220726f6c65000000000000000000000000606482015290519081900360840190fd5b600160a060020a038316600081815260356020908152604091829020805460ff19168615151790819055825160ff9091161515815291517f3c143a3c8cc9eafd41748a32abe319b06bd5b995c988fa06db8d1ef4e5841edf9281900390910190a2505050565b600054610100900460ff1680610b675750610b67610db7565b80610b75575060005460ff16155b1515610bf1576040805160e560020a62461bcd02815260206004820152603d60248201527f496e697469616c697a61626c653a20436f6e747261637420696e7374616e636560448201527f2068617320616c7265616479206265656e20696e697469616c697a6564000000606482015290519081900360840190fd5b600054610100900460ff16158015610c1c576000805460ff1961ff0019909116610100171660011790555b610c2582610cd8565b8015610c37576000805461ff00191690555b5050565b60356020526000908152604090205460ff1681565b603354604080517f24d7806c000000000000000000000000000000000000000000000000000000008152600160a060020a038481166004830152915160009392909216916324d7806c91602480820192602092909190829003018186803b15801561069657600080fd5b600160a060020a031660009081526035602052604090205460ff1690565b600160a060020a0381161515610d5e576040805160e560020a62461bcd02815260206004820152603e60248201527f4f70657261746f7261626c653a2061646472657373206f66206e6577206f706560448201527f7261746f727320636f6e74726163742063616e6e6f74206265207a65726f0000606482015290519081900360840190fd5b6033805473ffffffffffffffffffffffffffffffffffffffff1916600160a060020a03831690811790915560405133907f581e9e5016a25985d2da9da423c68d9946de634ff0e3447eaaa9575d135e819e90600090a350565b303b159056fea165627a7a72305820b8491e6ea7a4354284e8e4c4913605e5240c01798ee1055a620a55280fdada980029",
  "source": "/**\n * @title Freezable\n * @author Connor Howe <Connor.howe@sygnum.com>\n * @dev Freezable contract to freeze functionality for particular addresses.  Freezing/unfreezing is controlled\n *       by operators in Operatorable contract which is initialized with the relevant BaseOperators address.\n */\n\npragma solidity 0.5.0;\n\nimport \"../role/Operatorable.sol\";\n\ncontract Freezable is Operatorable {\n    mapping(address => bool) public frozen;\n\n    event FreezeToggled(address indexed account, bool frozen);\n\n    /**\n     * @dev Reverts if address is empty.\n     * @param _address address to validate.\n     */\n    modifier onlyValidAddress(address _address) {\n        require(_address != address(0), \"Freezable: Empty address\");\n        _;\n    }\n\n    /**\n     * @dev Reverts if account address is frozen.\n     * @param _account address to validate is not frozen.\n     */\n    modifier whenNotFrozen(address _account) {\n        require(!frozen[_account], \"Freezable: account is frozen\");\n        _;\n    }\n\n    /**\n     * @dev Reverts if account address is not frozen.\n     * @param _account address to validate is frozen.\n     */\n    modifier whenFrozen(address _account) {\n        require(frozen[_account], \"Freezable: account is not frozen\");\n        _;\n    }\n\n    /**\n     * @dev Getter to determine if address is frozen.\n     * @param _account address to determine if frozen or not.\n     * @return bool is frozen\n     */\n    function isFrozen(address _account) public view returns (bool) {\n        return frozen[_account];\n    }\n\n    /**\n     * @dev Toggle freeze/unfreeze on _account address, with _toggled being true/false.\n     * @param _account address to toggle.\n     * @param _toggled freeze/unfreeze.\n     */\n    function toggleFreeze(address _account, bool _toggled)\n        public\n        onlyValidAddress(_account)\n        onlyOperator\n    {\n        frozen[_account] = _toggled;\n        emit FreezeToggled(_account, frozen[_account]);\n    }\n\n    /**\n     * @dev Batch freeze/unfreeze multiple addresses, with _toggled being true/false.\n     * @param _addresses address array.\n     * @param _toggled freeze/unfreeze.\n     */\n    function batchToggleFreeze(address[] memory _addresses, bool _toggled) public {\n        require(_addresses.length <= 256, 'Freezable: batch count is greater than 256');\n        for (uint256 i = 0; i < _addresses.length; i++) {\n            toggleFreeze(_addresses[i], _toggled);\n        }\n    }\n}\n",
  "sourcePath": "@sygnum/solidity-base-contracts/contracts/helpers/Freezable.sol",
  "compiler": {
    "name": "solc",
    "version": "0.5.0+commit.1d4f565a.Emscripten.clang"
  },
  "schemaVersion": "3.0.23",
  "updatedAt": "2020-03-03T20:24:25.159Z",
  "devdoc": {
    "methods": {
      "batchToggleFreeze(address[],bool)": {
        "details": "Batch freeze/unfreeze multiple addresses, with _toggled being true/false.",
        "params": {
          "_addresses": "address array.",
          "_toggled": "freeze/unfreeze."
        }
      },
      "confirmOperatorsContract()": {
        "details": "The function should be called from new operators contract by admin to insure that operatorsPending address      is the real contract address."
      },
      "getOperatorsContract()": {
        "return": "The address of the BaseOperators contract."
      },
      "getOperatorsPending()": {
        "return": "The pending address of the BaseOperators contract."
      },
      "initialize(address)": {
        "details": "Initialization instead of constructor, called once. The setOperatorsContract function can be called only by Admin role with      confirmation through the operators contract.",
        "params": {
          "_baseOperators": "BaseOperators contract address."
        }
      },
      "isAdmin(address)": {
        "return": "If '_account' has admin privileges."
      },
      "isAdminOrSystem(address)": {
        "return": "If '_account' has admin or system privileges."
      },
      "isFrozen(address)": {
        "details": "Getter to determine if address is frozen.",
        "params": {
          "_account": "address to determine if frozen or not."
        },
        "return": "bool is frozen"
      },
      "isOperator(address)": {
        "return": "If '_account' has operator privileges."
      },
      "isOperatorOrSystem(address)": {
        "return": "If '_account' has operator or system privileges."
      },
      "isSystem(address)": {
        "return": "If '_account' has system privileges."
      },
      "setOperatorsContract(address)": {
        "details": "Set the new the address of Operators contract, should be confirmed from operators contract by calling confirmFor(addr)      where addr is the address of current contract instance. This is done to prevent the case when the new contract address is      broken and control of the contract can be lost in such case",
        "params": {
          "_baseOperators": "BaseOperators contract address."
        }
      },
      "toggleFreeze(address,bool)": {
        "details": "Toggle freeze/unfreeze on _account address, with _toggled being true/false.",
        "params": {
          "_account": "address to toggle.",
          "_toggled": "freeze/unfreeze."
        }
      }
    }
  },
  "userdoc": {
    "methods": {}
  }
}