{
  "contractName": "Initializable",
  "abi": [
    {
      "constant": true,
      "inputs": [],
      "name": "isInitialized",
      "outputs": [
        {
          "name": "",
          "type": "bool"
        }
      ],
      "payable": false,
      "stateMutability": "view",
      "type": "function"
    }
  ],
  "bytecode": "0x6080604052348015600f57600080fd5b50609e8061001e6000396000f3fe608060405260043610603e5763ffffffff7c0100000000000000000000000000000000000000000000000000000000600035041663392e53cd81146043575b600080fd5b348015604e57600080fd5b5060556069565b604080519115158252519081900360200190f35b60005460ff169056fea165627a7a723058203c605af871e6d574683a8879789b2ddd06f3851d3c246bbfbd838af41254c7e40029",
  "source": "pragma solidity 0.5.0;\n\n/**\n * @title Initializable\n *\n * @dev Helper contract to support initializer functions. To use it, replace\n * the constructor with a function that has the `initializer` modifier.\n * WARNING: Unlike constructors, initializer functions must be manually\n * invoked. This applies both to deploying an Initializable contract, as well\n * as extending an Initializable contract via inheritance.\n * WARNING: When used with inheritance, manual care must be taken to not invoke\n * a parent initializer twice, or ensure that all initializers are idempotent,\n * because this is not dealt with automatically as with constructors.\n */\ncontract Initializable {\n\n  /**\n   * @dev Indicates that the contract has been initialized.\n   */\n  bool private initialized;\n\n  /**\n   * @dev Indicates that the contract is in the process of being initialized.\n   */\n  bool private initializing;\n\n  modifier whenInitialized() {\n    require(initialized, \"Initializable: Contract has not been initialized\");\n    _;\n  }\n\n  /**\n   * @dev Modifier to use in the initializer function of a contract.\n   */\n  modifier initializer() {\n    require(initializing || isConstructor() || !initialized, \"Initializable: Contract instance has already been initialized\");\n\n    bool isTopLevelCall = !initializing;\n    if (isTopLevelCall) {\n      initializing = true;\n      initialized = true;\n    }\n\n    _;\n\n    if (isTopLevelCall) {\n      initializing = false;\n    }\n  }\n\n  /// @dev Returns true if and only if the function is running in the constructor\n  function isConstructor() private view returns (bool) {\n    // extcodesize checks the size of the code stored in an address, and\n    // address returns the current address. Since the code is still not\n    // deployed when running a constructor, any checks on its code size will\n    // yield zero, making it an effective way to detect if a contract is\n    // under construction or not.\n    uint256 cs;\n    assembly { cs := extcodesize(address) }\n    return cs == 0;\n  }\n\n  function isInitialized() public view returns (bool) {\n    return initialized;\n  }\n\n  // Reserved storage space to allow for layout changes in the future.\n  uint256[50] private ______gap;\n}\n",
  "sourcePath": "@sygnum/solidity-base-contracts/contracts/helpers/Initializable.sol",
  "compiler": {
    "name": "solc",
    "version": "0.5.0+commit.1d4f565a.Emscripten.clang"
  },
  "schemaVersion": "3.0.23",
  "updatedAt": "2020-03-03T20:24:25.160Z",
  "devdoc": {
    "details": "Helper contract to support initializer functions. To use it, replace the constructor with a function that has the `initializer` modifier. WARNING: Unlike constructors, initializer functions must be manually invoked. This applies both to deploying an Initializable contract, as well as extending an Initializable contract via inheritance. WARNING: When used with inheritance, manual care must be taken to not invoke a parent initializer twice, or ensure that all initializers are idempotent, because this is not dealt with automatically as with constructors.",
    "methods": {},
    "title": "Initializable"
  },
  "userdoc": {
    "methods": {}
  }
}