{
  "contractName": "Operatorable",
  "abi": [
    {
      "constant": true,
      "inputs": [],
      "name": "isInitialized",
      "outputs": [
        {
          "name": "",
          "type": "bool"
        }
      ],
      "payable": false,
      "stateMutability": "view",
      "type": "function"
    },
    {
      "anonymous": false,
      "inputs": [
        {
          "indexed": true,
          "name": "caller",
          "type": "address"
        },
        {
          "indexed": true,
          "name": "operatorsAddress",
          "type": "address"
        }
      ],
      "name": "OperatorsContractChanged",
      "type": "event"
    },
    {
      "anonymous": false,
      "inputs": [
        {
          "indexed": true,
          "name": "caller",
          "type": "address"
        },
        {
          "indexed": true,
          "name": "operatorsAddress",
          "type": "address"
        }
      ],
      "name": "OperatorsContractPending",
      "type": "event"
    },
    {
      "constant": false,
      "inputs": [
        {
          "name": "_baseOperators",
          "type": "address"
        }
      ],
      "name": "initialize",
      "outputs": [],
      "payable": false,
      "stateMutability": "nonpayable",
      "type": "function"
    },
    {
      "constant": false,
      "inputs": [
        {
          "name": "_baseOperators",
          "type": "address"
        }
      ],
      "name": "setOperatorsContract",
      "outputs": [],
      "payable": false,
      "stateMutability": "nonpayable",
      "type": "function"
    },
    {
      "constant": false,
      "inputs": [],
      "name": "confirmOperatorsContract",
      "outputs": [],
      "payable": false,
      "stateMutability": "nonpayable",
      "type": "function"
    },
    {
      "constant": true,
      "inputs": [],
      "name": "getOperatorsContract",
      "outputs": [
        {
          "name": "",
          "type": "address"
        }
      ],
      "payable": false,
      "stateMutability": "view",
      "type": "function"
    },
    {
      "constant": true,
      "inputs": [],
      "name": "getOperatorsPending",
      "outputs": [
        {
          "name": "",
          "type": "address"
        }
      ],
      "payable": false,
      "stateMutability": "view",
      "type": "function"
    },
    {
      "constant": true,
      "inputs": [
        {
          "name": "_account",
          "type": "address"
        }
      ],
      "name": "isOperator",
      "outputs": [
        {
          "name": "",
          "type": "bool"
        }
      ],
      "payable": false,
      "stateMutability": "view",
      "type": "function"
    },
    {
      "constant": true,
      "inputs": [
        {
          "name": "_account",
          "type": "address"
        }
      ],
      "name": "isAdmin",
      "outputs": [
        {
          "name": "",
          "type": "bool"
        }
      ],
      "payable": false,
      "stateMutability": "view",
      "type": "function"
    },
    {
      "constant": true,
      "inputs": [
        {
          "name": "_account",
          "type": "address"
        }
      ],
      "name": "isSystem",
      "outputs": [
        {
          "name": "",
          "type": "bool"
        }
      ],
      "payable": false,
      "stateMutability": "view",
      "type": "function"
    },
    {
      "constant": true,
      "inputs": [
        {
          "name": "_account",
          "type": "address"
        }
      ],
      "name": "isAdminOrSystem",
      "outputs": [
        {
          "name": "",
          "type": "bool"
        }
      ],
      "payable": false,
      "stateMutability": "view",
      "type": "function"
    },
    {
      "constant": true,
      "inputs": [
        {
          "name": "_account",
          "type": "address"
        }
      ],
      "name": "isOperatorOrSystem",
      "outputs": [
        {
          "name": "",
          "type": "bool"
        }
      ],
      "payable": false,
      "stateMutability": "view",
      "type": "function"
    }
  ],
  "bytecode": "0x608060405234801561001057600080fd5b50610a30806100206000396000f3fe6080604052600436106100ae5763ffffffff7c01000000000000000000000000000000000000000000000000000000006000350416631745145e81146100b35780631c6bbabc146100e857806324d7806c14610119578063295185141461016057806334cdcf2614610193578063392e53cd146101c65780635ead86c6146101db5780636d70f7ae146101f05780638535a56b14610223578063c4d66de814610238578063d0ea5f4d1461026b575b600080fd5b3480156100bf57600080fd5b506100e6600480360360208110156100d657600080fd5b5035600160a060020a031661029e565b005b3480156100f457600080fd5b506100fd610402565b60408051600160a060020a039092168252519081900360200190f35b34801561012557600080fd5b5061014c6004803603602081101561013c57600080fd5b5035600160a060020a0316610411565b604080519115158252519081900360200190f35b34801561016c57600080fd5b5061014c6004803603602081101561018357600080fd5b5035600160a060020a03166104ad565b34801561019f57600080fd5b5061014c600480360360208110156101b657600080fd5b5035600160a060020a03166105b5565b3480156101d257600080fd5b5061014c61061f565b3480156101e757600080fd5b506100fd610628565b3480156101fc57600080fd5b5061014c6004803603602081101561021357600080fd5b5035600160a060020a0316610637565b34801561022f57600080fd5b506100e66106a1565b34801561024457600080fd5b506100e66004803603602081101561025b57600080fd5b5035600160a060020a03166107c8565b34801561027757600080fd5b5061014c6004803603602081101561028e57600080fd5b5035600160a060020a03166108b5565b6102a733610411565b1515610323576040805160e560020a62461bcd02815260206004820152603160248201527f4f70657261746f7261626c653a2063616c6c657220646f6573206e6f7420686160448201527f7665207468652061646d696e20726f6c65000000000000000000000000000000606482015290519081900360840190fd5b600160a060020a03811615156103a9576040805160e560020a62461bcd02815260206004820152603f60248201527f4f70657261746f7261626c653a2061646472657373206f66206e6577206f706560448201527f7261746f727320636f6e74726163742063616e206e6f74206265207a65726f00606482015290519081900360840190fd5b6034805473ffffffffffffffffffffffffffffffffffffffff1916600160a060020a03831690811790915560405133907f01e6311290e7fb795a47761d6ca6a39b9c898bbf2e8b0e40211aa9f2f6c0202990600090a350565b603454600160a060020a031690565b603354604080517f24d7806c000000000000000000000000000000000000000000000000000000008152600160a060020a038481166004830152915160009392909216916324d7806c91602480820192602092909190829003018186803b15801561047b57600080fd5b505afa15801561048f573d6000803e3d6000fd5b505050506040513d60208110156104a557600080fd5b505192915050565b603354604080517f6d70f7ae000000000000000000000000000000000000000000000000000000008152600160a060020a03848116600483015291516000939290921691636d70f7ae91602480820192602092909190829003018186803b15801561051757600080fd5b505afa15801561052b573d6000803e3d6000fd5b505050506040513d602081101561054157600080fd5b5051806105af5750603354604080517f34cdcf26000000000000000000000000000000000000000000000000000000008152600160a060020a038581166004830152915191909216916334cdcf26916024808301926020929190829003018186803b15801561047b57600080fd5b92915050565b603354604080517f34cdcf26000000000000000000000000000000000000000000000000000000008152600160a060020a038481166004830152915160009392909216916334cdcf2691602480820192602092909190829003018186803b15801561047b57600080fd5b60005460ff1690565b603354600160a060020a031690565b603354604080517f6d70f7ae000000000000000000000000000000000000000000000000000000008152600160a060020a03848116600483015291516000939290921691636d70f7ae91602480820192602092909190829003018186803b15801561047b57600080fd5b603454600160a060020a03161515610729576040805160e560020a62461bcd02815260206004820152603f60248201527f4f70657261746f7261626c653a2061646472657373206f66206e6577206f706560448201527f7261746f727320636f6e74726163742063616e206e6f74206265207a65726f00606482015290519081900360840190fd5b603454600160a060020a031633146107b1576040805160e560020a62461bcd02815260206004820152603a60248201527f4f70657261746f7261626c653a2073686f756c642062652063616c6c6564206660448201527f726f6d206e6577206f70657261746f727320636f6e7472616374000000000000606482015290519081900360840190fd5b6034546107c690600160a060020a031661091f565b565b600054610100900460ff16806107e157506107e16109fe565b806107ef575060005460ff16155b151561086b576040805160e560020a62461bcd02815260206004820152603d60248201527f496e697469616c697a61626c653a20436f6e747261637420696e7374616e636560448201527f2068617320616c7265616479206265656e20696e697469616c697a6564000000606482015290519081900360840190fd5b600054610100900460ff16158015610896576000805460ff1961ff0019909116610100171660011790555b61089f8261091f565b80156108b1576000805461ff00191690555b5050565b603354604080517f24d7806c000000000000000000000000000000000000000000000000000000008152600160a060020a038481166004830152915160009392909216916324d7806c91602480820192602092909190829003018186803b15801561051757600080fd5b600160a060020a03811615156109a5576040805160e560020a62461bcd02815260206004820152603e60248201527f4f70657261746f7261626c653a2061646472657373206f66206e6577206f706560448201527f7261746f727320636f6e74726163742063616e6e6f74206265207a65726f0000606482015290519081900360840190fd5b6033805473ffffffffffffffffffffffffffffffffffffffff1916600160a060020a03831690811790915560405133907f581e9e5016a25985d2da9da423c68d9946de634ff0e3447eaaa9575d135e819e90600090a350565b303b159056fea165627a7a7230582018d2191acd0ef1064dcd77c145dddd0fa29516022e4025532e08a9def8853b680029",
  "source": "/**\n * @title Operatorable\n * @author Connor Howe <Connor.howe@sygnum.com>\n * @dev Operatorable contract stores the BaseOperators contract address, and modifiers for\n *       contracts.\n */\n\npragma solidity 0.5.0;\n\nimport \"./interface/IBaseOperators.sol\";\nimport \"../helpers/Initializable.sol\";\n\ncontract Operatorable is Initializable {\n    IBaseOperators internal operatorsInst;\n    address private operatorsPending;\n\n    event OperatorsContractChanged(address indexed caller, address indexed operatorsAddress);\n    event OperatorsContractPending(address indexed caller, address indexed operatorsAddress);\n\n    /**\n     * @dev Reverts if sender does not have operator role associated.\n     */\n    modifier onlyOperator() {\n        require(isOperator(msg.sender), \"Operatorable: caller does not have the operator role\");\n        _;\n    }\n\n    /**\n     * @dev Reverts if sender does not have admin role associated.\n     */\n    modifier onlyAdmin() {\n        require(isAdmin(msg.sender), \"Operatorable: caller does not have the admin role\");\n        _;\n    }\n\n    /**\n     * @dev Reverts if sender does not have system role associated.\n     */\n    modifier onlySystem() {\n        require(isSystem(msg.sender), \"Operatorable: caller does not have the system role\");\n        _;\n    }\n\n    /**\n     * @dev Reverts if sender does not have admin or system role associated.\n     */\n    modifier onlyAdminOrSystem() {\n        require(isAdminOrSystem(msg.sender), \"Operatorable: caller does not have the admin role nor system\");\n        _;\n    }\n\n    /**\n     * @dev Reverts if sender does not have operator or system role associated.\n     */\n    modifier onlyOperatorOrSystem() {\n        require(isOperatorOrSystem(msg.sender), \"Operatorable: caller does not have the operator role nor system\");\n        _;\n    }\n    \n    /**\n     * @dev Initialization instead of constructor, called once. The setOperatorsContract function can be called only by Admin role with\n     *       confirmation through the operators contract.\n     * @param _baseOperators BaseOperators contract address.\n     */\n    function initialize(address _baseOperators) public initializer {\n        _setOperatorsContract(_baseOperators);\n    }\n\n    /**\n     * @dev Set the new the address of Operators contract, should be confirmed from operators contract by calling confirmFor(addr)\n     *       where addr is the address of current contract instance. This is done to prevent the case when the new contract address is\n     *       broken and control of the contract can be lost in such case\n     * @param _baseOperators BaseOperators contract address.\n     */\n    function setOperatorsContract(address _baseOperators) public onlyAdmin {\n        require(_baseOperators != address(0), \"Operatorable: address of new operators contract can not be zero\");\n        operatorsPending = _baseOperators;\n        emit OperatorsContractPending(msg.sender, _baseOperators);\n    }\n\n    /**\n     * @dev The function should be called from new operators contract by admin to insure that operatorsPending address\n     *       is the real contract address.\n     */\n    function confirmOperatorsContract() public {\n        require(operatorsPending != address(0), \"Operatorable: address of new operators contract can not be zero\");\n        require(msg.sender == operatorsPending, \"Operatorable: should be called from new operators contract\");\n        _setOperatorsContract(operatorsPending);\n    }\n\n    /**\n     * @return The address of the BaseOperators contract.\n     */\n    function getOperatorsContract() public view returns(address) {\n        return address(operatorsInst);\n    }\n\n    /**\n     * @return The pending address of the BaseOperators contract.\n     */\n    function getOperatorsPending() public view returns(address) {\n        return operatorsPending;\n    }\n\n    /**\n     * @return If '_account' has operator privileges.\n     */\n    function isOperator(address _account) public view returns (bool) {\n        return operatorsInst.isOperator(_account);\n    }\n\n    /**\n     * @return If '_account' has admin privileges.\n     */\n    function isAdmin(address _account) public view returns (bool) {\n        return operatorsInst.isAdmin(_account);\n    }\n\n    /**\n     * @return If '_account' has system privileges.\n     */\n    function isSystem(address _account) public view returns (bool) {\n        return operatorsInst.isSystem(_account);\n    }\n\n    /**\n     * @return If '_account' has admin or system privileges.\n     */\n    function isAdminOrSystem(address _account) public view returns (bool) {\n        return (operatorsInst.isAdmin(_account) || operatorsInst.isSystem(_account));\n    }\n\n    /**\n     * @return If '_account' has operator or system privileges.\n     */\n    function isOperatorOrSystem(address _account) public view returns (bool) {\n        return (operatorsInst.isOperator(_account) || operatorsInst.isSystem(_account));\n    }\n\n    /** INTERNAL FUNCTIONS */\n    function _setOperatorsContract(address _baseOperators) internal {\n        require(_baseOperators != address(0), \"Operatorable: address of new operators contract cannot be zero\");\n        operatorsInst = IBaseOperators(_baseOperators);\n        emit OperatorsContractChanged(msg.sender, _baseOperators);\n    }\n}",
  "sourcePath": "@sygnum/solidity-base-contracts/contracts/role/Operatorable.sol",
  "compiler": {
    "name": "solc",
    "version": "0.5.0+commit.1d4f565a.Emscripten.clang"
  },
  "schemaVersion": "3.0.23",
  "updatedAt": "2020-03-03T20:24:25.161Z",
  "devdoc": {
    "methods": {
      "confirmOperatorsContract()": {
        "details": "The function should be called from new operators contract by admin to insure that operatorsPending address      is the real contract address."
      },
      "getOperatorsContract()": {
        "return": "The address of the BaseOperators contract."
      },
      "getOperatorsPending()": {
        "return": "The pending address of the BaseOperators contract."
      },
      "initialize(address)": {
        "details": "Initialization instead of constructor, called once. The setOperatorsContract function can be called only by Admin role with      confirmation through the operators contract.",
        "params": {
          "_baseOperators": "BaseOperators contract address."
        }
      },
      "isAdmin(address)": {
        "return": "If '_account' has admin privileges."
      },
      "isAdminOrSystem(address)": {
        "return": "If '_account' has admin or system privileges."
      },
      "isOperator(address)": {
        "return": "If '_account' has operator privileges."
      },
      "isOperatorOrSystem(address)": {
        "return": "If '_account' has operator or system privileges."
      },
      "isSystem(address)": {
        "return": "If '_account' has system privileges."
      },
      "setOperatorsContract(address)": {
        "details": "Set the new the address of Operators contract, should be confirmed from operators contract by calling confirmFor(addr)      where addr is the address of current contract instance. This is done to prevent the case when the new contract address is      broken and control of the contract can be lost in such case",
        "params": {
          "_baseOperators": "BaseOperators contract address."
        }
      }
    }
  },
  "userdoc": {
    "methods": {}
  }
}